:020000040800F2
:10000000B01A0020A1010008250500081D05000800
:1000100021050008E9010008B30A000800000000FB
:10002000000000000000000000000000530700086E
:100030004504000800000000A10500084108000870
:10004000BB010008BB010008BB010008BB010008A0
:10005000BB010008BB010008BB010008BB01000890
:10006000BB010008BB010008BB010008BB01000880
:10007000BB010008BB010008BB010008BB01000870
:10008000BB010008BB010008BB010008BB01000860
:10009000BB010008BB010008BB010008BB01000850
:1000A000BB010008BB010008BB010008BB01000840
:1000B000BB010008BB010008BB010008BB01000830
:1000C000BB010008BB010008BB010008BB01000820
:1000D000BB010008C9080008BB010008BB010008FB
:1000E000BB010008BB010008BB010008BB01000800
:1000F000BB010008BB010008BB010008BB010008F0
:10010000BB010008BB010008BB010008BB010008DF
:10011000BB010008BB010008BB010008BB010008CF
:10012000BB010008BB010008BB010008BB010008BF
:10013000BB010008BB010008BB010008BB010008AF
:10014000BB010008BB010008BB010008BB0100089F
:10015000BB010008BB010008BB010008BB0100088F
:10016000BB010008BB010008BB010008BB0100087F
:10017000BB010008BB010008BB010008BB0100086F
:10018000BB010008BB010008DFF810D000F01AF82E
:1001900000480047A10C0008AFF30080B01A00200F
:1001A0000648804706480047FEE7FEE7FEE7FEE711
:1001B000FEE7FEE7FEE7FEE7FEE7FEE76108000870
:1001C00089010008064C074D06E0E06840F0010395
:1001D00094E8070098471034AC42F6D3FFF7D8FFF5
:1001E000541000087410000800BFFEE70246094BD7
:1001F0009A4201D2084801E00648103801F0005345
:100200001BB1064B0B40C36002E0044B0B40836004
:100210007047000010640240006002407D0F7D0FB7
:1002200021B1026842F00102026003E0026822F09C
:100230000102026070470000016821F001010160C5
:100240000021016041608160C16001612121416143
:100250004A49884204D13D21484A103A91608CE0D5
:1002600046491831884205D14FF47461434A103A27
:10027000916082E041493031884205D14FF47411D8
:100280003E4A103A916078E03C494831884205D1B5
:100290004FF07461394A103A91606EE0374960312D
:1002A000884204D13649354A103AD16065E0334975
:1002B0007831884204D13349304A103AD1605CE049
:1002C0002E499031884204D12F492C4A103AD160EE
:1002D00053E02A49A831884205D14FF03D51274AC1
:1002E000103AD16049E02949884204D13D21274A8A
:1002F000083A116041E025491831884205D14FF490
:100300007461224A083A116037E02049303188424E
:1003100005D14FF474111D4A083A11602DE01B49B4
:100320004831884205D14FF07461184A083A11608B
:1003300023E016496031884204D11149134A121F43
:1003400011601AE011497831884204D10D490F4AF1
:10035000121F116011E00D499031884204D10A4901
:100360000A4A121F116008E00849A831884204D1E6
:100370004FF03D51054A121F116070471060024056
:100380003D000020400F002000003D20106402408E
:10039000014600200A6802F001020AB1012000E0D3
:1003A0000020704730B503460A46002000240B4D5C
:1003B000AB4201D20A4901E00849103902F0005568
:1003C0000DB14C6800E00C68064D2C4004EA0205B3
:1003D0000DB1012000E0002030BD0000106402409B
:1003E000006002407D0F7D0F10B500220268134BA4
:1003F0001A40CC680B6823434C6923438C69234320
:10040000CC6923430C6A23434C6A23438C6A2343FD
:100410004C6B23438C6B23431A430260426922F0E6
:100420000702D1E90B3423431A4342610B6943604D
:100430004B6883608B68C36010BD00003F801CF078
:10044000416070477047F0B50A4600210023002440
:1004500000BF3DE0012505FA01F3156805EA030434
:100460009C4234D105684F000326BE40B543056069
:1004700015794E00B5400668354305601579012DA4
:1004800002D01579022D16D185684F000326BE4093
:10049000B543856055794E00B54086683543856023
:1004A000456801268E40B5434560456896798E4083
:1004B000B6B235434560C5684F000326BE40B5431C
:1004C000C560D5794E00B540C6683543C560491C46
:1004D0001029BFD3F0BDF0B5002300244D07ED0E69
:1004E00002FA05F3CE1000F1200555F826504E070C
:1004F000F70E0F26BE40B543CF1000F1200646F898
:100500002750CE1000F1200555F8265045EA030487
:10051000CE1000F1200545F82640F0BD00BFFEE7F3
:1005200000BFFEE77047000070B5002100230F22D6
:10053000C4781CB3174C246804F4E064C4F5E06488
:10054000C4F30721C1F10404E3B20A4144789C409A
:10055000E1B28478144021430C07210E0E4C05783B
:100560006155047804F01F050124AC4005786D1135
:10057000AD0005F1E025C5F8004109E0047804F07C
:100580001F050124AC40054D0678761145F826403C
:1005900070BD00000CED00E000E400E080E100E050
:1005A0007047000029B1064A12680243044B1A60E2
:1005B00004E0034A12688243014B1A60704700004E
:1005C0003038024029B1064A12680243044B1A60CF
:1005D00004E0034A12688243014B1A60704700002E
:1005E0004038024029B1064A12680243044B1A609F
:1005F00004E0034A12688243014B1A60704700000E
:1006000044380240F0B500210022002402250026D3
:100610000223324F3F6807F00C0121B1042905D0B5
:10062000082937D105E02E4F076036E02D4F0760CF
:1006300033E02A4F3F1F3F68C7F38056274F3F1FC5
:100640003F6807F03F036EB1264FB7FBF3F7DFF8C3
:100650008CC0ACF1040CDCF800C0CCF3881C07FBA8
:100660000CF40CE01E4FB7FBF3F7DFF870C0ACF1F1
:10067000040CDCF800C0CCF3881C07FB0CF4174F0B
:100680003F1F3F68C7F301477F1C7D00B4FBF5F7B0
:10069000076002E0124F076000BF00BF0F4F3F68C6
:1006A00007F0F0010909104F7A5C0768D7404760EE
:1006B0000A4F3F6807F4E051890A0B4F7A5C47689C
:1006C000D7408760054F3F6807F46041490B064FEC
:1006D0007A5C4768D740C760F0BD00000838024028
:1006E0000024F40000127A002000002021B10288CA
:1006F00042F04002028004E002884FF6BF731A40C5
:10070000028070471AB183880B43838002E083889C
:100710008B438380704710B50022028802F4415257
:100720000B884C8823438C882343CC8823430C8933
:1007300023434C8923438C892343CC8923431A4385
:100740000280838B4FF2FF74234083830B8A0382E2
:1007500010BD70470CB5002001900090344800682F
:1007600040F480303249086000BF3148006800F42E
:10077000003000900198401C0190009818B9019831
:10078000B0F5A04FF1D12A48006800F4003010B154
:100790000120009001E0002000900098012846D13F
:1007A00023484030006840F08050214940310860C3
:1007B0002048006840F440401E4908601C4808304A
:1007C00000681B49083108600846006840F4004092
:1007D00008600846006840F4A05008601648091FE9
:1007E0000860081F006840F08070091F086000BFA3
:1007F0000F48006800F000700028F9D040F2057042
:100800000E4908600A480830006820F003000849D3
:10081000083108600846006840F00200086000BF28
:1008200003480830006800F00C000828F8D10CBD1F
:10083000003802400070004008544007003C02406D
:1008400005480068401C0449086004480068401CD2
:1008500002490860704700000000002004000020EA
:1008600010B51548006840F470001349086013483B
:10087000006840F001001149086000200F4908316C
:1008800008600E4800680E4908400C4908600D4891
:10089000091D0860081F006820F48020091F0860F7
:1008A000002006490C310860FFF754FF4FF000604C
:1008B00001498039086010BD88ED00E00038024031
:1008C000FFFFF6FE1030002410B540F22551094814
:1008D00000F02DF868B1074800F0E2F8C4B22146F4
:1008E000044800F0E2F840F22551024800F004F814
:1008F00000BF10BD0010014010B50022002340F6DB
:100900006A14A14200D100BF0A1201249440A3B28C
:10091000DC43048010BD21B1828942F400528281FF
:1009200004E082894DF6FF731A408281704770B5EA
:100930000246002400230025002040F66A16B1423A
:1009400000D100BFC1F3421501F01F03012606FAD2
:1009500003F3012D02D19689334006E0022D02D126
:10096000168A334001E0968A33400C12012606FABB
:1009700004F41688344013B10CB1012000E00020CB
:1009800070BDF0B50346002400260025002040F687
:100990006A17B94200D100BF1846C1F3421401F0F2
:1009A0001F06012707FA06F5012C01D10C3004E0DF
:1009B000022C01D1103000E014301AB107682F4327
:1009C000076002E00768AF430760F0BD2DE9FF470D
:1009D00005460E460024A14600BFA046B08900B1DE
:1009E00000BF2C8A24F44054F08804432C82AC8944
:1009F00041F20C608443B08831890843718908430F
:100A00000443AC81AC8A24F44074B0890443AC82C2
:100A10006846FFF7F7FD2048854202D01F4885420F
:100A200002D1DDF80C9001E0DDF80890A88900F40F
:100A3000004040B109EBC90000EB091031684900E2
:100A4000B0FBF1F707E009EBC90000EB09103168D2
:100A50008900B0FBF1F76420B7FBF0F00401200936
:100A6000642101FB1078A88900F4004040B13220D5
:100A700000EBC800B0FBF1F000F00700044308E011
:100A8000322000EB08106421B0FBF1F000F00F0001
:100A900004432C81BDE8FF87001001400014014091
:100AA00001468888C0F308007047C1F308028280BD
:100AB000704700BFFEE70000014A024900F013B88A
:100AC000850C00080800002002E008C8121F08C1B9
:100AD000002AFAD170477047002001E001C1121FBF
:100AE000002AFBD170472DE9F04116460F46044617
:100AF000002503E03946B047641C6D1C20780028AF
:100B0000F8D12846BDE8F08130B5144800684FF4AC
:100B10007A72B0FBF2F1481EB0F1807F00D31BE087
:100B2000481E4FF0E022506150170F22002807DACC
:100B300013071D0E0A4B00F00F04241F1D5503E080
:100B400013071C0E074B1C5400BF00204FF0E0227F
:100B500090610720106100BF30BD00000C00002034
:100B600018ED00E000E400E0044A116800BF034A09
:100B70001268521A8242FAD3704700000000002027
:100B800010B54FF4407101F00702124B18684FF690
:100B9000FF031840104B034343EA02200D4B18603B
:100BA00000BF01210846FFF7FDFC01211020FFF7DF
:100BB000F9FC01211020FFF715FD01210220FFF7AC
:100BC000F1FC01218803FFF7FDFC01214805FFF737
:100BD000E9FC10BD0CED00E00000FA0508B5014687
:100BE000C1F1FF01552916DA01EB4100C0F1FF0008
:100BF000C0B28DF8000000208DF8010001EB41002B
:100C0000C0B28DF80200BDF8002010469DF8022009
:100C100040EA024008BDAA2919DAA1F15500C1B283
:100C200000208DF8000001EB4100C0B28DF80100FA
:100C300001EB4100C0F1FF00C0B28DF80200BDF829
:100C4000002010469DF8022040EA0240E2E7A1F1B0
:100C5000AA00C1B201EB4100C0B28DF8000001EB67
:100C60004100C0F1FF00C0B28DF8010000208DF8F6
:100C70000200BDF8002010469DF8022040EA024024
:100C8000C8E7000000BF054A128802F04002002AAF
:100C9000F9D0C2B2014B9A807047000000100140A9
:100CA000FFF76EFF00F0BEF8FFF72EFF04A0FFF77E
:100CB00003FF00F09DF902E0F02000F007F8FBE7E9
:100CC0007465737420626567696E0000F8B5054647
:100CD000002600BF19E000240EE0200290FBF5F092
:100CE0003044C7B23846FFF779FF014600902046EE
:100CF00000F03AF8601C84B2AC42EEDB00F00AF877
:100D00001420FFF731FF701C86B240F2FF3086429C
:100D1000E1DBF8BD10B511491148FFF743FBD8B12D
:100D20000E490F48FFF762FA012202210D48FFF732
:100D3000E9FC00210A48FFF773FA00BF0848FFF7F3
:100D400027FB0028FAD14FF4B4510548FFF778FB90
:100D500001210348FFF764FA10BD000020000020C5
:100D6000706002400038004073B50546F02D03DD89
:100D700025A0FFF7A1FE7CBD002412E09DF8040031
:100D8000C4F1070201219140084008B1FC2000E0B5
:100D9000C02005EB4501224A02EBC1010855601C49
:100DA00084B2072CEADD082412E09DF80500C4F1A6
:100DB0000F0201219140084008B1FC2000E0C02052
:100DC00005EB4501164A02EBC1010855601C84B2CF
:100DD0000F2CEADD102412E09DF80600C4F1170282
:100DE00001219140084008B1FC2000E0C02005EB43
:100DF00045010B4A02EBC1010855601C84B2172C57
:100E0000EADD00BFB7E700004572726F723A204F0B
:100E10007574206F662052616E6765210D0A0000AF
:100E20003000002010B500F055F800F031F800F067
:100E300001F810BD08B54FF4407101F00702114BE5
:100E400018684FF6FF0318400F4B034343EA022094
:100E50000C4B186000BF0020009025208DF800008A
:100E600000208DF801008DF8020001208DF80300AC
:100E70006846FFF759FB012240F225510348FFF76E
:100E800080FD08BD0CED00E00000FA0500100140F7
:100E90001FB5002000900190029003904FF4E130C4
:100EA00000900020ADF80400ADF80600ADF8080091
:100EB0000C20ADF80A000020ADF80C00694604488B
:100EC000FFF784FD01210248FFF725FD1FBD00004B
:100ED000001001401CB50020009001904FF4C0604C
:100EE000009002208DF804008DF8050000208DF898
:100EF000060001208DF8070069460748FFF7A3FAAE
:100F0000072209210448FFF7E6FA07220A210248CE
:100F1000FFF7E1FA1CBD00000000024000B58FB0F1
:100F20002248FFF789F900BF2048FFF731FA00286F
:100F3000FAD100901E4801901E4802904020039074
:100F40004FF4B4500490002005904FF48060069058
:100F500000200790089009904FF480300A900020FC
:100F60000B9003200C9000200D900E9069460F48C6
:100F7000FFF73AFA012202210D480C38FFF7C2FBB5
:100F800000210A48FFF74CF900BF0848FFF700FAB4
:100F90000028FAD14FF4B4510448FFF751FA012167
:100FA0000248FFF73DF90FB000BD0000706002403D
:100FB0000C380040300000201CB54FF40040009079
:100FC00002208DF8040000208DF8060002208DF824
:100FD000050001208DF8070069460448FFF733FA41
:100FE00005220F210148FFF776FA1CBD00040240DC
:100FF00010B5FFF7E1FF00F003F8FFF78FFF10BD1A
:1010000000B585B00020ADF800004FF48270ADF857
:1010100002000020ADF80400ADF806000120ADF894
:1010200008004002ADF80A001020ADF80C000020C6
:10103000ADF80E000720ADF8100069460448FFF730
:101040006AFB01210248FFF751FB05B000BD00001B
:10105000003800407410000800000020300000003C
:10106000C80A0008A410000830000020801A000000
:10107000D80A000800000000000000000000000086
:10108000007A030A000000000000000001020304CF
:10109000060708090000000001020304010203041E
:0410A000060708092E
:040000050800018965
:00000001FF
