:020000040800F2
:10000000380C0020A9010008A9090008A10900086E
:10001000A50900080D070008C30F00080000000034
:10002000000000000000000000000000910B00082C
:100030001107000800000000250A0008810C0008D4
:10004000C3010008C3010008C3010008C301000880
:10005000C3010008C3010008C3010008C301000870
:10006000C3010008C3010008C3010008C301000860
:10007000C3010008C3010008C3010008C301000850
:10008000C3010008C3010008C3010008C301000840
:10009000C3010008C3010008C3010008C301000830
:1000A000C3010008C3010008C3010008C301000820
:1000B000C3010008C3010008C3010008C301000810
:1000C000C3010008C3010008C3010008C301000800
:1000D000C3010008F90C0008C3010008C3010008AF
:1000E000C3010008C3010008C3010008C3010008E0
:1000F000C3010008C3010008C3010008C3010008D0
:10010000C3010008C3010008C3010008C3010008BF
:10011000C3010008C3010008C3010008C3010008AF
:10012000C3010008C3010008C3010008C30100089F
:10013000C3010008C3010008C3010008C30100088F
:10014000C3010008C3010008C3010008C30100087F
:10015000C3010008C3010008C3010008C30100086F
:10016000C3010008C3010008C3010008C30100085F
:10017000C3010008C3010008C3010008C30100084F
:10018000C3010008C3010008DFF810D000F01EFA18
:1001900000480047551C0008AFF30080380C0020D1
:1001A00080F30888704700000648804706480047EB
:1001B000FEE7FEE7FEE7FEE7FEE7FEE7FEE7FEE717
:1001C000FEE7FEE7910C00088901000830B50B46F8
:1001D000014600202022012409E021FA02F59D4277
:1001E00005D303FA02F5491B04FA02F52844151E4B
:1001F000A2F10102F1DC30BD2DE9F05F05460020DF
:1002000092469B4688460646814640241BE0284687
:1002100041464746224600F0FAF953465A46C01A6C
:10022000914110D311461846224600F0E1F92D1AEB
:1002300067EB01084F4622460120002100F0D8F963
:1002400017EB00094E41201EA4F10104DFDC4846F3
:1002500031462A464346BDE8F09F2DE9FE4F8046D1
:1002600081EA0300C00F0C46009021F0004123F00A
:100270000045B8EB0200A94105D240462146904610
:100280001C460B46024623F00040104347D0270D82
:10029000C7F30A00C3F30A510290401A01904028A4
:1002A0006BDAC3F3130040F4801B0098924620B130
:1002B0000023D2EB030A63EB0B0B01985946C0F104
:1002C0004002504600F094F906460D465046594605
:1002D000019A00F0ACF910EB08006141002487EAB4
:1002E000115284EAE7731A4340D0009A62B3019A2C
:1002F000012A4FEA075215DC001B61EB02014FF0A7
:10030000004202EA0752CDE90042001C41F580118B
:1003100032462B4600F0ACF903B0BDE8F08F404602
:100320002146F9E7001B61EB0201001C41F5801337
:1003300000185B412018A2F5001747EB030140EAC3
:10034000D570B6196D4111E06D084FEA360645EAE1
:10035000C0754FEA0752001B61EB0201001C41F51A
:10036000801149084FEA30000019514132462B46AE
:1003700003B0BDE8F04F00F06CB9009801224000D6
:100380000023D0EB020263EBE073009821464FEAB2
:10039000E074B8EB000061EB0401E9E783F000438F
:1003A0005BE781F0004158E72DE9FE4F81EA030445
:1003B00004F0004421F0004100944FF0000B23F0C2
:1003C000004350EA01045ED052EA03045BD0C3F359
:1003D0000A54C1F30A552C44A4F2F3340194A0FB4F
:1003E0000254C1F3130141F48011C3F3130343F426
:1003F000801301FB024400FB034E840A970A44EA7F
:10040000815447EA8357A4FB076802958D0A05FBD0
:1004100007854FEA932C04FB0C542705029D4FEAF5
:10042000065847EA1637B5EB08056EEB070C870E42
:10043000920E47EA811742EA8312A7FB0201B6EB4C
:100440000B0164EB00042B0D43EA0C335E1844EB04
:100450001C50DA465146E7FB0201C5F313044FEA8C
:100460000B3343EA14534FEA0432019C43EA060378
:10047000A4F10C040294009CCDE900B400F0F8F85B
:1004800003B0BDE8F08F00200146F9E72DE9F04DFB
:1004900081EA030404F0004B21F0004514464FF0BC
:1004A000000A23F0004150EA050220D054EA01027C
:1004B0001DD0C5F30A570246C5F31303C1F3130059
:1004C000C1F30A5640F4801543F48013A7EB0608E5
:1004D000101BD64608F2FD3873EB050002D308F175
:1004E000010801E092185B41B8F1000F03DA002027
:1004F0000146BDE8F08D00204FF480110646844689
:100500000EE0171B73EB050705D3121B63EB050306
:1005100006434CEA010C49084FEA300092185B414F
:1005200050EA0107EDD152EA030012D082EA04003A
:1005300083EA0501084305D0101BAB4106D2012216
:10054000002306E000224FF0004302E06FF00102BA
:1005500053101AEB06004CEB085110EB0A0041EB6C
:100560000B01BDE8F04D00F074B8C1F30A52C1F3BD
:10057000130140F2FF3341F480119A4202DA002065
:100580000146704740F233439A42A2F2334202DC02
:10059000524200F03CB800F02BB8000030B5041E09
:1005A00071F1000404DB4FF00044404264EB0101B0
:1005B000141E73F1000405DB1C464FF00043524249
:1005C00063EB0403994208BF904230BD064C074DCF
:1005D00006E0E06840F0010394E807009847103413
:1005E000AC42F6D3FFF7D4FDF42600081427000828
:1005F000202A04DB203A00FA02F1002070479140E3
:10060000C2F1200320FA03F3194390407047202AD7
:1006100004DB203A21FA02F00021704721FA02F3AC
:10062000D040C2F120029140084319467047202A69
:1006300006DBCB17203A41FA02F043EAE07306E00A
:1006400041FA02F3D040C2F120029140084319461A
:10065000704710B5141E73F1000408DA401C41F114
:10066000000192185B411A4301D120F0010010BD36
:100670002DE9F04D92469B4611B1B1FA81F202E0AC
:10068000B0FA80F220329046FFF7B2FF04460F46E0
:1006900040EA0A0041EA0B0153465A46084313D088
:1006A000114653EA010019D0C8F140025046FFF745
:1006B000AEFF05460E46504659464246FFF798FFA4
:1006C000084305D0012004E020463946BDE8F08DFE
:1006D0000020054346EAE0762C4337430A98630539
:1006E000E40AA0EB08000022FD0A44EA47540A305D
:1006F00002D500200146E9E7010510196941DDE94D
:10070000084500196941BDE8F04DA2E700BFFEE7CA
:100710007047000030B10749096841F48061054A1B
:10072000116005E00349096821F48061014A116004
:1007300070470000003C024070B504460A4600269F
:10074000092502B909E0012A01D1160205E0022AB1
:1007500001D1160201E04FF4407600F09FF8054603
:10076000092D28D11548006820F44070134908600D
:1007700008460068304308600846006820F0F8002A
:1007800008600846006844F0020108430B4908600D
:100790000846006840F48030086000F07FF80546A5
:1007A0000648006820F00200044908600846006816
:1007B00020F0F8000860284670BD0000103C0240A0
:1007C00009201349096801F48031B1F5803F01D156
:1007D00001201CE00E49096801F0100109B1062052
:1007E00015E00B49096801F4807109B102200EE09F
:1007F0000749096801F0E00109B1072007E0044951
:10080000096801F0020109B1082000E009207047E1
:100810000C3C02400348006840F000400149086079
:1008200070470000103C024030B502460C460925D6
:1008300000F034F80546092D19D10E48006820F45F
:1008400040700C4908600846006840F40070086079
:100850000846006840F001000860146000F01EF8CF
:1008600005460448006820F0010002490860284657
:1008700030BD0000103C02400548006800F0004018
:1008800028B1044802490C390860034808607047E1
:10089000103C024023016745AB89EFCD08B5092024
:1008A0000090FFF78DFF009002E0FFF789FF0090B6
:1008B0009DF800000128F8D09DF8000008BDF0B5B3
:1008C0000A4600210023002400BF3DE0012505FA6F
:1008D00001F3156805EA03049C4234D105684F0012
:1008E0000326BE40B543056015794E00B540066845
:1008F000354305601579012D02D01579022D16D1E9
:1009000085684F000326BE40B543856055794E008B
:10091000B540866835438560456801268E40B543FD
:100920004560456896798E40B6B235434560C568E6
:100930004F000326BE40B543C560D5794E00B54093
:10094000C6683543C560491C1029BFD3F0BDF0B55A
:10095000002300244D07ED0E02FA05F3CE1000F13E
:10096000200555F826504E07F70E0F26BE40B5431A
:10097000CF1000F1200646F82750CE1000F12005D8
:1009800055F8265045EA0304CE1000F1200545F83D
:100990002640F0BD0AB1816101E00B04836170471C
:1009A00000BFFEE700BFFEE77047000070B5002102
:1009B00000230F22C4781CB3174C246804F4E064AD
:1009C000C4F5E064C4F30721C1F10404E3B20A41B1
:1009D00044789C40E1B28478144021430C07210EF6
:1009E0000E4C05786155047804F01F050124AC40D5
:1009F00005786D11AD0005F1E025C5F8004109E06D
:100A0000047804F01F050124AC40054D06787611EA
:100A100045F8264070BD00000CED00E000E400E069
:100A200080E100E07047000029B1064A12680243E5
:100A3000044B1A6004E0034A12688243014B1A60B7
:100A4000704700003038024029B1064A126802435C
:100A5000044B1A6004E0034A12688243014B1A6097
:100A6000704700002038024029B1064A126802434C
:100A7000044B1A6004E0034A12688243014B1A6077
:100A8000704700004438024029B1064A1268024308
:100A9000044B1A6004E0034A12688243014B1A6057
:100AA0007047000024380240F0B5002100220024E5
:100AB000022500260223324F3F6807F00C0121B1C6
:100AC000042905D0082937D105E02E4F076036E00C
:100AD0002D4F076033E02A4F3F1F3F68C7F3805612
:100AE000274F3F1F3F6807F03F036EB1264FB7FB0C
:100AF000F3F7DFF88CC0ACF1040CDCF800C0CCF3E9
:100B0000881C07FB0CF40CE01E4FB7FBF3F7DFF873
:100B100070C0ACF1040CDCF800C0CCF3881C07FBFF
:100B20000CF4174F3F1F3F68C7F301477F1C7D0040
:100B3000B4FBF5F7076002E0124F076000BF00BF8B
:100B40000F4F3F6807F0F0010909104F7A5C076802
:100B5000D74047600A4F3F6807F4E051890A0B4FBE
:100B60007A5C4768D7408760054F3F6807F460416B
:100B7000490B064F7A5C4768D740C760F0BD00005C
:100B8000083802400024F40000127A0024000020FB
:100B9000704700000CB500200190009034480068B8
:100BA00040F480303249086000BF3148006800F4EA
:100BB000003000900198401C0190009818B90198ED
:100BC000B0F5A04FF1D12A48006800F4003010B110
:100BD0000120009001E0002000900098012846D1FB
:100BE00023484030006840F080502149403108607F
:100BF0002048006840F440401E4908601C48083006
:100C000000681B49083108600846006840F400404D
:100C100008600846006840F4A05008601648091FA4
:100C20000860081F006840F08070091F086000BF5E
:100C30000F48006800F000700028F9D040F20570FD
:100C40000E4908600A480830006820F0030008498F
:100C5000083108600846006840F00200086000BFE4
:100C600003480830006800F00C000828F8D10CBDDB
:100C7000003802400070004008544007003C024029
:100C800002480068401C01490860704700000020CD
:100C900010B51548006840F4700013490860134807
:100CA000006840F001001149086000200F49083138
:100CB00008600E4800680E4908400C4908600D485D
:100CC000091D0860081F006820F48020091F0860C3
:100CD000002006490C310860FFF75CFF4FF0006010
:100CE00001498039086010BD88ED00E000380240FD
:100CF000FFFFF6FE1030002410B540F225510C48DD
:100D000000F0A0F890B10A4800F056F9C4B20948C2
:100D10000068B0F5F03F08D2074806490968445416
:100D200004480068401C0349086000BF10BD000073
:100D3000001001400C0000200010002021B1828929
:100D400042F40052828104E082894DF6FF731A401A
:100D50008281704710B504463248844208D101218F
:100D60001020FFF791FE00211020FFF78DFE57E0C5
:100D70002D48844209D101214804FFF765FE002176
:100D80004FF40030FFF760FE4AE02848844209D162
:100D900001218804FFF758FE00214FF48020FFF75F
:100DA00053FE3DE02248844209D10121C804FFF7E7
:100DB0004BFE00214FF40020FFF746FE30E01D48B7
:100DC000844209D101210805FFF73EFE00214FF4BE
:100DD0008010FFF739FE23E01748844208D1012133
:100DE0002020FFF751FE00212020FFF74DFE17E0E5
:100DF0001248844209D101218807FFF725FE00210E
:100E00004FF08040FFF720FE0AE00D48844207D1F2
:100E100001214005FFF718FE00216005FFF714FED1
:100E200010BD000000100140004400400048004098
:100E3000004C004000500040001401400078004089
:100E4000007C004070B502460024002300250020ED
:100E500040F66A16B14200D100BFC1F3421501F05D
:100E60001F03012606FA03F3012D02D196893340B0
:100E700006E0022D02D1168A334001E0968A334003
:100E80000C12012606FA04F41688344013B10CB192
:100E9000012000E0002070BDF0B5034600240026CC
:100EA0000025002040F66A17B94200D100BF18465D
:100EB000C1F3421401F01F06012707FA06F5012CC1
:100EC00001D10C3004E0022C01D1103000E01430CC
:100ED0001AB107682F43076002E00768AF43076055
:100EE000F0BD00002DE9FF4705460E460024A1464F
:100EF00000BFA046B08900B100BF2C8A24F4405442
:100F0000F08804432C82AC8941F20C608443B088A1
:100F100031890843718908430443AC81AC8A24F4C5
:100F20004074B0890443AC826846FFF7BDFD204899
:100F3000854202D01F48854202D1DDF80C9001E0C5
:100F4000DDF80890A88900F4004040B109EBC90021
:100F500000EB091031684900B0FBF1F707E009EB3D
:100F6000C90000EB091031688900B0FBF1F764207B
:100F7000B7FBF0F004012009642101FB1078A88977
:100F800000F4004040B1322000EBC800B0FBF1F0AB
:100F900000F00700044308E0322000EB0810642151
:100FA000B0FBF1F000F00F0004432C81BDE8FF8797
:100FB000001001400014014001468888C0F3080079
:100FC000704700BFFEE700000FB4054B10B503A942
:100FD000044A029800F0DAF810BC5DF814FB000037
:100FE000391C00080800002002E008C8121F08C1D0
:100FF000002AFAD170477047002001E001C1121F9A
:10100000002AFBD1704700002DE9FF5F82B000216C
:10101000DDE90430020DDDF840B0034318D044F69A
:101020001050A2F2FF3242431514119801281FD02C
:10103000A5EB0B00401C5FEA000A4FF000064E4F84
:10104000DFF83891B046504615D5CAF1000413E0D8
:10105000119801244AA3012801D16FEA0B010298DB
:10106000119AC0E90031C0E9024206B0BDE8F09F24
:10107000CBF10000DFE704460021404A491842EB6B
:101080000450CDE9001012E0E00707D032463B469D
:1010900040464946FFF788F98046894632463B4636
:1010A00010461946FFF780F906460F466410002CDB
:1010B000EAD1DDE90401DDE90023BAF1000F06DA27
:1010C000FFF772F942464B46FFF76EF905E0FFF76E
:1010D000DDF942464B46FFF7D9F904460E46002299
:1010E000284BFFF75BFA03D84FF0FF30014607E0CB
:1010F0000022254B20463146FFF7AFF8FFF735FABF
:10110000102409E0002C0ADB0A220023FFF774F800
:10111000039B30321A55641E50EA0102F2D1641C5E
:10112000039AC4F111031444119A012A03D0012235
:1011300008430DD10AE0084304D000204FF0110B02
:10114000119072E7A3EB0B056D1E0DE05B4504DD0E
:101150004FF0000205F1010504E003DA4FF0000250
:10116000A5F10105002AECD002981199C0E90231DD
:10117000C0E9004579E70000000014400000F03F9E
:10118000300000000000F0430000E03F2DE9FF4F79
:1011900095B09A46884606460025EEE1252877D187
:1011A00000242746F94A0121039400E0044316F87D
:1011B000013F203B01FA03F01042F7D130782A2892
:1011C00011D06FF02F033078A0F13002092A16D821
:1011D000039A44F0020402EB820203EB4202104441
:1011E000761C0390EFE758F8042B0392002A03DAE9
:1011F000504244F40054039044F00204761C3078CA
:101200002E2816D116F8010F44F004042A280DD018
:101210006FF02F023078A0F13003092B09D807EBCB
:10122000870302EB4303C718761CF3E758F8047BE7
:10123000761C30786C280FD006DC4C2817D0682834
:101240000DD06A2814D104E0742810D07A280FD168
:101250000DE044F400140AE044F4801401E044F486
:1012600040147278824202D104F58014761C761CF8
:10127000307866280BD013DC582877D009DC00289A
:1012800075D04528F6D04628F4D047281AD193E1E6
:1012900018E0632835D0642879D0652812D18BE115
:1012A000702873D008DC6728F1D069286FD06E28C9
:1012B0000DD06F2806D1ACE073282CD0752874D0DF
:1012C000782853D05246179990476D1C54E1C4F3C7
:1012D0000250022809D003280DD0D8F800100428A5
:1012E0000DD00D6008F1040846E1D8F80010EA17A7
:1012F000C1E90052F6E7D8F800100D80F2E70D7052
:10130000F0E718F8041B8DF8001000208DF801009C
:10131000EB46012003E058F804BB4FF0FF306107B3
:101320004FF0000102D40DE009F101018946B942F4
:101330000FDA8145F8DB1BF809100029F4D108E029
:1013400009F1010189468142FADB1BF809100029E5
:10135000F6D103985346A0EB090721463846179A61
:1013600000F080FA284400EB090507E044E008E1BA
:101370000DE01BF8010B524617999047B9F101098E
:10138000F7D2534621463846179AF2E039E00A214F
:10139000C4F302524FF0000B0091022A06D058F815
:1013A000040BC117032A09D00AE023E008F1070063
:1013B00020F00702F2E80201904605E000B2C117F2
:1013C000042A01D140B2C117002906DA0A460021D9
:1013D000404261EB02012D2202E0220504D52B22BE
:1013E0008DF80420012203E0E20701D02022F7E774
:1013F000914657E00A2100E010214FF0000B0091C8
:101400000BE010214FF0000B44F00404082700917A
:1014100003E008204FF0000B0090C4F30252022AB0
:1014200005D058F8040B0021032A08D008E008F181
:10143000070020F00702F2E80201904603E080B2C4
:10144000042A00D1C0B24FF0000922072AD5327811
:10145000702A07D0DDF800C08CF0100C5CEA0B0C91
:1014600005D00EE040228DF80420012208E050EA69
:10147000010306D030238DF804308DF805200222B8
:101480009146009B83F0080353EA0B030AD150EA0C
:10149000010201D1620705D530228DF804204FF0FA
:1014A00001097F1E3278582A04D039A20C920CAA66
:1014B00002920BE03BA2F9E75B46009AFEF79CFE26
:1014C0000C9B9B5C029A521E0292137050EA01021E
:1014D000F2D1029804A9081A00F1200B600702D586
:1014E00024F4803400E001275F4502DDA7EB0B0008
:1014F00000E0002000EB0B01009003984944401AE3
:101500000390E00306D453462146179A039800F04F
:10151000A9F90544002706E001A85246C05D1799C5
:1015200090476D1C7F1C4F45F6DBE0030CD55346FE
:101530002146179A039800F095F9054404E03020FD
:101540005246179990476D1C0099481E009000293B
:10155000F5DC08E00298029952460078491C029195
:10156000179990476D1CBBF10001ABF1010BF1DC49
:101570005BE100F065F90544761C307800287FF4C3
:101580000DAE19B02846BDE8F08F00000928010013
:1015900030313233343536373839616263646566E9
:1015A00000000000303132333435363738394142AB
:1015B0004344454600000000600700D4062708F1B8
:1015C000070020F00700F0E80223804603F0004CFB
:1015D0005FEA0C0001D097A009E0200501D596A094
:1015E00005E0E00701D095A001E0AFF24C001390B8
:1015F000307823F0004365280CD006DC452809D05C
:1016000046281DD047287FD13BE0662818D06728A0
:101610007AD136E00021112F01DB112000E0781C87
:10162000CDE9000104A90CA8FFF7EEFCDDE90D01EE
:101630000C9A4FF0000B07F10109109200914EE057
:101640004FF000400097CDE9011004A90CA8FFF766
:10165000DBFCDDE90D020C9B0F994FF0000B91466E
:101660001093009211B9791C00EB0109B7EB090046
:1016700003D4C0F1FF3B07F10109A9EB070001907A
:1016800042E0012F00DA01270021112F01DD112096
:1016900000E03846CDE9000104A90CA8FFF7B4FC2E
:1016A000DDE90D010C9A00914FF0000BB946109244
:1016B00021070FD4009A4A4503DA914601E0A9F1C7
:1016C0000109B9F1010F05DD109AA9F10101515C81
:1016D0003029F4D0B84202DA10F1040F03DA012104
:1016E000CDE9011010E0002803DC8344A9EB0001E0
:1016F00002E0411C494500DD8946A0EB0B00401C7F
:1017000001904FF000400290200705D40198484511
:1017100002DB4FF0FF30019000208DF84B00029863
:101720000DF14B07B0F1004F25D002200C902B207B
:101730000D90029800280CDA404202902D200D9066
:1017400007E00A210298FEF741FD3031029007F8C8
:10175000011D0C99481E0C900029F2DC029800280B
:10176000EFD1791E0D980870307800F0200040F01D
:10177000450007F8020D11A8C01BC01D0290139868
:10178000007800B1012000EB0901019801EBE07144
:10179000029801440398401A401E0390E00306D4C7
:1017A00053462146179A039800F05CF805441398B5
:1017B000007818B15246179990476D1CE00323D565
:1017C00053462146179A039800F04CF805441BE055
:1017D000BBF1000F07DB0098584504DD10981799FE
:1017E00010F80B0001E017993020524690470198FD
:1017F0000BF1010B401E05F10105019004D12E20D3
:101800005246179990476D1CB9F10001A9F10109E1
:10181000DEDC05E017F8010B5246179990476D1C66
:101820000299481E02900029F4DC53462146179A7B
:1018300003989EE62D0000002B0000002000000011
:101840002DE9F041044600251E461746880404D4BD
:1018500005E039462020B0476D1C641EF9D52846A6
:10186000BDE8F0812DE9F041044600251E46904672
:10187000C80301D5302700E02027880404D505E0FF
:1018800041463846B0476D1C641EF9D52846BDE870
:10189000F08100001CB50120009000208DF80400AC
:1018A00002208DF8050001208DF8070069460248E6
:1018B000FFF705F81CBD00000010024030B51448C9
:1018C00000684FF47A72B0FBF2F1481EB0F1807FED
:1018D00000D31BE0481E4FF0E022506150170F224A
:1018E000002807DA13071D0E0A4B00F00F04241F0F
:1018F0001D5503E013071C0E074B1C5400BF0020AE
:101900004FF0E02290610720106100BF30BD000061
:101910001000002018ED00E000E400E0044A116827
:1019200000BF034A1268521A8242FAD3704700007D
:10193000000000202DE9F041044620680A490840D3
:10194000B0F1005F04D009A0FFF73EFBBDE8F081D5
:10195000276865682E463846FEF722FC00F03EF9FF
:10196000B04700BFF2E700000000FE2F5374616330
:101970006B20706F696E746572206973206E6F746E
:101980002076616C6964210D0A0000002DE9F047A2
:1019900007460D4690460026B94600241FE0E01C8D
:1019A000285C0106A01C285C41EA0041601C285C00
:1019B00041EA0020295D08433146721C96B20D4A67
:1019C00042F82100B6F5007F08D100264FF40072DE
:1019D0000849484600F078F809F50069241D444597
:1019E000DDD326B132460349484600F06DF8BDE824
:1019F000F0870000340000201CB56020009001201A
:101A00008DF8040002208DF8050000208DF80600F6
:101A100069460548FEF753FF202000F007F84020F4
:101A200000F004F81CBD00000010024010B5044690
:101A3000002003490870214600F004F810BD0000A2
:101A40000400002070B504460D460448047084F07C
:101A50000102A9B20248FEF79DFF70BD04000020FC
:101A60000010024070B504464FF00065002112E0FE
:101A70000C4800EBC10040682844A04204D9094842
:101A800030F8310080B270BD064800EBC1004068FC
:101A90000544481C81B20C29EAD303A0FFF794FA4D
:101AA0005820F0E744210008466C61736820736594
:101AB00063746F72206E6F7420666F756E642100A0
:101AC00001460868704700002DE9F04704460E46BD
:101AD0001746B4F1006F02D304F0030020B123A035
:101AE000FFF772FABDE8F0874FF009080025A94614
:101AF000FEF7C2FE0020FEF70DFE254604EB870927
:101B00002148854218D214E02846FFF7D9FF401C2F
:101B100070B12846FFF7A6FF82460221FEF70CFEB1
:101B20008046B8F1090F04D018A0FFF74DFA02E083
:101B30002D1D4D45E8D300BFB8F1090F0FD10BE0C3
:101B400020463168FEF770FE092803D014A0FFF785
:101B50003BFA03E0241D361D4C45F1D300BF0120A4
:101B6000FEF7D8FDFEF756FE00BFBBE7506C65617F
:101B7000736520636865636B2074686520577269BC
:101B800074654164647221000000FF1F466C61733C
:101B900068206572617365206572726F7221000042
:101BA000466C617368207772697465206572726F24
:101BB0007221000010B500210348FFF7BFF802486A
:101BC000FFF7C8F810BD00000010014010B500F08C
:101BD00095FA00F071FA00F041FA10BD10B5FFF768
:101BE000E9FF00204FF0E021086110BD10B54FF46F
:101BF000407101F007020E4B18684FF6FF031840C2
:101C00000C4B034343EA0220094B186000BF01213B
:101C10000846FEF709FF01210220FEF705FF01211A
:101C20001020FEF701FF01211020FEF71DFF10BD5F
:101C30000CED00E00000FA0500BF054A128802F032
:101C40004002002AF9D0C2B2014B9A8070470000CE
:101C500000100140FFF7CAFFFFF730FEFFF71AFE42
:101C6000FFF7CAFEFFF7B2FF002400270026002579
:101C700000F054F993E04A48006898B195B9494892
:101C8000007879280BD147484078652807D1454826
:101C90008078732803D1012543A0FFF795F9002030
:101CA0003F4908603E480068002847D0012D45D1D3
:101CB0003B48006887423FD139480668002700202A
:101CC000374908603FA0FFF77FF9314645A0FFF78D
:101CD0007BF9002E1CD04AA0FFF776F950484068E7
:101CE00000F07F40B0F1006F0DD132462D494D48D4
:101CF000FFF74CFE4A4841684BA0FFF765F952A038
:101D0000FFF762F904E04648416856A0FFF75CF926
:101D10004448406800F07F40B0F1006F06D157A002
:101D2000FFF752F93F48FFF705FE07E03D484168DD
:101D30005AA0FFF749F901E019480768641C0A2016
:101D4000FFF7ECFD6420B4FBF0F100FB114048B953
:101D500045B96420B4FBF0F0C0F10B08414655A032
:101D6000FFF732F9B4F57A7F01D34FF47A74B4F502
:101D70007A7F14D19DB955A0FFF726F9294840680C
:101D800000F07F40B0F1006F06D157A0FFF71CF9BB
:101D90002448FFF7CFFD02E05BA0FFF715F96AE7E3
:101DA0000C00002000100020E8AFB7E58F91E9801B
:101DB00081E69BB4E696B0E59BBAE4BBB6E58C85BC
:101DC0000D0A0000E794A8E688B7E7A88BE5BA8F6C
:101DD000E68EA5E694B6E5AE8CE68890EFBC815C15
:101DE000720A0000E7A88BE5BA8FE58C85E995BFFC
:101DF000E5BAA63A2025642042797465730D0A007D
:101E0000E5BC80E5A78BE69BB4E696B0E59BBAE41B
:101E1000BBB6E58C852E2E2E2E2E2E0D0A00000030
:101E20000010002000000108E59CB0E59D80E4B8AA
:101E3000BA2830583230303031303030202B203416
:101E4000293A2025580D0A00E59BBAE4BBB6E58C7B
:101E500085E69BB4E696B0E5AE8CE688905C720AA7
:101E600000000000E59CB0E59D80E99499E8AFAFE3
:101E70003A2025582121210D0A000000E5BC80E50B
:101E8000A78BE689A7E8A18C466C617368E5BA94D4
:101E9000E794A8E7A88BE5BA8F0D0A00E59CB0E5AA
:101EA0009D80E99499E8AFAF3A2025580D0A212189
:101EB00021000000E58092E8AEA1E697B6202564F7
:101EC00020732E2E2E2E2E2E0D0A0000E5BC80E54E
:101ED000A78BE8BF90E8A18CE5BA94E794A8E7A89F
:101EE0008BE5BA8F5C720A00E5BC80E5A78BE689BA
:101EF000A7E8A18C464C415348E5BA94E794A8E77B
:101F0000A88BE5BA8F0D0A00E59CB0E59D80E994A9
:101F100099E8AFAF2121210D0A00000010B5274834
:101F2000FFF752F82648FFF74FF82648FFF74CF81E
:101F30002548FFF749F82548FFF746F82448FFF7FA
:101F400043F82448FFF740F81C48FFF73DF822A06B
:101F5000FFF73AF81948FFF737F82048FFF734F849
:101F60001F48FFF731F81F48FFF72EF81E48FFF70C
:101F70002BF81E48FFF728F81D48FFF725F80F48F3
:101F8000FFF722F814A0FFF71FF81A48FFF71CF814
:101F90001948FFF719F819A0FFF716F82248FFF7BC
:101FA00013F82248FFF710F821A0FFF70DF8294891
:101FB000FFF70AF82848FFF707F810BD5426000875
:101FC000BC24000800250008CC25000810260008C5
:101FD00044250008882500080D0A00003424000864
:101FE00078240008AC230008242300086823000894
:101FF000F0230008F4210008382200085B7573659F
:10200000725D20426F6F744C6F61646572207374EF
:10201000617274696E67202E202E202E202E202EB5
:10202000202E0D0A00000000D02200087C220008AB
:102030005B757365725D20426F6F744C6F61646590
:10204000722073746172742066696E697368656466
:102050000D0A0000A42100089826000808B54FF4D6
:10206000407101F00702114B18684FF6FF0318404A
:102070000F4B034343EA02200C4B186000BF0020C3
:10208000009025208DF8000000208DF801008DF8CB
:10209000020001208DF803006846FEF787FC01224C
:1020A00040F225510348FEF7F7FE08BD0CED00E0B5
:1020B0000000FA05001001401FB5002000900190BB
:1020C000029003904FF4E13000900020ADF804003E
:1020D000ADF80600ADF808000C20ADF80A000020AD
:1020E000ADF80C0069460448FEF7FCFE01210248E9
:1020F000FEF724FE1FBD0000001001401CB50020AB
:10210000009001904FF4C060009002208DF8040010
:102110008DF8050000208DF8060001208DF80700DD
:1021200069460748FEF7CBFB072209210448FEF762
:102130000EFC07220A210248FEF709FC1CBD000024
:102140000000024000000000004000000800000005
:1021500000400000100000000040000018000000D7
:1021600000400000200000000000010028000000E6
:1021700000000200300000000000020038000000F3
:1021800000000200400000000000020048000000C3
:102190000000020050000000000002005800000093
:1021A000000002005B757365725D20E6ACA2E8BFBB
:1021B0008EE8BF9BE585A5426F6F744C6F616465C7
:1021C00072E5BC95E5AFBCE7A88BE5BA8FEFBC8C98
:1021D000E69CACE7A88BE5BA8FE98082E794A8E497
:1021E000BA8E53544D3332463430375A4754360D35
:1021F0000D0A00005B757365725D20566572736928
:102200006F6E20312E302020202020202020202002
:1022100020202020202020202020202020202020BE
:1022200020202020202020202020202020202020AE
:1022300020202020200D0A005B757365725D204C04
:10224000617374206368616E676520323032332DAC
:1022500030332D3238202020202020202020202024
:10226000202020202020202020202020202020206E
:102270002020202020202020200D0A005B7573657F
:10228000725D204170706C69636174696F6E206368
:102290006F646520466C61736820616464722066B7
:1022A000726F6D2030783830313030303020746FBC
:1022B00020307838313030303030207C2073697AEB
:1022C00065203936304B206279746573200D0A0021
:1022D0005B757365725D20426F6F744C6F616465EE
:1022E000722020636F646520466C617368206164AE
:1022F00064722066726F6D20307838303030303044
:102300003020746F20307838303130303030207CDD
:102310002073697A65202036344B206279746573A6
:10232000200D0A0023237C207C20207C207C5C5F05
:102330005F5F205C202F202F5C205C207C20205FB2
:1023400020202F20207C207C2020202020202020C6
:10235000202020202020202020202020202020207D
:102360002023230D0A00000023237C207C5F5F7C58
:10237000207C5F5F5F5F29202F205F5F5F5F205CB5
:102380007C207C205C205C20207C207C2020202065
:10239000202020202020202020202020202020203D
:1023A000202020202023230D0A00000023237C204E
:1023B0007C20207C207C20285F5F5F2020202F2035
:1023C000205C20207C207C5F5F29207C207C207C7E
:1023D00020202020202020202020202020202020FD
:1023E00020202020202020202023230D0A00000070
:1023F0002323205C5F5F5F5F2F7C5F5F5F5F5F2FEA
:102400005F2F202020205C5F5C5F7C20205C5F5C75
:10241000207C5F7C202020202020202020202020C5
:102420002020202020202020202020202023230DB9
:102430000A0000002323205F202020205F20205F4F
:102440005F5F5F5F2020202020202020205F5F5FD3
:102450005F5F205F5F5F5F5F5F5F20202020202045
:10246000202020202020202020202020202020206C
:102470002023230D0A00000023237C207C20207CC5
:10248000207C2F205F5F5F5F7C20202F5C2020203E
:102490007C20205F5F205C5F5F2020205F5F7C20CE
:1024A000202020202020202020202020202020202C
:1024B000202020202023230D0A0000002323205F5A
:1024C0005F5F5F5F5F2020202020202020202020D1
:1024D00020205F2020205F2020202020202020207E
:1024E0002020202020202020202020205F202020AD
:1024F00020202020202020202023230D0A0000005F
:102500002323207C205F5F5F205C20202020202070
:1025100020202020207C207C207C207C202020204B
:102520002020202020202020202020202020207C4F
:10253000207C202020202020202020202023230D4C
:102540000A0000002323207C207C5F2F202F2028DE
:102550005F29207C20285F29207C207C5F7C207CD8
:102560005F5F5F7C20285F29207C20285F7C207CA7
:1025700020285F7C207C20205F5F2F207C20202073
:102580002023230D0A0000002323205C5F5F5F5F90
:102590002F205C5F5F5F2F205C5F5F5F2F205C5FA1
:1025A0005F5C5F5F5F5F5F2F5C5F5F5F2F205C5FE3
:1025B0005F2C5F7C5C5F5F2C5F7C5C5F5F5F7C5F40
:1025C0007C2020202023230D0A0000002323207CD0
:1025D000207C5F2F202F205F5F5F2020205F5F5FC8
:1025E000207C207C5F7C207C20202020205F5F5F7F
:1025F0002020205F5F205F20205F5F7C207C205FA9
:102600005F5F205F205F5F202023230D0A00000012
:102610002323207C205F5F5F205C2F205F205C20D5
:102620002F205F205C7C205F5F7C207C202020208E
:102630002F205F205C202F205F60207C2F205F6098
:10264000207C2F205F205C20275F5F7C2023230DD0
:102650000A000000232323232323232323232323CC
:10266000232323232323232323232323232323233A
:10267000232323232323232323232323232323232A
:10268000232323232323232323232323232323231A
:102690002323230D0A000000E698AFE590A6E8BFCB
:1026A0009BE585A5426F6F744C6F61646572E7A806
:1026B0008BE5BA8FEFBC9FEFBC88E8AFB7E8BE935D
:1026C000E585A5796573EFBC895C7220E590A6E588
:1026D0008899313073E5908EE5BC80E5A78BE8BF23
:1026E00090E8A18CE5BA94E794A8E7A88BE5BA8FA7
:1026F0005C720A001427000800000020340000006B
:10270000E80F00084827000834000020CCEF010043
:10271000F80F0008000000000000000000000000AA
:1027200000000000007A030A000000000000000022
:102730000102030406070809000000000102030467
:08274000010203040607080969
:040000050800018965
:00000001FF
