:020000040800F2
:1000000018990120A1010008190C0008750A0008C0
:10001000150C0008AB02000857280008000000007B
:10002000000000000000000000000000052500089E
:10003000D107000800000000A90C0008F525000801
:10004000BB010008BB010008BB010008BB010008A0
:10005000BB010008BB010008BB010008BB01000890
:10006000BB010008BB010008BB010008BB01000880
:10007000BB010008BB010008BB010008BB01000870
:10008000BB010008BB010008BB010008BB01000860
:10009000BB010008BB010008BB010008BB01000850
:1000A000BB010008BB010008BB010008BB01000840
:1000B000BB010008BB010008BB010008BB01000830
:1000C000BB010008BB010008BB010008BB01000820
:1000D000BB0100086D260008BB010008BB01000839
:1000E000BB010008BB010008BB010008BB01000800
:1000F000BB010008BB010008BB010008BB010008F0
:10010000BB010008F10F0008BB010008BB0100089B
:10011000BB010008BB010008BB010008BB010008CF
:10012000BB010008BB010008BB0100087D050008F9
:10013000BB010008BB010008BB010008BB010008AF
:10014000BB010008BB010008BB010008BB0100089F
:10015000BB010008BB010008BB010008BB0100088F
:10016000BB010008BB010008BB010008BB0100087F
:10017000BB010008BB010008BB010008BB0100086F
:10018000BB010008BB010008DFF810D000F06AF8DE
:1001900000480047292A0008AFF300801899012081
:1001A0000648804706480047FEE7FEE7FEE7FEE711
:1001B000FEE7FEE7FEE7FEE7FEE7FEE705260008AE
:1001C000890100082DE9F05F0546002092469B4614
:1001D00088460646814640241BE02846414647465D
:1001E000224600F02FF853465A46C01A914110D3C8
:1001F00011461846224600F016F82D1A67EB010842
:100200004F4622460120002100F00DF817EB0009AF
:100210004E41201EA4F10104DFDC484631462A4647
:100220004346BDE8F09F202A04DB203A00FA02F1A1
:10023000002070479140C2F1200320FA03F31943D4
:1002400090407047202A04DB203A21FA02F0002176
:10025000704721FA02F3D040C2F1200291400843D6
:1002600019467047064C074D06E0E06840F0010370
:1002700094E8070098471034AC42F6D3FFF788FFA4
:100280003C2F00085C2F000810B5034607E01878E3
:100290000C78A04201D0002010BD5B1C491C101E30
:1002A000A2F10102F3D10120F6E700BFFEE770B52D
:1002B00000254FF4803400E0641E24B1802000F05B
:1002C0006BFE0028F8D014B90325284670BD40F213
:1002D000FF5000F01DFE2846F8E700002DE9F04130
:1002E000064600274848056801E04748056805F0CC
:1002F00045000028F9D005F0040030B103270420A0
:1003000000F006FE3846BDE8F08105F0010028B196
:100310000127012000F0FCFD3846F4E700F036FE2E
:10032000B04202D010273846EDE740F2FF5000F00F
:10033000EFFD002000F050FE04463448204008B98C
:100340003846E0E704F0004008B11C20DBE704F089
:10035000804008B10920D6E704F0005008B10A2017
:10036000D1E704F0805008B10B20CCE704F0006026
:1003700008B10C20C7E704F0806008B10D20C2E787
:1003800004F0807008B10E20BDE704F4000008B14D
:100390000F20B8E704F4800008B11020B3E704F49C
:1003A000001008B11120AEE704F4801008B112204B
:1003B000A9E704F4002008B11320A4E704F4802086
:1003C00008B114209FE704F4003008B115209AE723
:1003D00004F4803008B1162095E704F4004008B119
:1003E000172090E704F4804008B118208BE704F44C
:1003F000005008B1192086E704F0080008B11A205F
:1004000081E738467FE70000342C014008E0FFFD1B
:1004100070B500251048046801E00F48046804F036
:1004200045000028F9D004F0040028B10325042079
:1004300000F06EFD284670BD04F0010028B10125D2
:10044000012000F065FD2846F5E740F2FF5000F07E
:100450005FFD2846EFE70000342C014070B5002511
:100460000B48046801E00A48046804F045000028CD
:10047000F9D004F0040028B10325042000F048FD61
:10048000284670BD40F2FF5000F042FD2846F8E7D4
:10049000342C01402DE9F04106460F464FF000088C
:1004A0002248056801E02148056805F0450000285C
:1004B000F9D005F0040038B14FF00308042000F033
:1004C00027FD4046BDE8F08105F0010030B14FF056
:1004D0000108012000F01CFD4046F3E700F056FD46
:1004E000B04203D04FF010084046EBE740F2FF5017
:1004F00000F00EFD002000F06FFD044604F46040A3
:1005000018B9200C38804046DCE704F4005008B1EC
:100510001320D7E704F4804008B11020D2E704F498
:10052000004008B10F20CDE74046CBE7342C014016
:1005300070B500264FF480350F48046802E06D1E48
:100540000D48046804F0450008B9002DF7D115B135
:1005500004F0040028B10326042000F0D9FC304642
:1005600070BD04F0400028B10026402000F0D0FC0F
:100570003046F5E73046F3E7342C014010B501F082
:10058000BDFB10BD0246094B9A4201D2084801E06A
:100590000648103801F000531BB1064B0B40C360F6
:1005A00002E0044B0B40836070470000106402407F
:1005B000006002407D0F7D0F21B1026842F0010210
:1005C000026003E0026822F001020260704700004E
:1005D000016821F00101016000210160416081603A
:1005E000C1600161212141614A49884204D13D2114
:1005F000484A103A91608CE046491831884205D14A
:100600004FF47461434A103A916082E041493031BD
:10061000884205D14FF474113E4A103A916078E057
:100620003C494831884205D14FF07461394A103A4B
:1006300091606EE037496031884204D13649354ACD
:10064000103AD16065E033497831884204D13349AA
:10065000304A103AD1605CE02E499031884204D192
:100660002F492C4A103AD16053E02A49A8318842D8
:1006700005D14FF03D51274A103AD16049E0294950
:10068000884204D13D21274A083A116041E02549BA
:100690001831884205D14FF47461224A083A11603A
:1006A00037E020493031884205D14FF474111D4A9A
:1006B000083A11602DE01B494831884205D14FF0BE
:1006C0007461184A083A116023E016496031884283
:1006D00004D11149134A121F11601AE011497831EF
:1006E000884204D10D490F4A121F116011E00D49D3
:1006F0009031884204D10A490A4A121F116008E069
:100700000849A831884204D14FF03D51054A121FD3
:1007100011607047106002403D000020400F002033
:1007200000003D201064024021B1026842F0200226
:10073000026003E0026822F020020260704710B5F8
:1007400001F080034BB122B1436943F08003436160
:1007500003E0436923F08003436180290BD02AB171
:10076000036801F01E042343036004E0036801F002
:100770001E04A343036010BD10B500220268134B92
:100780001A40CC680B6823434C6923438C6923438C
:10079000CC6923430C6A23434C6A23438C6A23436A
:1007A0004C6B23438C6B23431A430260426922F053
:1007B0000702D1E90B3423431A4342610B694360BA
:1007C0004B6883608B68C36010BD00003F801CF0E5
:1007D000704710B50346002000BF03E084181C5486
:1007E000441CA0B28842F9D310BD00002DE9FC41A1
:1007F00007460D46002600240020009001900820A6
:100800005B49086010204860402088600020C86074
:100810004FF480600861084600F01CFC1020FFF7D0
:100820005DFD044614B12046BDE8FC8151480088B6
:1008300000044F490860372048604020886000204D
:10084000C8604FF480600861084600F003FC372060
:10085000FFF744FD04460CB12046E5E74FF0FF30BA
:100860004549086008204860302088600220C86040
:100870000020086101204861084600F061FB00206B
:100880003B49086033204860402088600020C860F1
:100890004FF480600861084600F0DCFB3320FFF76E
:1008A0001DFD04460CB12046BEE709E04FF40010E0
:1008B00000F072FB20B100F0C7FB4DF82600761C5B
:1008C0002E48006840F22A6108400028EED0082037
:1008D00000F062FB28B1082000F01AFB0424204637
:1008E000A2E7022000F058FB28B1022000F010FB24
:1008F0000224204698E7202000F04EFB28B120205B
:1009000000F006FB062420468EE74FF4007000F04E
:1009100043FB30B14FF4007000F0FAFA0724204690
:1009200082E740F2FF5000F0F3FA009800060099C9
:1009300001F47F4140EA0120009901F47F0140EA7F
:100940001120009940EA1160686001980006019941
:1009500001F47F4140EA0120019901F47F0140EA5E
:100960001120019940EA1160286020465CE70000F0
:10097000E894012010000020FC940120342C014058
:10098000F0B50A4600210023002400BF3DE0012508
:1009900005FA01F3156805EA03049C4234D10568A1
:1009A0004F000326BE40B543056015794E00B540A3
:1009B0000668354305601579012D02D01579022DA1
:1009C00016D185684F000326BE40B5438560557932
:1009D0004E00B540866835438560456801268E40E7
:1009E000B5434560456896798E40B6B2354345605B
:1009F000C5684F000326BE40B543C560D5794E009B
:100A0000B540C6683543C560491C1029BFD3F0BD49
:100A1000F0B5002300244D07ED0E02FA05F3CE10C9
:100A200000F1200555F826504E07F70E0F26BE4060
:100A3000B543CF1000F1200646F82750CE1000F144
:100A4000200555F8265045EA0304CE1000F1200594
:100A500045F82640F0BD0246002013690B400BB15B
:100A6000012000E0002070470AB1816101E00B0421
:100A70008361704700BFFEE77CB504460025002077
:100A8000019000905F48008800045F4908600D20D5
:100A90004860402088600020C8604FF48060086192
:100AA000084600F0D7FA59480068009002E057481D
:100AB00000680090009800F045000028F7D00098EA
:100AC00000F0040028B10325042000F021FA284694
:100AD0007CBD009800F0010028B10125012000F044
:100AE00017FA2846F4E700F051FA009000980D2814
:100AF00002D010252846EBE740F2FF5000F008FA3C
:100B0000002000F069FA01900198C0F343202070A2
:100B10003F490198084008B92846D9E7019800F0F4
:100B2000004008B11C20D3E7019800F0804008B1D4
:100B30000920CDE7019800F0005008B10A20C7E76E
:100B4000019800F0805008B10B20C1E7019800F037
:100B5000006008B10C20BBE7019800F0806008B18C
:100B60000D20B5E7019800F0807008B10E20AFE7C6
:100B7000019800F4000008B10F20A9E7019800F4E3
:100B8000800008B11020A3E7019800F4001008B11C
:100B900011209DE7019800F4801008B1122097E71A
:100BA000019800F4002008B1132091E7019800F4A7
:100BB000802008B114208BE7019800F4003008B1C0
:100BC000152085E7019800F4803008B116207FE7F2
:100BD000019800F4004008B1172079E7019800F46B
:100BE000804008B1182073E7019800F4005008B164
:100BF00019206DE7019800F0080008B11A2067E796
:100C0000284665E710000020E8940120342C0140BC
:100C100008E0FFFD00BFFEE77047000070B500214F
:100C200000230F22C4781CB3174C246804F4E0643A
:100C3000C4F5E064C4F30721C1F10404E3B20A413E
:100C400044789C40E1B28478144021430C07210E83
:100C50000E4C05786155047804F01F050124AC4062
:100C600005786D11AD0005F1E025C5F8004109E0FA
:100C7000047804F01F050124AC40054D0678761178
:100C800045F8264070BD00000CED00E000E400E0F7
:100C900080E100E002490143024A11607047000010
:100CA0000000FA050CED00E07047000029B1064A8B
:100CB00012680243044B1A6004E0034A126882433C
:100CC000014B1A60704700003038024029B1064AD3
:100CD00012680243044B1A6004E0034A126882431C
:100CE000014B1A60704700004438024029B1064A9F
:100CF00012680243044B1A6004E0034A12688243FC
:100D0000014B1A607047000024380240F0B5002102
:100D100000220024022500260223324F3F6807F0FC
:100D20000C0121B1042905D0082937D105E02E4F47
:100D3000076036E02D4F076033E02A4F3F1F3F68C2
:100D4000C7F38056274F3F1F3F6807F03F036EB140
:100D5000264FB7FBF3F7DFF88CC0ACF1040CDCF8DE
:100D600000C0CCF3881C07FB0CF40CE01E4FB7FB53
:100D7000F3F7DFF870C0ACF1040CDCF800C0CCF382
:100D8000881C07FB0CF4174F3F1F3F68C7F3014750
:100D90007F1C7D00B4FBF5F7076002E0124F07608F
:100DA00000BF00BF0F4F3F6807F0F0010909104F67
:100DB0007A5C0768D74047600A4F3F6807F4E05104
:100DC000890A0B4F7A5C4768D7408760054F3F68B8
:100DD00007F46041490B064F7A5C4768D740C7600B
:100DE000F0BD0000083802400024F40000127A0030
:100DF000380000207CB505460024002000900190BA
:100E000000F0EAF800F0007010B10E2420467CBD1E
:100E10003D49098888B26946FFF7E8FC04460CB1F1
:100E20002046F4E7012D36D1019800F480200028F7
:100E30002ED03548008800043449086037204860C7
:100E4000402088600020C860A8020861084600F0C1
:100E500001F93720FFF742FA04460CB12046D6E7E5
:100E600002202A490860062048604020886000204F
:100E7000C8604FF480600861084600F0EBF8062077
:100E8000FFF72CFA04460CB12046C0E72046BEE727
:100E900025242046BBE7019800F4803078B31A4837
:100EA00000880004194908603720486040208860A5
:100EB0000020C8604FF480600861084600F0CAF85E
:100EC0003720FFF70BFA04460CB120469FE70020BD
:100ED0000E49086006204860402088600020C860F5
:100EE0004FF480600861084600F0B4F80620FFF770
:100EF000F5F904460CB1204689E7204687E7FFE76D
:100F00002524204683E7000010000020E8940120FB
:100F10000149086070470000382C01400149086011
:100F200070470000382C01400149086070470000FC
:100F3000A080254201490860704700008C85254249
:100F400000210B4B02681A601B1D42681A601A1DB3
:100F5000116821F0F701D0E902231A4303691A430B
:100F600043691A431143024A083211607047000076
:100F7000242C014010B50121C802FFF7B7FE002163
:100F80004FF40060FFF7B2FE10BD0000014800689A
:100F9000C0B27047102C014001460020034A12687D
:100FA0000A400AB1012000E000207047342C0140C3
:100FB00001460020034A12680A400AB1012000E0FD
:100FC00000207047342C01400248006800F0030004
:100FD00070470000002C014008B501460020009039
:100FE0000248084400900098006808BD142C014095
:100FF00010B500F097FE10BD29B1064A12680243F1
:10100000044B1A6004E0034A12688243014B1A60E1
:10101000704700003C2C014000210A4A116847F645
:10102000FF629143027D83681A4343681A43C36891
:101030001A4303681A4303691A431143014A1160B2
:1010400070470000042C0140014800687047000010
:10105000802C01400021094B02681A601A1D11689A
:101060006FF30A01D0E901231A43C3681A430369E5
:101070001A431143014A121D11607047082C0140A8
:101080000149086070470000002C014008B50120AC
:1010900000909DF8000008BD70B50446002520486A
:1010A0000068032802D12725284670BD1C48006827
:1010B00038B11B480068012803D01948006802288D
:1010C0002CD1B4F5805F02D127252846EDE7B4F591
:1010D000006F13D10120FFF78DFE0546F5B9002002
:1010E000104908750860486088604FF40060C86067
:1010F000002008610846FFF78FFF0FE00020FFF790
:1011000079FE054655B90020064908750860486013
:101110008860C86008610846FFF77EFF2846C4E77C
:101120000C000020D09401202DE9FC4705460E4616
:10113000174698460024A146002001900090504890
:101140004068202101EA105018B925242046BDE846
:10115000FC874C480068C0B2801C4B49B1FBF0F0E2
:1011600001900020FFF738FF00F0007010B10E244E
:101170002046ECE745480068022810D1020200230F
:1011800028463146FFF71EF805460E464FF400721A
:10119000002338464146FFF715F8074688463B4886
:1011A000006838B139480068012803D03748006822
:1011B00002282BD136480560202035494860402060
:1011C00088600020C8604FF4806008610846FFF71F
:1011D00041FF2020FFF782F804460CB12046B6E715
:1011E0002B48076021202A49486040208860002061
:1011F000C8604FF4806008610846FFF72BFF21208C
:10120000FFF76CF804460CB12046A0E70020204907
:10121000086026204860402088600020C8604FF4A5
:10122000806008610846FFF715FF2620FFF756F893
:1012300004460CB120468AE74FF0000901E009F1AD
:10124000010901988145FAD36846FFF715FC044669
:101250004FF0FF3905E06846FFF70EFC0446A9F1A0
:101260000109B9F1000F08D03CB99DF8000007282A
:10127000F1D09DF800000628EDD0204667E7000079
:1012800048940120042C0140C0D401000C0000202F
:10129000E89401201CB52148007840B94FF4484239
:1012A000002318461946FFF73FFF1C4908701B48EA
:1012B0000078A0B964204FF4007100221346CDE9F4
:1012C0000010174800F0FCFD1449087000F078FF8A
:1012D0001249087000BF00F0E6F90028FBD10F4862
:1012E000007830B94FF448410D4801F07FFB0D49BB
:1012F00008700C480078012806D1202001F057FB27
:1013000009A001F0ABFA08E0402001F050FB0DA06D
:1013100001F0A4FA124801F0A1FA1CBD0B00002054
:1013200048CC0020080000205344E58DA1E693A698
:10133000E999A4E6B58BE8AF95E68890E58A9FEF3A
:10134000BC810A005344E58DA1E693A6E999A4E681
:10135000B58BE8AF95E5A4B1E8B4A5EFBC810A0070
:10136000582E0008F0B5014600200022C04B1B7823
:1013700081F85630BF4B1B88A1F85430BE4B1B6818
:101380001A0E93090B70C2F383034B7002F0030330
:101390008B70B94B1B68C3F30742CA70B64B1B88EE
:1013A000C3F307220A71B44B1A784A715B681A0EAC
:1013B0001301CB80B04B5B68C3F30742CB8843EA91
:1013C0001213CB8002F00F030B72AB4B9B88C3F35D
:1013D0000722D3094B72C2F380138B72C2F34013FE
:1013E000CB72C2F300130B7300234B73A04B1B682B
:1013F0001BB19F4B1B68012B4FD193071B0D0B613A
:101400009D4B1A790B6943EA82030B619A4B9B68E7
:101410001A0E0B6943EA92130B61C2F3C2030B75F8
:1014200002F007034B75944B9B68C3F307425309C3
:101430008B75C2F38203CB7593075B0F0B768E4BD4
:101440001B89C3F307220B7E43EAD2130B760B6989
:101450005B1C0024C1E912340B7ED1E912649B1C91
:10146000012505FA03F3DD17A6FB037C04FB03C388
:1014700006FB0533C1E912730C7A0123A3400B6507
:101480000027D1E912560B6DA5FB034C06FB03C3E5
:1014900005FB0733C1E9124336E0754B1B68022B8D
:1014A00032D1754B1A7993069B0A0B61724B9B687C
:1014B0001A0E0B6943EA02230B616F4B9B68C3F35F
:1014C00007420B6913430B616B4B1B89C3F3072264
:1014D0000B6900245B1C64414FF400770026A3FBDA
:1014E000075C04FB07C403FB06474FF48066002437
:1014F0002B463D46A3FB067C05FB06C503FB0453B8
:10150000C1E9127373100B65C2F3801301F8193F20
:1015100093065B0E4B70584B1A7A4B7843EAD21302
:101520004B7002F07F038B70534BDB681A0ED309AC
:10153000CB70C2F341130B71C2F382034B7193075B
:101540001B0F8B714C4BDB68C3F307428B7943EA6B
:1015500092138B71C2F34013CB7100230B7202F014
:1015600001034B72444B9B89C3F30722D3098B724F
:10157000C2F38013CB72C2F340130B73C2F3001398
:101580004B73C2F381038B7302F00303CB733A4BAB
:101590001A7B53080B7401234B74384B1B681A0ECB
:1015A000CA741939354B1B68C3F307421402CC8542
:1015B000324B1B88C3F30722CB8D1343CB852F4BB4
:1015C0001A7814060C635B681A0E0B6B43EA02442C
:1015D0000C632A4B5B68C3F307420B6B43EA02249C
:1015E0000C63264B9B88C3F307220B6B13430B63DF
:1015F000224B1A7934235A54204B9B681A0E3523F8
:101600005A541E4B9B68C3F3074214068C631B4B52
:101610001B89C3F307228B6B43EA02448C63174B8D
:101620001A7A8B6B43EA02248C63144BDB681A0E24
:101630008B6B13438B63114BDB68C3F307423C2373
:101640005B5C43EA12143C235C5413071C0DCC87EB
:101650000A4B9B89C3F30722CB8F1343CB87074BDE
:101660001A7B540840235C54012441235C54F0BD90
:101670000C00002010000020489401205894012004
:1016800008B500200090FFF701FD012809D1684648
:1016900000F0AEFC08B1FF2008BD0098C0F3432065
:1016A000FAE7FF20F8E710B50424FFF7E9FF044646
:1016B000042C01D1002010BDFF2C01D10220FAE73B
:1016C0000120F8E71CB5002001904FF4C060FFF73F
:1016D000E1FA31208DF8000001208DF80100002092
:1016E0008DF8020001208DF803006846FFF796FA96
:1016F0003B208DF8000001208DF801006846FFF7BF
:101700008DFA00F06DF9FFF735FC00F027FA019033
:101710009DF8040010B19DF804001CBD00F032F8E3
:1017200001909DF8040010B19DF80400F5E7002039
:1017300012490875086048608860C86008610846FA
:10174000FFF76AFC0E48FFF70DFE01909DF80400BC
:1017500040B90B48B0F8540002041046002100F0D4
:101760002BFC01909DF8040020B94FF40060FFF7B6
:1017700093FC01909DF80400CFE70000D094012075
:101780007894012038B5002401200090FFF71CFC5C
:1017900010B92524204638BD44480068042828D0C4
:1017A00000204349086002204860C0208860002073
:1017B000C8604FF4806008610846FFF74BFCFEF7F5
:1017C00027FE04460CB12046E5E70020FFF704FCA5
:1017D000384908600420FFF7FFFB364948600820BD
:1017E000FFF7FAFB334988600C20FFF7F5FB31491E
:1017F000C8602E48006858B12C480068012807D0FE
:101800002A480068062803D028480068022816D114
:10181000002027490860032048604020886000209D
:10182000C8604FF4806008610846FFF713FC694602
:101830000320FEF72FFE04460CB12046ABE71B4801
:10184000006804282ED0BDF800001B490860BDF8D0
:10185000000000041649086009204860C020886024
:101860000020C8604FF4806008610846FFF7F2FB73
:10187000FEF7CEFD04460CB120468CE70020FFF7B2
:10188000ABFB0E4908600420FFF7A6FB0B4948603C
:101890000820FFF7A1FB094988600C20FFF79CFB9B
:1018A0000649C8600024204675E700000C000020AF
:1018B000E894012058940120100000204894012051
:1018C00030B58FB004460D464FF0FA511E48FEF772
:1018D00059FE00211C48FEF76FFE1B48FEF778FEFC
:1018E0004FF000600090194801900294002003908E
:1018F00001200490002005904FF480600690800045
:10190000079080000890002009904FF440300A9022
:1019100004200B9003200C904FF400000D908010D9
:101920000E9069460848FEF727FF0122102106485D
:10193000FEF705FF20210448FEF7F6FE01210248CC
:10194000FEF73AFE0FB030BD58640240802C0140D3
:1019500030B58FB004460D464FF0FA511E48FEF7E1
:1019600011FE00211C48FEF727FE1B48FEF730FE43
:101970004FF00060009019480190029440200390BD
:1019800001200490002005904FF4806006908000B4
:10199000079080000890002009904FF440300A9092
:1019A00004200B9003200C904FF400000D90801049
:1019B0000E9069460848FEF7DFFE01221021064816
:1019C000FEF7BDFE20210448FEF7AEFE01210248CD
:1019D000FEF7F2FD0FB030BD58640240802C01408C
:1019E0001CB501210C20FFF761F90C2208212348C6
:1019F000FFF70EF80C2209212048FFF709F80C2206
:101A00000A211E48FFF704F80C220B211B48FEF7A1
:101A1000FFFF0C2211461948FEF7FAFF0C220221A3
:101A20001748FEF7F5FF4FF47060009002208DF824
:101A300005008DF8040000208DF8060001208DF8C7
:101A4000070069460D48FEF79BFF04200090694699
:101A50000B48FEF795FF4FF48050009000208DF862
:101A6000070069460548FEF78BFF0121C802FFF712
:101A70002DF901218805FFF719F91CBD0008024066
:101A8000000C02401CB500224FF448412748FEF7E5
:101A9000A0FE27480078A0B964204FF4007100220E
:101AA0001346CDE90010214800F080FC2049087061
:101AB00000F0C6FB1E49087000BFFFF7F4FD0028C8
:101AC000FBD11B480078A0B964204FF400710022BC
:101AD0001346CDE90010174800F0F2F914490870D8
:101AE00000F06EFB1249087000BFFFF7DCFD002814
:101AF000FBD10F48007838B94FF448420D490B48E4
:101B0000FEF7C2FB0C4908700B480078012806D18B
:101B1000202000F04CFF09A000F0A0FE05E04020CE
:101B200000F045FF0C4800F099FE1CBD4804002061
:101B30000B00002048CC00200A0000204D756C747A
:101B40006920626C6F636B20E6B58BE8AF95E68821
:101B500090E58A9F21000000E02E0008F8B50020E3
:101B60000090002500240026002776205F49087594
:101B70000020086048608860C86008610846FFF778
:101B80004BFA0320FFF77CFA0120FFF7CDF9002084
:101B90005749086048608860C8604FF480600861F9
:101BA0000846FFF757FAFEF782FB00909DF8000009
:101BB00010B19DF80000F8BD4FF4D5704C49086095
:101BC00008204860402088600020C8604FF4806092
:101BD00008610846FFF73EFAFEF7AAFC00909DF860
:101BE000000020B9012043490860870712E0002067
:101BF0003F49086037204860402088600020C86066
:101C00004FF4806008610846FFF724FA3720FEF79A
:101C100065FB00900020364908603720486040206E
:101C200088600020C8604FF4806008610846FFF7B4
:101C300011FA3720FEF752FB00909DF800000028B3
:101C400051D13BE000202A490860372048604020FD
:101C500088600020C8604FF4806008610846FFF784
:101C6000F9F93720FEF73AFB00909DF8000010B11B
:101C70009DF800009FE7204838431D49086029204F
:101C80004860402088600020C8604FF48060086190
:101C90000846FFF7DFF9FEF7E1FB00909DF8000032
:101CA00010B19DF8000086E70020FFF795F9054682
:101CB000012080EAD57080F00106641C1EB94FF641
:101CC000FF708442BED34FF6FF70844204D31B20C2
:101CD00000909DF800006EE705F08040051E02D0E0
:101CE0000220044908609DF8000064E7D0940120B8
:101CF000E89401200C0000200000108010B5074877
:101D0000006800F0C05040B10120054908604FF064
:101D1000C25102485830FEF735FC10BD0064024045
:101D20002000002010B54FF48070FFF741F950B14A
:101D30000020254908704FF48070FFF7EFF801206C
:101D40002249086037E00220FFF732F930B1022063
:101D5000FFF7E4F802201C4908702CE00820FFF788
:101D600027F930B10820FFF7D9F804201649087088
:101D700021E02020FFF71CF930B12020FFF7CEF83A
:101D800006201149087016E01020FFF711F930B154
:101D90001020FFF7C3F805200B4908700BE04FF443
:101DA0000070FFF705F930B14FF40070FFF7B6F897
:101DB00007200549087000214CF23A30FFF71CF962
:101DC0000148007810BD0000180000201C00002011
:101DD0002DE9F041804614461D46069E002700204E
:101DE000304908703049086030490860304908605F
:101DF000012140F22A30FFF7FFF80120FFF79AF89F
:101E000031464046FFF75CFD2A480068022808D1A9
:101E100006020202002320462946FEF7D3F90446B3
:101E20000D46254806601020234948604020886000
:101E30000020C8604FF4806008610846FFF70AF987
:101E40001020FEF74BFA074617B13846BDE8F0817F
:101E50004FF0FF30194908600846466090208860BE
:101E60000220C86000200861012048610846FFF791
:101E700067F81148046011200F49486040208860CD
:101E80000020C8604FF4806008610846FFF7E2F860
:101E90001120FEF723FA07460FB13846D6E7384639
:101EA000D4E70000180000201C00002014000020CF
:101EB0002C2C01400C000020E8940120FC9401200F
:101EC0002DE9F047814614461D46DDE908680027E4
:101ED0000020324908703249086001203149086009
:101EE000002031490860012140F22A30FFF784F8D0
:101EF00008FB06F14846FFF7E3FC0120FFF71AF85C
:101F00002A480068022808D106020202002320465F
:101F10002946FEF757F904460D462548066010206D
:101F200023494860402088600020C8604FF48060EA
:101F300008610846FFF78EF81020FEF7CFF9074634
:101F400017B13846BDE8F0874FF0FF3019490860F7
:101F500008FB06F04860902088600220C8600020DE
:101F60000861012048610846FEF7EAFF1048046056
:101F700012200F494860402088600020C8604FF45C
:101F8000806008610846FFF765F81220FEF7A6F9A1
:101F900007460FB13846D5E73846D3E7180000208A
:101FA0001C000020140000202C2C01400C000020FC
:101FB000E8940120FC94012070B504460D460026EB
:101FC0000A480460072009494860402088600020D2
:101FD000C8604FF4806008610846FFF73BF80720AF
:101FE000FEF77CF90646304670BD0000E8940120FB
:101FF00070B50446002514B92625284670BD0F4843
:10200000008800040E4908600D2048604020886068
:102010000020C8604FF4806008610846FFF71AF896
:102020000D20FEF75BF905460DB12846E6E70020D6
:10203000FEF7D2FF20602846E0E7000010000020F5
:10204000E894012008B543F20F224FF400712648AE
:10205000FEF7BFFB2548007890B94FF400700022CE
:1020600013460090204800F02BF92049087000F03A
:10207000E7F81E49087000BFFFF715FB0028FBD1E9
:102080001A48007890B94FF400700022134600906F
:102090001748FFF79DFE1549087000F091F81349A5
:1020A000087000BFFFF7FFFA0028FBD10F48007847
:1020B00038B94FF400720E490B48FEF7E5F80D49A8
:1020C00008700C480078012806D1202000F06FFC31
:1020D00009A000F0C3FB05E0402000F068FC0E48BA
:1020E00000F0BCFB08BD0000480000200B000020F1
:1020F000480200200900002053696E676C65206269
:102100006C6F636B20E6B58BE8AF95E68890E58A47
:102110009FEFBC815C6E00009C2D000810B5002470
:1021200000200A4908600C20486040208860002098
:10213000C8604FF4806008610846FEF78BFF0C20F2
:10214000FEF7CCF80446204610BD0000E8940120BC
:1021500010B5202000F02BFCFFF7B4FA0F490870EF
:1021600030B1402000F023FC0D4800F077FB02E086
:102170000CA000F073FB0948007870B9202000F033
:1021800016FCFFF787F8202000F011FCFFF75AFF3C
:10219000202000F00CFCFFF775FC10BD0B000020A8
:1021A000FC2D00085344E58DA1E5889DE5A78BE54E
:1021B0008C96E68890E58A9FEFBC815C6E000000FB
:1021C00070B500256C1E00E0641E1848006838B920
:1021D0001748006820B91748007808B9002CF3D1D7
:1021E000002012490860441E00E0641E1248006886
:1021F00000F4005008B1002CF7D110480068012805
:1022000005D1FFF78BFF054600200C4908600CB98B
:1022100005B9042540F2FF50FEF77AFE0548007824
:1022200010B10448007870BD2846FCE7200000206B
:102230001C00002018000020342C01401400002055
:1022400070B500256C1E00E0641E1848006838B99F
:102250001748006820B91748007808B9002CF3D156
:10226000002012490860441E00E0641E1248006805
:1022700000F4805008B1002CF7D110480068012804
:1022800005D1FFF74BFF054600200C4908600CB94B
:1022900005B9042540F2FF50FEF73AFE05480078E4
:1022A00010B10448007870BD2846FCE720000020EB
:1022B0001C00002018000020342C014014000020D5
:1022C0002DE9F041804614461D46069E0027002059
:1022D0002F4908702F4908602F4908602F4908606E
:1022E000012140F22A30FEF787FE31464046FFF7D3
:1022F0002FFB0120FEF71EFE29480068022808D1A6
:1023000006020202002320462946FDF75BFF044631
:102310000D4624480660102022494860402088600D
:102320000020C8604FF4806008610846FEF792FE06
:102330001020FDF7D3FF074617B13846BDE8F081FE
:102340001848046018201749486040208860002021
:10235000C8604FF4806008610846FEF77BFE1820D5
:10236000FDF7BCFF07460FB13846E7E74FF0FF30F7
:102370000D49086008464660902088600020C860CB
:102380000861012048610846FEF7DAFD3846D5E7C6
:10239000180000201C000020140000202C2C0140FC
:1023A0000C000020E8940120FC9401202DE9F04766
:1023B000814615461E46DDE908780024002049497B
:1023C00008704949086001204849086000204849D0
:1023D0000860012140F21A30FEF70EFE08FB07F1FB
:1023E0004846FFF7B5FA0120FEF7A4FD4148006812
:1023F000022808D107020202002328463146FDF7D1
:10240000E1FE05460E463C48076010203A49486008
:10241000402088600020C8604FF480600861084652
:10242000FEF718FE1020FDF759FF044614B12046B0
:10243000BDE8F0873148008800042F490860372044
:102440004860402088600020C8604FF480600861C8
:102450000846FEF7FFFD3720FDF740FF04460CB1AC
:102460002046E5E72448C0F800801720224948604C
:10247000402088600020C8604FF4806008610846F2
:10248000FEF7E8FD1720FDF729FF04460CB12046B2
:10249000CEE7194805601920174948604020886038
:1024A0000020C8604FF4806008610846FEF7D2FD46
:1024B0001920FDF713FF04460CB12046B8E74FF092
:1024C000FF300F49086008FB07F0486090208860E3
:1024D0000020C8600861012048610846FEF730FD11
:1024E0002046A5E7180000201C0000201400002052
:1024F0002C2C01400C000020E8940120100000204A
:10250000FC940120704700000CB500200190009061
:102510003448006840F480303249086000BF3148D8
:10252000006800F4003000900198401C0190009871
:1025300018B90198B0F5A04FF1D12A48006800F40D
:10254000003010B10120009001E0002000900098C0
:10255000012846D123484030006840F0805021498E
:10256000403108602048006840F440401E4908603F
:102570001C48083000681B4908310860084600689C
:1025800040F4004008600846006840F4A05008602D
:102590001648091F0860081F006840F08070091F76
:1025A000086000BF0F48006800F000700028F9D0F4
:1025B00040F205700E4908600A480830006820F0B3
:1025C00003000849083108600846006840F002002E
:1025D000086000BF03480830006800F00C000828BD
:1025E000F8D10CBD0038024000700040085440078C
:1025F000003C024002480068401C014908607047E6
:102600000000002010B51548006840F47000134920
:1026100008601348006840F001001149086000207C
:102620000F49083108600E4800680E4908400C49FF
:1026300008600D48091D0860081F006820F480200C
:10264000091F0860002006490C310860FFF75CFF95
:102650004FF0006001498039086010BD88ED00E04E
:1026600000380240FFFFF6FE1030002410B540F2A3
:102670002551094800F02DF868B1074800F0E2F84C
:10268000C4B22146044800F0E2F840F22551024865
:1026900000F004F800BF10BD0010014010B500228A
:1026A000002340F66A14A14200D100BF0A1201249F
:1026B0009440A3B2DC43048010BD21B1828942F46E
:1026C0000052828104E082894DF6FF731A408281B4
:1026D000704770B50246002400230025002040F614
:1026E0006A16B14200D100BFC1F3421501F01F03C9
:1026F000012606FA03F3012D02D19689334006E044
:10270000022D02D1168A334001E0968A33400C1222
:10271000012606FA04F41688344013B10CB10120E6
:1027200000E0002070BDF0B503460024002600251F
:10273000002040F66A17B94200D100BF1846C1F325
:10274000421401F01F06012707FA06F5012C01D1FA
:102750000C3004E0022C01D1103000E014301AB12A
:1027600007682F43076002E00768AF430760F0BDCA
:102770002DE9FF4705460E460024A14600BFA046AE
:10278000B08900B100BF2C8A24F44054F08804437F
:102790002C82AC8941F20C608443B08831890843B3
:1027A000718908430443AC81AC8A24F44074B08935
:1027B0000443AC826846FEF7A9FA2048854202D05D
:1027C0001F48854202D1DDF80C9001E0DDF8089049
:1027D000A88900F4004040B109EBC90000EB0910E2
:1027E00031684900B0FBF1F707E009EBC90000EBE5
:1027F000091031688900B0FBF1F76420B7FBF0F0F5
:1028000004012009642101FB1078A88900F400402C
:1028100040B1322000EBC800B0FBF1F000F007003F
:10282000044308E0322000EB08106421B0FBF1F013
:1028300000F00F0004432C81BDE8FF870010014029
:102840000014014001468888C0F308007047C1F3B6
:1028500008028280704700BFFEE70000014A02497B
:1028600000F013B80D2A00080400002002E008C898
:10287000121F08C1002AFAD170477047002001E0FA
:1028800001C1121F002AFBD170472DE9F041164605
:102890000F460446002503E03946B047641C6D1C12
:1028A00020780028F8D12846BDE8F0811CB5012029
:1028B000009000208DF8040002208DF80500012012
:1028C0008DF8070069460248FEF75AF81CBD000063
:1028D0000010024010B501210348FEF7BCF808B90A
:1028E000012010BD0020FCE70010024030B5144864
:1028F00000684FF47A72B0FBF2F1481EB0F1807FAD
:1029000000D31BE0481E4FF0E022506150170F2209
:10291000002807DA13071D0E0A4B00F00F04241FCE
:102920001D5503E013071C0E074B1C5400BF00206D
:102930004FF0E02290610720106100BF30BD000021
:102940002400002018ED00E000E400E0044A1168D3
:1029500000BF034A1268521A8242FAD3704700003D
:10296000000000201CB501211020FEF79FF9602017
:10297000009001208DF8040002208DF80500002051
:102980008DF8060069460548FDF7FAFF202000F0A3
:1029900007F8402000F004F81CBD000000100240C1
:1029A00010B504462146002000F008F810BD10B50F
:1029B00004462146012000F001F810BD70B5044620
:1029C0000D4684F00102A9B20148FEF74DF870BD32
:1029D0000010024010B5FFF77DFF28B16420FFF71B
:1029E000B5FFFFF777FF10BD0020FCE7024607E0C8
:1029F0001078FF2803D0107808B100207047521CCF
:102A0000081EA1F10101F3D10120F7E700BF054A3B
:102A1000128802F04002002AF9D0C2B2014B9A801B
:102A20007047000000100140FFF760FFFFF79AFFBA
:102A3000FFF73CFF00F050F80DA0FFF70FFF18481C
:102A4000FFF70CFF1748FFF709FF1748FFF706FFCE
:102A50001648FFF703FF1648FFF700FF07E0FFF7F0
:102A6000B9FF20B113A0FFF7F9FEFFF771FBF6E7FE
:102A70000D0AE6ACA2E8BF8EE4BDBFE794A8E987E3
:102A80008EE781AB202053544D333220463430370B
:102A900020E5BC80E58F91E69DBFE380820D0A00B2
:102AA0004C2D0008902C0008EC2C0008302C00085D
:102AB000E02B00080D0AE5BC80E5A78BE8BF9BE88A
:102AC000A18C5344E58DA1E8AFBBE58699E5AE9EA8
:102AD000E9AA8C0D0A00000010B500F059F800F0CA
:102AE00031F800F001F810BD08B54FF4407101F065
:102AF0000702114B18684FF6FF0318400F4B0343B2
:102B000043EA02200C4B186000BF002000902520F3
:102B10008DF8000000208DF801008DF802000120E2
:102B20008DF803006846FEF779F8012240F225513E
:102B30000348FFF7F8FD08BD0CED00E00000FA05C2
:102B4000001001401FB501211020FEF7BFF8002042
:102B500000900190029003904FF4E130009000202B
:102B6000ADF80400ADF80600ADF808000C20ADF893
:102B70000A000020ADF80C0069460448FFF7F8FD94
:102B800001210248FFF799FD1FBD00000010014020
:102B90001CB501210846FEF789F80020009001903D
:102BA0004FF4C060009002208DF804008DF80500FD
:102BB00000208DF8060001208DF8070069460748BF
:102BC000FDF7DEFE072209210448FDF721FF072259
:102BD0000A210248FDF71CFF1CBD00000000024056
:102BE0000D0A20E88BA5E5B7B2E7A1AEE8AEA4EFE9
:102BF000BC8CE8AFB7E68C89E5BC80E58F91E69D9B
:102C0000BFE79A844B455931E68C89E994AEEFBC15
:102C10008CE5BC80E5A78B5344E58DA1E6B58BE838
:102C2000AF95E5AE9EE9AA8C2E2E2E2E0D0A000041
:102C30000D0A20E4BD867364E58DA1E58685E79ADB
:102C400084E58E9FE69687E4BBB6E4B88DE58FAF4A
:102C5000E681A2E5A48DEFBC8CE5AE9EE9AA8CE5E9
:102C6000898DE58AA1E5BF85E5A487E4BBBD534412
:102C7000E58DA1E58685E79A84E58E9FE69687E453
:102C8000BBB6EFBC81EFBC81EFBC810D0A00000038
:102C9000E69CACE7A88BE5BA8FE4BC9AE5AFB953E4
:102CA00044E58DA1E8BF9BE8A18C20E99D9EE696B6
:102CB00087E4BBB6E7B3BBE7BB9F20E696B9E5BCAC
:102CC0008FE8AFBBE58699EFBC8CE4BC9AE588A0A1
:102CD000E999A45344E58DA1E79A84E69687E4BB7D
:102CE000B6E7B3BBE7BB9F0D0A000000E5AE9EE967
:102CF000AA8CE5908EE58FAFE9809AE8BF87E794CC
:102D0000B5E88491E6A0BCE5BC8FE58C96E6889694
:102D1000E4BDBFE794A85344E58DA1E69687E4BBE4
:102D2000B6E7B3BBE7BB9FE79A84E4BE8BE7A88B0B
:102D3000E681A2E5A48D5344E58DA1E69687E4BB28
:102D4000B6E7B3BBE7BB9F0D0A000000E59CA8E512
:102D5000BC80E5A78BE8BF9BE8A18C5344E58DA11F
:102D6000E59FBAE69CACE6B58BE8AF95E5898DEFBB
:102D7000BC8CE8AFB7E7BB99E5BC80E58F91E69DD9
:102D8000BFE68F92E585A5333247E4BBA5E586858E
:102D9000E79A845344E58DA10D0A000053696E67DC
:102DA0006C6520626C6F636B20E6B58BE8AF95E5D0
:102DB000A4B1E8B4A5EFBC8CE8AFB7E7A1AEE4BF1F
:102DC0009D5344E58DA1E6ADA3E7A1AEE68EA5E552
:102DD00085A5E5BC80E58F91E69DBFEFBC8CE688BC
:102DE00096E68DA2E4B880E5BCA05344E58DA1E64B
:102DF000B58BE8AF95EFBC810A0000005344E58D28
:102E0000A1E5889DE5A78BE58C96E5A4B1E8B4A57E
:102E1000EFBC8CE8AFB7E7A1AEE4BF9D5344E58DAE
:102E2000A1E5B7B2E6ADA3E7A1AEE68EA5E585A51F
:102E3000E5BC80E58F91E69DBFEFBC8CE68896E609
:102E40008DA2E4B880E5BCA05344E58DA1E6B58B26
:102E5000E8AF95EFBC810A00E6B8A9E9A6A8E68F1D
:102E600090E7A4BAEFBC9AE983A8E588865344E5C5
:102E70008DA1E4B88DE694AFE68C81E693A6E9993E
:102E8000A4E6B58BE8AF95EFBC8CE88BA55344E581
:102E90008DA1E883BDE9809AE8BF87E4B88BE99DFE
:102EA000A2E79A8473696E676C65E8AFBBE58699A3
:102EB000E6B58BE8AF95EFBC8CE58DB3E8A1A8E74C
:102EC000A4BA5344E58DA1E883BDE5A49FE6ADA374
:102ED000E5B8B8E4BDBFE794A8E380825C6E00006B
:102EE0004D756C746920626C6F636B20E6B58BE87E
:102EF000AF95E5A4B1E8B4A5EFBC8CE8AFB7E7A106
:102F0000AEE4BF9D5344E58DA1E6ADA3E7A1AEE6D7
:102F10008EA5E585A5E5BC80E58F91E69DBFEFBC5C
:102F20008CE68896E68DA2E4B880E5BCA05344E523
:102F30008DA1E6B58BE8AF95EFBC81005C2F000852
:102F400000000020480000006C280008A42F0008A2
:102F500048000020D09801007C28000800000000F4
:102F60000000000000000000000000000000000061
:102F70000000000000000000000000000000000051
:102F8000007A030A000000000000000001020304B0
:102F900006070809000000000102030401020304FF
:042FA000060708090F
:040000050800018965
:00000001FF
