:020000040800F2
:10000000F00C0020A1010008B90300080D0200084F
:10001000B50300081F020008630B00080000000081
:10002000000000000000000000000000950500082E
:1000300023020008000000004904000885060008AB
:10004000BB010008BB010008BB010008BB010008A0
:10005000BB010008BB010008BB010008BB01000890
:10006000BB010008BB010008BB010008BB01000880
:10007000BB010008BB010008BB010008BB01000870
:10008000BB010008BB010008BB010008BB01000860
:10009000BB010008BB010008BB010008BB01000850
:1000A000BB010008BB010008BB010008BB01000840
:1000B00031080008BB010008BB010008BB010008B3
:1000C000BB010008BB010008BB010008BB01000820
:1000D000BB010008A5090008BB010008BB0100081E
:1000E000BB010008BB010008BB010008BB01000800
:1000F000BB010008BB010008BB010008BB010008F0
:10010000BB010008BB010008BB010008BB010008DF
:10011000BB010008BB010008BB010008BB010008CF
:10012000BB010008BB010008BB010008BB010008BF
:10013000BB010008BB010008BB010008BB010008AF
:10014000BB010008BB010008BB010008BB0100089F
:10015000BB010008BB010008BB010008BB0100088F
:10016000BB010008BB010008BB010008BB0100087F
:10017000BB010008BB010008BB010008BB0100086F
:10018000BB010008BB010008DFF810D000F02CF81C
:1001900000480047F50D0008AFF30080F00C002088
:1001A0000648804706480047FEE7FEE7FEE7FEE711
:1001B000FEE7FEE7FEE7FEE7FEE7FEE7C907000809
:1001C0008901000840EA01039B0703D009E008C940
:1001D000121F08C0042AFAD203E011F8013B00F80C
:1001E000013B521EF9D27047064C074D06E0E0680D
:1001F00040F0010394E8070098471034AC42F6D36E
:10020000FFF7C6FFF8100008181100081EF0040FD1
:100210000CBFEFF30880EFF3098000F075B800BF62
:10022000FEE77047F0B50A4600210023002400BF16
:100230003DE0012505FA01F3156805EA03049C4237
:1002400034D105684F000326BE40B54305601579DB
:100250004E00B5400668354305601579012D02D082
:100260001579022D16D185684F000326BE40B5438F
:10027000856055794E00B540866835438560456890
:1002800001268E40B5434560456896798E40B6B2EA
:1002900035434560C5684F000326BE40B543C56081
:1002A000D5794E00B540C6683543C560491C102954
:1002B000BFD3F0BDF0B5002300244D07ED0E02FAC8
:1002C00005F3CE1000F1200555F826504E07F70E25
:1002D0000F26BE40B543CF1000F1200646F8275048
:1002E000CE1000F1200555F8265045EA0304CE1043
:1002F00000F1200545F82640F0BD0AB1816101E01A
:100300000B048361704700002849096801F000412F
:1003100049B12649096841F00041244A11608169C8
:10032000891C81617047214908390968204A116296
:100330001E49091F097882F824101C49C91E097832
:1003400091621A490C310968D1621849891E0988DD
:1003500011861649096851631449091D096891639A
:10036000124910310968D16310490C310968516490
:100370000E490831096891640C49091F0968116424
:1003800000BE0B4A0168116041685160816891604C
:10039000C168D160016911614169516181699161EF
:1003A000C169D16100BE00BFBCE700002CED00E0D8
:1003B000A008002000BFFEE77047000070B50021D4
:1003C00000230F22C4781CB3174C246804F4E064A3
:1003D000C4F5E064C4F30721C1F10404E3B20A41A7
:1003E00044789C40E1B28478144021430C07210EEC
:1003F0000E4C05786155047804F01F050124AC40CB
:1004000005786D11AD0005F1E025C5F8004109E062
:10041000047804F01F050124AC40054D06787611E0
:1004200045F8264070BD00000CED00E000E400E05F
:1004300080E100E002490143024A11607047000078
:100440000000FA050CED00E07047000029B1064AF3
:1004500012680243044B1A6004E0034A12688243A4
:10046000014B1A60704700003038024029B1064A3B
:1004700012680243044B1A6004E0034A1268824384
:10048000014B1A60704700004038024029B1064A0B
:1004900012680243044B1A6004E0034A1268824364
:1004A000014B1A607047000044380240F0B500214B
:1004B00000220024022500260223324F3F6807F065
:1004C0000C0121B1042905D0082937D105E02E4FB0
:1004D000076036E02D4F076033E02A4F3F1F3F682B
:1004E000C7F38056274F3F1F3F6807F03F036EB1A9
:1004F000264FB7FBF3F7DFF88CC0ACF1040CDCF847
:1005000000C0CCF3881C07FB0CF40CE01E4FB7FBBB
:10051000F3F7DFF870C0ACF1040CDCF800C0CCF3EA
:10052000881C07FB0CF4174F3F1F3F68C7F30147B8
:100530007F1C7D00B4FBF5F7076002E0124F0760F7
:1005400000BF00BF0F4F3F6807F0F0010909104FCF
:100550007A5C0768D74047600A4F3F6807F4E0516C
:10056000890A0B4F7A5C4768D7408760054F3F6820
:1005700007F46041490B064F7A5C4768D740C76073
:10058000F0BD0000083802400024F40000127A0098
:1005900038000020704700000CB50020019000904A
:1005A0003448006840F480303249086000BF314868
:1005B000006800F4003000900198401C0190009801
:1005C00018B90198B0F5A04FF1D12A48006800F49D
:1005D000003010B10120009001E000200090009850
:1005E000012846D123484030006840F0805021491E
:1005F000403108602048006840F440401E490860CF
:100600001C48083000681B4908310860084600682B
:1006100040F4004008600846006840F4A0500860BC
:100620001648091F0860081F006840F08070091F05
:10063000086000BF0F48006800F000700028F9D083
:1006400040F205700E4908600A480830006820F042
:1006500003000849083108600846006840F00200BD
:10066000086000BF03480830006800F00C0008284C
:10067000F8D10CBD0038024000700040085440071B
:10068000003C024010B500F001F810BD10B519484B
:10069000006840B117480068401E1649086010B94C
:1006A000012015490870002408E004EB4401134AB6
:1006B00002EB810000F038FB601CC4B2042CF4DBB8
:1006C0000F480068401C0E490860084600686FF03B
:1006D0000041884202D10020094908600948007899
:1006E000401CC0B2074908700A2801DB00200870CE
:1006F00010BD000004000020080000207008002049
:100700000C0000202000002070B5002000220223F1
:1007100000240221274D2D6805F00C0020B104288B
:1007200006D0082834D107E0234D244E356033E04D
:10073000234D224E35602FE01E4D2D1F2D68C5F331
:1007400080541C4D2D1F2D6805F03F0154B11C4DE8
:10075000B5FBF1F5174E361F3668C6F3881605FB54
:1007600006F209E0144DB5FBF1F5124E361F36685E
:10077000C6F3881605FB06F20E4D2D1F2D68C5F336
:1007800001456D1C6B00B2FBF3F50C4E356003E0C8
:10079000094D0A4E356000BF00BF064D2D68C5F3F8
:1007A0000315084E705D054D2D68C540034E35603C
:1007B00070BD0000083802400024F400240000202E
:1007C00000127A002800002010B51548006840F497
:1007D0007000134908601348006840F00100114997
:1007E000086000200F49083108600E4800680E4973
:1007F00008400C4908600D48091D0860081F006882
:1008000020F48020091F0860002006490C31086090
:10081000FFF7C2FE4FF0006001498039086010BD4B
:1008200088ED00E000380240FFFFF6FE10300024A3
:1008300010B50221480700F058F858B102214807C6
:1008400000F044F800220221480700F05FF81B483E
:10085000006880470421080700F047F858B10421D8
:10086000080700F033F800220421080700F04EF8D2
:100870001348006880470821C80600F036F858B1D0
:100880000821C80600F022F800220821C80600F05E
:100890003DF80C48006880471021880600F025F8D4
:1008A00058B11021880600F011F8002210218806A6
:1008B00000F02CF804480068804710BD10000020AC
:1008C00014000020180000201C000020CA430282EF
:1008D000704721B1028842F00102028004E00288E0
:1008E0004FF6FE731A400280704730B50246002072
:1008F00000230024158A05EA0103958905EA01040D
:1009000013B10CB1012000E0002030BD1AB1838981
:100910000B43838102E083898B438381704700000E
:1009200000220288184B98420ED0184B98420BD0E8
:10093000B0F1804F08D0164B984205D0154B984225
:1009400002D0154B984204D14FF68F731A404B8852
:100950001A43124B984207D0114B984204D04FF6DD
:10096000FF431A400B891A4302804B68C3620B880D
:100970000385054B984202D0044B984201D18B7AF3
:100980000386012383827047000001400004014078
:100990000004004000080040000C0040001000402F
:1009A0000014004010B5024800F0A4FA10BD000089
:1009B0004800002001F40072B2F5007F00D100BFB2
:1009C000CA430280704721B1828942F40052828179
:1009D00004E082894DF6FF731A408281704770B53A
:1009E0000246002400230025002040F66A16B1428A
:1009F00000D100BFC1F3421501F01F03012606FA22
:100A000003F3012D02D19689334006E0022D02D175
:100A1000168A334001E0968A33400C12012606FA0A
:100A200004F41688344013B10CB1012000E000201A
:100A300070BDF0B50346002400260025002040F6D6
:100A40006A17B94200D100BF1846C1F3421401F041
:100A50001F06012707FA06F5012C01D10C3004E02E
:100A6000022C01D1103000E014301AB107682F4376
:100A7000076002E00768AF430760F0BD2DE9FF475C
:100A800005460E460024A14600BFA046B08900B12D
:100A900000BF2C8A24F44054F08804432C82AC8993
:100AA00041F20C608443B08831890843718908435E
:100AB0000443AC81AC8A24F44074B0890443AC8212
:100AC0006846FFF7F3FC2048854202D01F48854264
:100AD00002D1DDF80C9001E0DDF80890A88900F45F
:100AE000004040B109EBC90000EB09103168490032
:100AF000B0FBF1F707E009EBC90000EB0910316822
:100B00008900B0FBF1F76420B7FBF0F00401200985
:100B1000642101FB1078A88900F4004040B1322024
:100B200000EBC800B0FBF1F000F00700044308E060
:100B3000322000EB08106421B0FBF1F000F00F0050
:100B400004432C81BDE8FF870010014000140140E0
:100B500001468888C0F308007047C1F3080282800C
:100B6000704700BFFEE702E008C8121F08C1002A54
:100B7000FAD170477047002001E001C1121F002A1E
:100B8000FBD1704710B54FF4407101F007020E4BD6
:100B900018684FF6FF0318400C4B034343EA02204A
:100BA000094B186000BF01210846FFF74FFC0121E7
:100BB0000220FFF74BFC01211020FFF747FC012129
:100BC0001020FFF763FC10BD0CED00E00000FA05FB
:100BD0001CB50120009000208DF8040002208DF843
:100BE000050001208DF8070069460248FFF71AFB4F
:100BF0001CBD00000010024030B5084C63680021A5
:100C0000074C2468074DB4FBF5F404FB00F202E046
:100C1000024C6468E11A9142FAD330BD001000E042
:100C20002400002040420F000748006840F0807018
:100C3000054908600020054948600846006840F002
:100C40000100086070470000FCED00E0001000E0CB
:100C50007FB501210846FFF709FC164800684508E2
:100C60001548B5FBF0F086B24FF0FF340294701EC9
:100C700080B2ADF804000020ADF80C00ADF806001D
:100C800001A94FF08040FFF74BFE01218807FFF7D5
:100C900020FE1C208DF8000004208DF801000020AB
:100CA0008DF8020001208DF803006846FFF786FBEF
:100CB0007FBD00002400002040420F001CB56020D2
:100CC000009001208DF8040002208DF8050000201E
:100CD0008DF8060069460548FFF7A4FA202000F0C9
:100CE00007F8402000F004F81CBD0000001002408E
:100CF00010B50446002003490870214600F004F8AE
:100D000010BD00000000002070B504460D460448E8
:100D1000047084F00102A9B20248FFF7EEFA70BD38
:100D20000000002000100240416851B14168491E96
:100D3000416031B9012141700178012901D18168F7
:100D40004160704770B5002416E0002004EB4401B8
:100D5000204A02EB8101486004EB440102EB81016F
:100D6000886004EB440102EB8101487004EB44010C
:100D700002F82100601CC4B2042CE6DBFFF7C4FCBF
:100D8000154800684FF47A72B0FBF2F1481EB0F1DA
:100D9000807F00D31BE0481E4FF0E02250615017C7
:100DA0000F22002807DA13071E0E0C4B00F00F0568
:100DB0002D1F5E5503E013071D0E094B1D5400BF88
:100DC00000204FF0E02290610720106100BFFFF784
:100DD0003FFF70BD700800202400002018ED00E0E7
:100DE00000E400E010B500F05FF900F009F900F050
:100DF000F4F810BD9EB0FFF7C5FEFFF7F3FFFFF755
:100E00005DFFFFF7E5FEFFF79DFFFFF70DFF1C22DB
:100E10001BA117A8FFF7D6F91C2220A110A8FFF7E5
:100E2000D1F91C2224A109A8FFF7CCF91C2229A181
:100E300002A8FFF7C7F901210420FFF707FB0020F4
:100E40008DF8060001208DF807008DF80400009051
:100E500002208DF8050069462548FFF7E3F90DE00B
:100E60000120234918310860FFF7C6FE4FF4803097
:100E70001F49183108600120FFF7BEFEF0E70000AF
:100E8000E68EA5E694B6E588B0E4B8B2E58FA3E5B2
:100E900091BDE4BBA4310D0A00000000E68EA5E67A
:100EA00094B6E588B0E4B8B2E58FA3E591BDE4BBA4
:100EB000A4320D0A00000000E68EA5E694B6E5888F
:100EC000B0E4B8B2E58FA3E591BDE4BBA4330D0A4D
:100ED00000000000E68EA5E694B6E588B0E4B8B25E
:100EE000E58FA3E591BDE4BBA4340D0A000000002A
:100EF0000008024070B5044640F225512068FFF713
:100F00006EFDE0B12068FFF723FEC5B2608961681D
:100F10000D546089401C81B261812089814201DBCE
:100F200000216181E1892089814202DAE089401C47
:100F3000E081606A10B12846616A884700BF40F2CC
:100F400027712068FFF74BFD08B3608B60B9002262
:100F500040F227712068FFF76CFD012240F2266104
:100F60002068FFF766FD37E0228B2369995C2068D3
:100F7000FFF7F3FD208B401C81B22183A08A8142C0
:100F800001DB00212183608B401E608324E040F25E
:100F900026612068FFF723FDF0B1608B50B9002275
:100FA00040F226612068FFF744FD206AA0B1206A64
:100FB000804711E0228B2369995C2068FFF7CDFD03
:100FC000208B401C81B22183A08A814201DB002159
:100FD0002183608B401E608370BD08B54FF4407064
:100FE000FFF728FA25208DF8000000208DF8020078
:100FF00001208DF803006846FFF7E0F908BD000006
:1010000000B587B001210846FFF720FA0121102022
:10101000FFF73CFA072209212148FFF74BF9072285
:101020000A211F48FFF746F900208DF81A00012019
:101030008DF81B0002208DF818008DF819000002B1
:10104000059005A91648FFF7EDF84FF4806005906C
:1010500005A91348FFF7E6F84FF4E13001900020AE
:10106000ADF80800ADF80A00ADF80C00ADF81000BE
:101070000C20ADF80E0001A90A48FFF7FFFC012281
:1010800040F225510748FFF7D4FC01210548FFF73E
:101090009AFC40210348FFF78DFC07B000BD00001B
:1010A00000000240001001400F481049086010483D
:1010B00048604FF480610D480181002181814181A8
:1010C000C1810C48094908614FF480610748818259
:1010D00000210183C182418300200449C8610021AD
:1010E0000248416201627047001001404800002040
:1010F000700400207000002018110008000000207B
:1011000048000000660B000860110008480000203D
:10111000A80C0000760B0008000000000000000092
:1011200000000000000000000000000000000000BF
:10113000000000000000000000000000007A030A28
:101140000000000000000000010203040607080977
:10115000000000000102030401020304060708095D
:040000050800018965
:00000001FF
