:020000040800F2
:10000000A8110020A1010008D50800082907000850
:10001000D10800083B070008FF100008000000009E
:10002000000000000000000000000000310B00088C
:100030003F0700080000000065090008210C0008C7
:10004000BB010008BB010008BB010008BB010008A0
:10005000BB010008BB010008BB010008BB01000890
:10006000BB010008BB010008BB010008BB01000880
:10007000BB010008BB010008BB010008BB01000870
:10008000BB010008BB010008BB010008BB01000860
:10009000BB010008BB010008BB010008BB01000850
:1000A000BB010008BB010008BB010008BB01000840
:1000B000CD0D0008BB010008BB010008BB01000812
:1000C000BB010008BB010008BB010008BB01000820
:1000D000BB010008410F0008BB010008BB0100087C
:1000E000BB010008BB010008BB010008BB01000800
:1000F000BB010008BB010008BB010008BB010008F0
:10010000BB010008BB010008BB010008BB010008DF
:10011000BB010008BB010008BB010008BB010008CF
:10012000BB010008BB010008BB010008BB010008BF
:10013000BB010008BB010008BB010008BB010008AF
:10014000BB010008BB010008BB010008BB0100089F
:10015000BB010008BB010008BB010008BB0100088F
:10016000BB010008BB010008BB010008BB0100087F
:10017000BB010008BB010008BB010008BB0100086F
:10018000BB010008BB010008DFF810D000F02CFA1A
:1001900000480047B91C0008AFF30080A8110020F8
:1001A0000648804706480047FEE7FEE7FEE7FEE711
:1001B000FEE7FEE7FEE7FEE7FEE7FEE7650D000867
:1001C00089010008D2B201E000F8012B491EFBD2E0
:1001D00070470022F6E710B513460A460446194652
:1001E000FFF7F0FF204610BD30B50B46014600205A
:1001F0002022012409E021FA02F59D4205D303FAE9
:1002000002F5491B04FA02F52844151EA2F1010269
:10021000F1DC30BD2DE9F05F0546002092469B469B
:1002200088460646814640241BE02846414647460C
:10023000224600F0FAF953465A46C01A914110D3AB
:1002400011461846224600F0E1F92D1A67EB010825
:100250004F4622460120002100F0D8F917EB000993
:100260004E41201EA4F10104DFDC484631462A46F7
:100270004346BDE8F09F2DE9FE4F804681EA03002A
:10028000C00F0C46009021F0004123F00045B8EB70
:100290000200A94105D24046214690461C460B4625
:1002A000024623F00040104347D0270DC7F30A0051
:1002B000C3F30A510290401A019040286BDAC3F34D
:1002C000130040F4801B0098924620B10023D2EB2B
:1002D000030A63EB0B0B01985946C0F140025046EC
:1002E00000F094F906460D4650465946019A00F032
:1002F000ACF910EB08006141002487EA115284EA4E
:10030000E7731A4340D0009A62B3019A012A4FEA78
:10031000075215DC001B61EB02014FF0004202EABC
:100320000752CDE90042001C41F5801132462B46B0
:1003300000F0ACF903B0BDE8F08F40462146F9E784
:10034000001B61EB0201001C41F5801300185B41AA
:100350002018A2F5001747EB030140EAD570B61943
:100360006D4111E06D084FEA360645EAC0754FEA67
:100370000752001B61EB0201001C41F58011490886
:100380004FEA30000019514132462B4603B0BDE818
:10039000F04F00F06CB90098012240000023D0EB30
:1003A000020263EBE073009821464FEAE074B8EB79
:1003B000000061EB0401E9E783F000435BE781F0B3
:1003C000004158E72DE9FE4F81EA030404F00044A0
:1003D00021F0004100944FF0000B23F0004350EA5D
:1003E00001045ED052EA03045BD0C3F30A54C1F3A4
:1003F0000A552C44A4F2F3340194A0FB0254C1F337
:10040000130141F48011C3F3130343F4801301FB80
:10041000024400FB034E840A970A44EA815447EAE7
:100420008357A4FB076802958D0A05FB07854FEAF1
:10043000932C04FB0C542705029D4FEA065847EA0B
:100440001637B5EB08056EEB070C870E920E47EAE0
:10045000811742EA8312A7FB0201B6EB0B0164EBA2
:1004600000042B0D43EA0C335E1844EB1C50DA46B3
:100470005146E7FB0201C5F313044FEA0B3343EA8D
:1004800014534FEA0432019C43EA0603A4F10C041E
:100490000294009CCDE900B400F0F8F803B0BDE888
:1004A000F08F00200146F9E72DE9F04D81EA0304C1
:1004B00004F0004B21F0004514464FF0000A23F0F1
:1004C000004150EA050220D054EA01021DD0C5F3D4
:1004D0000A570246C5F31303C1F31300C1F30A56CA
:1004E00040F4801543F48013A7EB0608101BD64692
:1004F00008F2FD3873EB050002D308F1010801E0B2
:1005000092185B41B8F1000F03DA00200146BDE804
:10051000F08D00204FF48011064684460EE0171B34
:1005200073EB050705D3121B63EB050306434CEA87
:10053000010C49084FEA300092185B4150EA01076C
:10054000EDD152EA030012D082EA040083EA0501E9
:10055000084305D0101BAB4106D20122002306E060
:1005600000224FF0004302E06FF0010253101AEB3B
:1005700006004CEB085110EB0A0041EB0B01BDE803
:10058000F04D00F074B8C1F30A52C1F3130140F208
:10059000FF3341F480119A4202DA0020014670478D
:1005A00040F233439A42A2F2334202DC524200F05C
:1005B0003CB800F02BB8000030B5041E71F1000407
:1005C00004DB4FF00044404264EB0101141E73F160
:1005D000000405DB1C464FF00043524263EB04036A
:1005E000994208BF904230BD064C074D06E0E068D6
:1005F00040F0010394E8070098471034AC42F6D36A
:10060000FFF7C6FD101F0008301F0008202A04DB7A
:10061000203A00FA02F1002070479140C2F1200315
:1006200020FA03F3194390407047202A04DB203A54
:1006300021FA02F00021704721FA02F3D040C2F102
:1006400020029140084319467047202A06DBCB1749
:10065000203A41FA02F043EAE07306E041FA02F37D
:10066000D040C2F12002914008431946704710B5AE
:10067000141E73F1000408DA401C41F100019218C5
:100680005B411A4301D120F0010010BD2DE9F04D6E
:1006900092469B4611B1B1FA81F202E0B0FA80F2C3
:1006A00020329046FFF7B2FF04460F4640EA0A00A8
:1006B00041EA0B0153465A46084313D0114653EA08
:1006C000010019D0C8F140025046FFF7AEFF0546C1
:1006D0000E46504659464246FFF798FF084305D05C
:1006E000012004E020463946BDE8F08D0020054396
:1006F00046EAE0762C4337430A986305E40AA0EB08
:1007000008000022FD0A44EA47540A3002D50020BE
:100710000146E9E7010510196941DDE908450019BD
:100720006941BDE8F04DA2E71EF0040F0CBFEFF3E6
:100730000880EFF3098000F075B800BFFEE770474E
:10074000F0B50A4600210023002400BF3DE001254A
:1007500005FA01F3156805EA03049C4234D10568E3
:100760004F000326BE40B543056015794E00B540E5
:100770000668354305601579012D02D01579022DE3
:1007800016D185684F000326BE40B5438560557974
:100790004E00B540866835438560456801268E4029
:1007A000B5434560456896798E40B6B2354345609D
:1007B000C5684F000326BE40B543C560D5794E00DD
:1007C000B540C6683543C560491C1029BFD3F0BD8C
:1007D000F0B5002300244D07ED0E02FA05F3CE100C
:1007E00000F1200555F826504E07F70E0F26BE40A3
:1007F000B543CF1000F1200646F82750CE1000F187
:10080000200555F8265045EA0304CE1000F12005D6
:1008100045F82640F0BD0AB1816101E00B04836117
:10082000704700002849096801F0004149B1264994
:10083000096841F00041244A11608169891C816185
:100840007047214908390968204A11621E49091F69
:10085000097882F824101C49C91E097891621A4946
:100860000C310968D1621849891E09881186164918
:10087000096851631449091D0968916312491031CF
:100880000968D16310490C31096851640E49083177
:10089000096891640C49091F0968116400BE0B4A7C
:1008A000016811604168516081689160C168D160E0
:1008B000016911614169516181699161C169D161C8
:1008C00000BE00BFBCE700002CED00E0A408002043
:1008D00000BFFEE77047000070B5002100230F2223
:1008E000C4781CB3174C246804F4E064C4F5E064D5
:1008F000C4F30721C1F10404E3B20A4144789C40E7
:10090000E1B28478144021430C07210E0E4C057887
:100910006155047804F01F050124AC4005786D1181
:10092000AD0005F1E025C5F8004109E0047804F0C8
:100930001F050124AC40054D0678761145F8264088
:1009400070BD00000CED00E000E400E080E100E09C
:1009500002490143024A1160704700000000FA0595
:100960000CED00E07047000029B1064A126802430E
:10097000044B1A6004E0034A12688243014B1A6078
:10098000704700003038024029B1064A126802431D
:10099000044B1A6004E0034A12688243014B1A6058
:1009A000704700004038024029B1064A12680243ED
:1009B000044B1A6004E0034A12688243014B1A6038
:1009C0007047000044380240F0B5002100220024A6
:1009D000022500260223324F3F6807F00C0121B1A7
:1009E000042905D0082937D105E02E4F076036E0ED
:1009F0002D4F076033E02A4F3F1F3F68C7F38056F3
:100A0000274F3F1F3F6807F03F036EB1264FB7FBEC
:100A1000F3F7DFF88CC0ACF1040CDCF800C0CCF3C9
:100A2000881C07FB0CF40CE01E4FB7FBF3F7DFF854
:100A300070C0ACF1040CDCF800C0CCF3881C07FBE0
:100A40000CF4174F3F1F3F68C7F301477F1C7D0021
:100A5000B4FBF5F7076002E0124F076000BF00BF6C
:100A60000F4F3F6807F0F0010909104F7A5C0768E3
:100A7000D74047600A4F3F6807F4E051890A0B4F9F
:100A80007A5C4768D7408760054F3F6807F460414C
:100A9000490B064F7A5C4768D740C760F0BD00003D
:100AA000083802400024F40000127A0038000020C8
:100AB0002DE9F0470746884600BFDFF870A09AF896
:100AC0000000532801D000F01DFB00BFEFF311819F
:100AD0000846202181F3118800BF00BF07EB4702C1
:100AE0001249183101EBC204E1684D1CA168A9420A
:100AF00000D100256169022903D100BF2169A94203
:100B0000FCD02169A94208D0E268616801EB0209C2
:100B100089F80080E560012600E00026C1B281F37B
:100B2000118800BF00BF3046BDE8F087F008002004
:100B3000704700000CB50020019000903448006818
:100B400040F480303249086000BF3148006800F44A
:100B5000003000900198401C0190009818B901984D
:100B6000B0F5A04FF1D12A48006800F4003010B170
:100B70000120009001E0002000900098012846D15B
:100B800023484030006840F08050214940310860DF
:100B90002048006840F440401E4908601C48083066
:100BA00000681B49083108600846006840F40040AE
:100BB00008600846006840F4A05008601648091F05
:100BC0000860081F006840F08070091F086000BFBF
:100BD0000F48006800F000700028F9D040F205705E
:100BE0000E4908600A480830006820F003000849F0
:100BF000083108600846006840F00200086000BF45
:100C000003480830006800F00C000828F8D10CBD3B
:100C1000003802400070004008544007003C024089
:100C200010B500F001F810BD10B51948006840B1CA
:100C300017480068401E1649086010B90120154980
:100C40000870002408E004EB4401134A02EB810021
:100C500000F0C2FF601CC4B2042CF4DB0F48006833
:100C6000401C0E490860084600686FF00041884249
:100C700002D100200949086009480078401CC0B230
:100C8000074908700A2801DB0020087010BD000029
:100C90000400002008000020740800200C00002040
:100CA0002000002070B50020002202230024022131
:100CB000274D2D6805F00C0020B1042806D0082827
:100CC00034D107E0234D244E356033E0234D224ECE
:100CD00035602FE01E4D2D1F2D68C5F380541C4D2F
:100CE0002D1F2D6805F03F0154B11C4DB5FBF1F5EA
:100CF000174E361F3668C6F3881605FB06F209E064
:100D0000144DB5FBF1F5124E361F3668C6F3881642
:100D100005FB06F20E4D2D1F2D68C5F301456D1C18
:100D20006B00B2FBF3F50C4E356003E0094D0A4E43
:100D3000356000BF00BF064D2D68C5F30315084E92
:100D4000705D054D2D68C540034E356070BD0000D7
:100D5000083802400024F4002400002000127A0029
:100D60002800002010B51548006840F470001349B1
:100D700008601348006840F0010011490860002035
:100D80000F49083108600E4800680E4908400C49B8
:100D900008600D48091D0860081F006820F48020C5
:100DA000091F0860002006490C310860FFF7C2FEE9
:100DB0004FF0006001498039086010BD88ED00E007
:100DC00000380240FFFFF6FE1030002410B502216B
:100DD000480700F058F858B10221480700F044F8DD
:100DE00000220221480700F05FF81B480068804796
:100DF0000421080700F047F858B10421080700F063
:100E000033F800220421080700F04EF81348006868
:100E100080470821C80600F036F858B10821C806F6
:100E200000F022F800220821C80600F03DF80C4826
:100E3000006880471021880600F025F858B110217D
:100E4000880600F011F800221021880600F02CF826
:100E500004480068804710BD1000002014000020E6
:100E6000180000201C000020CA430282704721B1F4
:100E7000028842F00102028004E002884FF6FE730D
:100E80001A400280704730B502460020002300243B
:100E9000158A05EA0103958905EA010413B10CB12D
:100EA000012000E0002030BD1AB183890B4383810B
:100EB00002E083898B43838170470000002202880F
:100EC000184B98420ED0184B98420BD0B0F1804F7F
:100ED00008D0164B984205D0154B984202D0154BBE
:100EE000984204D14FF68F731A404B881A43124B25
:100EF000984207D0114B984204D04FF6FF431A4056
:100F00000B891A4302804B68C3620B880385054B2B
:100F1000984202D0044B984201D18B7A0386012378
:100F2000838270470000014000040140000400403B
:100F300000080040000C0040001000400014004079
:100F400010B5024800F0D0FE10BD00004C0000209B
:100F500001F40072B2F5007F00D100BFCA430280E5
:100F6000704721B1828942F40052828104E0828973
:100F70004DF6FF731A408281704770B50246002417
:100F800000230025002040F66A16B14200D100BFC0
:100F9000C1F3421501F01F03012606FA03F3012DE8
:100FA00002D19689334006E0022D02D1168A3340E1
:100FB00001E0968A33400C12012606FA04F41688E2
:100FC000344013B10CB1012000E0002070BDF0B539
:100FD0000346002400260025002040F66A17B94287
:100FE00000D100BF1846C1F3421401F01F060127CB
:100FF00007FA06F5012C01D10C3004E0022C01D1D6
:10100000103000E014301AB107682F43076002E087
:101010000768AF430760F0BD2DE9FF4705460E4660
:101020000024A14600BFA046B08900B100BF2C8AB1
:1010300024F44054F08804432C82AC8941F20C60C3
:101040008443B08831890843718908430443AC81E3
:10105000AC8A24F44074B0890443AC826846FFF73C
:10106000B3FC2048854202D01F48854202D1DDF8FA
:101070000C9001E0DDF80890A88900F4004040B130
:1010800009EBC90000EB091031684900B0FBF1F72A
:1010900007E009EBC90000EB091031688900B0FBDB
:1010A000F1F76420B7FBF0F004012009642101FB93
:1010B0001078A88900F4004040B1322000EBC8004D
:1010C000B0FBF1F000F00700044308E0322000EB31
:1010D00008106421B0FBF1F000F00F0004432C81F4
:1010E000BDE8FF87001001400014014001468888D8
:1010F000C0F308007047C1F308028280704700BF48
:10110000FEE7000070B5144CA8212046FFF761F8F7
:1011100003202061606111A0A0611349E1614FF4D7
:10112000806121620021A1626162E1620BA0206600
:101130000E4961661021A16600212167E1666167A1
:10114000002505E0C5F10F000949085C60556D1CDC
:10115000102DF7D370BD0000F00800205465726DAB
:10116000696E616C0000000098090020980D002055
:10117000FC1E00080FB4054B10B503A9044A0298E1
:1011800000F0DCF810BC5DF814FB0000A51C0008A2
:101190004800002002E008C8121F08C1002AFAD146
:1011A00070477047002001E001C1121F002AFBD1E7
:1011B000704780F3108870472DE9FF5F82B00021EF
:1011C000DDE90430020DDDF840B0034318D044F6E9
:1011D0001050A2F2FF3242431514119801281FD07B
:1011E000A5EB0B00401C5FEA000A4FF000064E4FD3
:1011F000DFF83891B046504615D5CAF1000413E027
:10120000119801244AA3012801D16FEA0B01029829
:10121000119AC0E90031C0E9024206B0BDE8F09F72
:10122000CBF10000DFE704460021404A491842EBB9
:101230000450CDE9001012E0E00707D032463B46EB
:1012400040464946FFF7BEF88046894632463B464F
:1012500010461946FFF7B6F806460F466410002CF4
:10126000EAD1DDE90401DDE90023BAF1000F06DA75
:10127000FFF7A8F842464B46FFF7A4F805E0FFF752
:1012800013F942464B46FFF70FF904460E4600227B
:10129000284BFFF791F903D84FF0FF30014607E0E4
:1012A0000022254B20463146FEF7E5FFFFF76BF99C
:1012B000102409E0002C0ADB0A220023FEF7AAFF13
:1012C000039B30321A55641E50EA0102F2D1641CAD
:1012D000039AC4F111031444119A012A03D0012284
:1012E00008430DD10AE0084304D000204FF0110B51
:1012F000119072E7A3EB0B056D1E0DE05B4504DD5D
:101300004FF0000205F1010504E003DA4FF000029E
:10131000A5F10105002AECD002981199C0E902312B
:10132000C0E9004579E70000000014400000F03FEC
:10133000300000000000F0430000E03F2DE9FF4FC7
:1013400095B09A46884606460025EEE1252877D1D5
:1013500000242746F94A0121039400E0044316F8CB
:10136000013F203B01FA03F01042F7D130782A28E0
:1013700011D06FF02F033078A0F13002092A16D86F
:10138000039A44F0020402EB820203EB420210448F
:10139000761C0390EFE758F8042B0392002A03DA37
:1013A000504244F40054039044F00204761C307818
:1013B0002E2816D116F8010F44F004042A280DD067
:1013C0006FF02F023078A0F13003092B09D807EB1A
:1013D000870302EB4303C718761CF3E758F8047B36
:1013E000761C30786C280FD006DC4C2817D0682883
:1013F0000DD06A2814D104E0742810D07A280FD1B7
:101400000DE044F400140AE044F4801401E044F4D4
:1014100040147278824202D104F58014761C761C46
:10142000307866280BD013DC582877D009DC0028E8
:1014300075D04528F6D04628F4D047281AD193E134
:1014400018E0632835D0642879D0652812D18BE163
:10145000702873D008DC6728F1D069286FD06E2817
:101460000DD06F2806D1ACE073282CD0752874D02D
:10147000782853D05246179990476D1C54E1C4F315
:101480000250022809D003280DD0D8F800100428F3
:101490000DD00D6008F1040846E1D8F80010EA17F5
:1014A000C1E90052F6E7D8F800100D80F2E70D70A0
:1014B000F0E718F8041B8DF8001000208DF80100EB
:1014C000EB46012003E058F804BB4FF0FF30610702
:1014D0004FF0000102D40DE009F101018946B94243
:1014E0000FDA8145F8DB1BF809100029F4D108E078
:1014F00009F1010189468142FADB1BF80910002934
:10150000F6D103985346A0EB090721463846179AAF
:1015100000F080FA284400EB090507E044E008E108
:101520000DE01BF8010B524617999047B9F10109DC
:10153000F7D2534621463846179AF2E039E00A219D
:10154000C4F302524FF0000B0091022A06D058F863
:10155000040BC117032A09D00AE023E008F10700B1
:1015600020F00702F2E80201904605E000B2C11740
:10157000042A01D140B2C117002906DA0A46002127
:10158000404261EB02012D2202E0220504D52B220C
:101590008DF80420012203E0E20701D02022F7E7C2
:1015A000914657E00A2100E010214FF0000B009116
:1015B0000BE010214FF0000B44F0040408270091C9
:1015C00003E008204FF0000B0090C4F30252022AFF
:1015D00005D058F8040B0021032A08D008E008F1D0
:1015E000070020F00702F2E80201904603E080B213
:1015F000042A00D1C0B24FF0000922072AD5327860
:10160000702A07D0DDF800C08CF0100C5CEA0B0CDF
:1016100005D00EE040228DF80420012208E050EAB7
:10162000010306D030238DF804308DF80520022206
:101630009146009B83F0080353EA0B030AD150EA5A
:10164000010201D1620705D530228DF804204FF048
:1016500001097F1E3278582A04D039A20C920CAAB4
:1016600002920BE03BA2F9E75B46009AFEF7D2FD3F
:101670000C9B9B5C029A521E0292137050EA01026C
:10168000F2D1029804A9081A00F1200B600702D5D4
:1016900024F4803400E001275F4502DDA7EB0B0056
:1016A00000E0002000EB0B01009003984944401A31
:1016B0000390E00306D453462146179A039800F09E
:1016C000A9F90544002706E001A85246C05D179914
:1016D00090476D1C7F1C4F45F6DBE0030CD553464D
:1016E0002146179A039800F095F9054404E030204C
:1016F0005246179990476D1C0099481E009000298A
:10170000F5DC08E00298029952460078491C0291E3
:10171000179990476D1CBBF10001ABF1010BF1DC97
:101720005BE100F065F90544761C307800287FF411
:101730000DAE19B02846BDE8F08F00000928010061
:101740003031323334353637383961626364656637
:1017500000000000303132333435363738394142F9
:101760004344454600000000600700D4062708F106
:10177000070020F00700F0E80223804603F0004C49
:101780005FEA0C0001D097A009E0200501D596A0E2
:1017900005E0E00701D095A001E0AFF24C00139006
:1017A000307823F0004365280CD006DC452809D0AA
:1017B00046281DD047287FD13BE0662818D06728EF
:1017C0007AD136E00021112F01DB112000E0781CD6
:1017D000CDE9000104A90CA8FFF7EEFCDDE90D013D
:1017E0000C9A4FF0000B07F10109109200914EE0A6
:1017F0004FF000400097CDE9011004A90CA8FFF7B5
:10180000DBFCDDE90D020C9B0F994FF0000B9146BC
:101810001093009211B9791C00EB0109B7EB090094
:1018200003D4C0F1FF3B07F10109A9EB07000190C8
:1018300042E0012F00DA01270021112F01DD1120E4
:1018400000E03846CDE9000104A90CA8FFF7B4FC7C
:10185000DDE90D010C9A00914FF0000BB946109292
:1018600021070FD4009A4A4503DA914601E0A9F115
:101870000109B9F1010F05DD109AA9F10101515CCF
:101880003029F4D0B84202DA10F1040F03DA012152
:10189000CDE9011010E0002803DC8344A9EB00012E
:1018A00002E0411C494500DD8946A0EB0B00401CCD
:1018B00001904FF000400290200705D40198484560
:1018C00002DB4FF0FF30019000208DF84B000298B2
:1018D0000DF14B07B0F1004F25D002200C902B20CA
:1018E0000D90029800280CDA404202902D200D90B5
:1018F00007E00A210298FEF777FC3031029007F8E2
:10190000011D0C99481E0C900029F2DC0298002859
:10191000EFD1791E0D980870307800F0200040F06B
:10192000450007F8020D11A8C01BC01D02901398B6
:10193000007800B1012000EB0901019801EBE07192
:10194000029801440398401A401E0390E00306D415
:1019500053462146179A039800F05CF80544139803
:10196000007818B15246179990476D1CE00323D5B3
:1019700053462146179A039800F04CF805441BE0A3
:10198000BBF1000F07DB0098584504DD109817994C
:1019900010F80B0001E0179930205246904701984B
:1019A0000BF1010B401E05F10105019004D12E2021
:1019B0005246179990476D1CB9F10001A9F1010930
:1019C000DEDC05E017F8010B5246179990476D1CB5
:1019D0000299481E02900029F4DC53462146179ACA
:1019E00003989EE62D0000002B0000002000000060
:1019F0002DE9F041044600251E461746880404D40C
:101A000005E039462020B0476D1C641EF9D52846F4
:101A1000BDE8F0812DE9F041044600251E469046C0
:101A2000C80301D5302700E02027880404D505E04D
:101A300041463846B0476D1C641EF9D52846BDE8BE
:101A4000F081000010B54FF4407101F007020E4B19
:101A500018684FF6FF0318400C4B034343EA02207B
:101A6000094B186000BF01210846FEF77DFF0121E8
:101A70000220FEF779FF01211020FEF775FF0121FA
:101A80001020FEF791FF10BD0CED00E00000FA05FC
:101A9000704700001CB50120009000208DF8040064
:101AA00002208DF8050001208DF8070069460248E4
:101AB000FEF746FE1CBD00000010024010B50446B3
:101AC00004B910BD012C00D102240120FFF771FBE5
:101AD00009480460002009490870FFF76AFB06E026
:101AE000FFF7D6FF05480078012800D100E0F7E7AE
:101AF00000BF00BFE5E70000040000200800002050
:101B00007FB501210846FEF73FFF164800684508EB
:101B10001548B5FBF0F086B24FF0FF340294701E0A
:101B200080B2ADF804000020ADF80C00ADF806005E
:101B300001A94FF08040FFF7C1F901218807FFF7A5
:101B400096F91C208DF8000004208DF8010000207B
:101B50008DF8020001208DF803006846FEF7BCFEF8
:101B60007FBD00002400002040420F001CB5602013
:101B7000009001208DF8040002208DF8050000205F
:101B80008DF8060069460548FEF7DAFD202000F0D2
:101B900007F8402000F004F81CBD000000100240CF
:101BA00010B50446002003490870214600F004F8EF
:101BB00010BD00000000002070B504460D4604482A
:101BC000047084F00102A9B20248FEF724FE70BD41
:101BD0000000002000100240416851B14168491ED8
:101BE000416031B9012141700178012901D1816839
:101BF0004160704770B5002416E0002004EB4401FA
:101C0000204A02EB8101486004EB440102EB8101B0
:101C1000886004EB440102EB8101487004EB44014D
:101C200002F82100601CC4B2042CE6DBFFF73AF88E
:101C3000154800684FF47A72B0FBF2F1481EB0F11B
:101C4000807F00D31BE0481E4FF0E0225061501708
:101C50000F22002807DA13071E0E0C4B00F00F05A9
:101C60002D1F5E5503E013071D0E094B1D5400BFC9
:101C700000204FF0E02290610720106100BFFFF7C5
:101C80003FFF70BD740800202400002018ED00E024
:101C900000E400E010B500F001F900F0ABF800F04E
:101CA00096F810BD70B504460D46E1B20020FEF76F
:101CB000FFFE204670BD0000FFF7C4FEFFF7EAFFFD
:101CC000FFF754FFFFF7E6FEFFF794FF05E003A0E0
:101CD000FFF750FA6420FFF7F1FEF8E748656C6CF7
:101CE0006F205254540D0A0070B5044640F225513D
:101CF0002068FFF742F9E0B12068FFF7F7F9C5B2B5
:101D0000608961680D546089401C81B261812089BD
:101D1000814201DB00216181E1892089814202DA6F
:101D2000E089401CE081606A10B12846616A8847FA
:101D300000BF40F227712068FFF71FF908B3608BDE
:101D400060B9002240F227712068FFF740F90122B4
:101D500040F226612068FFF73AF937E0228B2369C9
:101D6000995C2068FFF7C7F9208B401C81B2218362
:101D7000A08A814201DB00212183608B401E6083A9
:101D800024E040F226612068FFF7F7F8F0B1608B9D
:101D900050B9002240F226612068FFF718F9206A46
:101DA000A0B1206A804711E0228B2369995C2068EA
:101DB000FFF7A1F9208B401C81B22183A08A8142C8
:101DC00001DB00212183608B401E608370BD08B55C
:101DD0004FF44070FEF7BCFD25208DF80000002078
:101DE0008DF8020001208DF803006846FEF774FDAF
:101DF00008BD000000B587B001210846FEF7B4FD1C
:101E000001211020FEF7D0FD072209212148FEF70D
:101E1000DFFC07220A211F48FEF7DAFC00208DF8BC
:101E20001A0001208DF81B0002208DF818008DF893
:101E300019000002059005A91648FEF781FC4FF431
:101E40008060059005A91348FEF77AFC4FF4E13055
:101E500001900020ADF80800ADF80A00ADF80C00C4
:101E6000ADF810000C20ADF80E0001A90A48FFF7EC
:101E7000D3F8012240F225510748FFF7A8F80121C5
:101E80000548FFF76EF840210348FFF761F807B0F7
:101E900000BD000000000240001001400F48104942
:101EA0000860104848604FF480610D4801810021AE
:101EB00081814181C1810C48094908614FF48061E9
:101EC0000748818200210183C182418300200449A7
:101ED000C861002102484162016270470010014060
:101EE0004C00002074040020740000203031323394
:101EF0003435363738394142434445460000000006
:101F000000005454522052454747455300000000FA
:101F1000301F0008000000204C0000009411000851
:101F20007C1F00084C0000205C110000A411000878
:101F300000000000000000000000000000000000A1
:101F40000000000000000000000000000000000091
:101F500000000000007A030A0000000000000000FA
:101F6000010203040607080900000000010203043F
:0C1F70000102030406070809000000003D
:040000050800018965
:00000001FF
