:020000040800F2
:10000000E0290020A10100087F0A0008770A000803
:100010007B0A0008D90200088320000800000000C5
:10002000000000000000000000000000311D00087A
:10003000FD070008000000000D0B0008211E00084D
:10004000BB010008BB010008BB010008BB010008A0
:10005000BB010008BB010008BB010008BB01000890
:10006000BB010008BB010008BB010008BB01000880
:10007000BB010008BB010008BB010008BB01000870
:10008000BB010008BB010008BB010008BB01000860
:10009000BB010008BB010008BB010008BB01000850
:1000A000BB010008BB010008BB010008BB01000840
:1000B000BB010008BB010008BB010008BB01000830
:1000C000BB010008BB010008BB010008BB01000820
:1000D000BB010008991E0008BB010008BB01000815
:1000E000BB010008BB010008BB010008BB01000800
:1000F000BB010008BB010008BB010008BB010008F0
:10010000BB010008550E0008BB010008BB01000838
:10011000BB010008BB010008BB010008BB010008CF
:10012000BB010008BB010008BB010008A9050008CD
:10013000BB010008BB010008BB010008BB010008AF
:10014000BB010008BB010008BB010008BB0100089F
:10015000BB010008BB010008BB010008BB0100088F
:10016000BB010008BB010008BB010008BB0100087F
:10017000BB010008BB010008BB010008BB0100086F
:10018000BB010008BB010008DFF810D000F092F8B6
:10019000004800471D440008AFF30080E02900201C
:1001A0000648804706480047FEE7FEE7FEE7FEE711
:1001B000FEE7FEE7FEE7FEE7FEE7FEE7311E00088A
:1001C000890100082DE9F05F0546002092469B4614
:1001D00088460646814640241BE02846414647465D
:1001E000224600F057F853465A46C01A914110D3A0
:1001F00011461846224600F03EF82D1A67EB01081A
:100200004F4622460120002100F035F817EB000987
:100210004E41201EA4F10104DFDC484631462A4647
:100220004346BDE8F09F40EA01039B0703D009E085
:1002300008C9121F08C0042AFAD203E011F8013BD2
:1002400000F8013B521EF9D2704730B50B4601460B
:1002500000202022012409E021FA02F59D4205D365
:1002600003FA02F5491B04FA02F52844151EA2F10F
:100270000102F1DC30BD202A04DB203A00FA02F151
:10028000002070479140C2F1200320FA03F3194384
:1002900090407047202A04DB203A21FA02F0002126
:1002A000704721FA02F3D040C2F120029140084386
:1002B00019467047064C074D06E0E06840F0010320
:1002C00094E8070098471034AC42F6D3FFF760FF7C
:1002D00074FF020894FF020800BFFEE770B5002516
:1002E0004FF4803400E0641E24B1802000F086FDCD
:1002F0000028F8D014B90325284670BD40F2FF50FD
:1003000000F038FD2846F8E72DE9F04106460027C1
:100310004848056801E04748056805F045000028A1
:10032000F9D005F0040030B10327042000F022FDCD
:100330003846BDE8F08105F0010028B10127012011
:1003400000F018FD3846F4E700F052FDB04202D04C
:1003500010273846EDE740F2FF5000F00BFD00207B
:1003600000F06CFD04463448204008B93846E0E708
:1003700004F0004008B11C20DBE704F0804008B125
:100380000920D6E704F0005008B10A20D1E704F0B4
:10039000805008B10B20CCE704F0006008B10C20BD
:1003A000C7E704F0806008B10D20C2E704F0807058
:1003B00008B10E20BDE704F4000008B10F20B8E733
:1003C00004F4800008B11020B3E704F4001008B171
:1003D0001120AEE704F4801008B11220A9E704F45C
:1003E000002008B11320A4E704F4802008B11420F1
:1003F0009FE704F4003008B115209AE704F4803038
:1004000008B1162095E704F4004008B1172090E7E2
:1004100004F4804008B118208BE704F4005008B1C0
:10042000192086E704F0080008B11A2081E7384651
:100430007FE70000342C014008E0FFFD70B5002587
:100440001048046801E00F48046804F045000028E3
:10045000F9D004F0040028B10325042000F08AFC40
:10046000284670BD04F0010028B10125012000F0EC
:1004700081FC2846F5E740F2FF5000F07BFC28465F
:10048000EFE70000342C014070B500250B480468EC
:1004900001E00A48046804F045000028F9D004F09F
:1004A000040028B10325042000F064FC284670BD38
:1004B00040F2FF5000F05EFC2846F8E7342C014083
:1004C0002DE9F04106460F464FF000082248056826
:1004D00001E02148056805F045000028F9D005F045
:1004E000040038B14FF00308042000F043FC4046FC
:1004F000BDE8F08105F0010030B14FF001080120A6
:1005000000F038FC4046F3E700F072FCB04203D044
:100510004FF010084046EBE740F2FF5000F02AFC95
:10052000002000F08BFC044604F4604018B9200C55
:1005300038804046DCE704F4005008B11320D7E7C8
:1005400004F4804008B11020D2E704F4004008B160
:100550000F20CDE74046CBE7342C014070B5002694
:100560004FF480350F48046802E06D1E0D480468A2
:1005700004F0450008B9002DF7D115B104F00400CE
:1005800028B10326042000F0F5FB304670BD04F0CE
:10059000400028B10026402000F0ECFB3046F5E793
:1005A0003046F3E7342C014010B501F04FF910BD8F
:1005B0000246094B9A4201D2084801E00648103829
:1005C00001F000531BB1064B0B40C36002E0044B2B
:1005D0000B408360704700001064024000600240DE
:1005E0007D0F7D0F21B1026842F00102026003E03D
:1005F000026822F00102026070470000016821F0E9
:10060000010101600021016041608160C160016100
:10061000212141614A49884204D13D21484A103A8A
:1006200091608CE046491831884205D14FF47461DD
:10063000434A103A916082E041493031884205D105
:100640004FF474113E4A103A916078E03C494831C9
:10065000884205D14FF07461394A103A91606EE0DA
:1006600037496031884204D13649354A103AD16061
:1006700065E033497831884204D13349304A103A31
:10068000D1605CE02E499031884204D12F492C4A38
:10069000103AD16053E02A49A831884205D14FF081
:1006A0003D51274A103AD16049E02949884204D196
:1006B0003D21274A083A116041E025491831884216
:1006C00005D14FF47461224A083A116037E020499D
:1006D0003031884205D14FF474111D4A083A116037
:1006E0002DE01B494831884205D14FF07461184A0A
:1006F000083A116023E016496031884204D111495B
:10070000134A121F11601AE011497831884204D14E
:100710000D490F4A121F116011E00D4990318842B6
:1007200004D10A490A4A121F116008E00849A83199
:10073000884204D14FF03D51054A121F11607047A5
:10074000106002403D000020400F002000003D20CE
:100750001064024021B1026842F02002026003E00E
:10076000026822F020020260704710B501F0800399
:100770004BB122B1436943F08003436103E0436915
:1007800023F08003436180290BD02AB1036801F074
:100790001E042343036004E0036801F01E04A34326
:1007A000036010BD10B500220268134B1A40CC68DC
:1007B0000B6823434C6923438C692343CC6923434F
:1007C0000C6A23434C6A23438C6A23434C6B2343B8
:1007D0008C6B23431A430260426922F00702D1E97D
:1007E0000B3423431A4342610B6943604B688360B7
:1007F0008B68C36010BD00003F801CF07047000094
:100800002DE9FC4107460D460026002400200090FB
:10081000019008205B4908601020486040208860F3
:100820000020C8604FF480600861084600F044FB77
:100830001020FFF769FD044614B12046BDE8FC8195
:100840005148008800044F49086037204860402024
:1008500088600020C8604FF480600861084600F09E
:100860002BFB3720FFF750FD04460CB12046E5E78F
:100870004FF0FF304549086008204860302088600C
:100880000220C8600020086101204861084600F08D
:1008900089FA00203B490860332048604020886086
:1008A0000020C8604FF480600861084600F004FB37
:1008B0003320FFF729FD04460CB12046BEE709E0CE
:1008C0004FF4001000F09AFA20B100F0EFFA4DF862
:1008D0002600761C2E48006840F22A610840002855
:1008E000EED0082000F08AFA28B1082000F042FA81
:1008F00004242046A2E7022000F080FA28B102205A
:1009000000F038FA0224204698E7202000F076FA1A
:1009100028B1202000F02EFA062420468EE74FF45E
:10092000007000F06BFA30B14FF4007000F022FA62
:100930000724204682E740F2FF5000F01BFA00989F
:100940000006009901F47F4140EA0120009901F47A
:100950007F0140EA1120009940EA11606860019827
:100960000006019901F47F4140EA0120019901F458
:100970007F0140EA1120019940EA11602860204679
:100980005CE70000B025002074000020C425002092
:10099000342C0140F0B50A4600210023002400BF9A
:1009A0003DE0012505FA01F3156805EA03049C42C0
:1009B00034D105684F000326BE40B5430560157964
:1009C0004E00B5400668354305601579012D02D00B
:1009D0001579022D16D185684F000326BE40B54318
:1009E000856055794E00B540866835438560456819
:1009F00001268E40B5434560456896798E40B6B273
:100A000035434560C5684F000326BE40B543C56009
:100A1000D5794E00B540C6683543C560491C1029DC
:100A2000BFD3F0BDF0B5002300244D07ED0E02FA50
:100A300005F3CE1000F1200555F826504E07F70EAD
:100A40000F26BE40B543CF1000F1200646F82750D0
:100A5000CE1000F1200555F8265045EA0304CE10CB
:100A600000F1200545F82640F0BD0AB1816101E0A2
:100A70000B048361704700BFFEE700BFFEE77047CD
:100A800070B5002100230F22C4781CB3174C2468D2
:100A900004F4E064C4F5E064C4F30721C1F1040484
:100AA000E3B20A4144789C40E1B284781440214387
:100AB0000C07210E0E4C05786155047804F01F05D3
:100AC0000124AC4005786D11AD0005F1E025C5F8B5
:100AD000004109E0047804F01F050124AC40054DF5
:100AE0000678761145F8264070BD00000CED00E058
:100AF00000E400E080E100E002490143024A1160A5
:100B0000704700000000FA050CED00E0704700009F
:100B100029B1064A12680243044B1A6004E0034AF2
:100B200012688243014B1A6070470000303802405F
:100B300029B1064A12680243044B1A6004E0034AD2
:100B400012688243014B1A6070470000443802402B
:100B500029B1064A12680243044B1A6004E0034AB2
:100B600012688243014B1A6070470000243802402B
:100B7000F0B5002100220024022500260223324F76
:100B80003F6807F00C0121B1042905D0082937D1AD
:100B900005E02E4F076036E02D4F076033E02A4F07
:100BA0003F1F3F68C7F38056274F3F1F3F6807F03E
:100BB0003F036EB1264FB7FBF3F7DFF88CC0ACF103
:100BC000040CDCF800C0CCF3881C07FB0CF40CE030
:100BD0001E4FB7FBF3F7DFF870C0ACF1040CDCF884
:100BE00000C0CCF3881C07FB0CF4174F3F1F3F6875
:100BF000C7F301477F1C7D00B4FBF5F7076002E0F7
:100C0000124F076000BF00BF0F4F3F6807F0F001B1
:100C10000909104F7A5C0768D74047600A4F3F6860
:100C200007F4E051890A0B4F7A5C4768D740876028
:100C3000054F3F6807F46041490B064F7A5C4768EF
:100C4000D740C760F0BD0000083802400024F4001F
:100C500000127A009C0000207CB50546002400208C
:100C60000090019000F0EAF800F0007010B10E243E
:100C700020467CBD3D49098888B26946FFF7C0FD22
:100C800004460CB12046F4E7012D36D1019800F45A
:100C9000802000282ED035480088000434490860A0
:100CA00037204860402088600020C860A8020861A2
:100CB000084600F001F93720FFF726FB04460CB187
:100CC0002046D6E702202A490860062048604020D6
:100CD00088600020C8604FF480600861084600F01A
:100CE000EBF80620FFF710FB04460CB12046C0E7E6
:100CF0002046BEE725242046BBE7019800F480305B
:100D000078B31A4800880004194908603720486001
:100D1000402088600020C8604FF480600861084669
:100D200000F0CAF83720FFF7EFFA04460CB120466E
:100D30009FE700200E490860062048604020886038
:100D40000020C8604FF480600861084600F0B4F8E5
:100D50000620FFF7D9FA04460CB1204689E7204661
:100D600087E7FFE72524204683E700007400002082
:100D7000B02500200149086070470000382C014070
:100D80000149086070470000382C014001490860A3
:100D900070470000A08025420149086070470000AC
:100DA0008C85254200210B4B02681A601B1D42688E
:100DB0001A601A1D116821F0F701D0E902231A43C5
:100DC00003691A4343691A431143024A0832116006
:100DD00070470000242C014010B50121C802FFF724
:100DE000B7FE00214FF40060FFF7B2FE10BD000017
:100DF00001480068C0B27047102C01400146002035
:100E0000034A12680A400AB1012000E0002070473E
:100E1000342C014001460020034A12680A400AB1FE
:100E2000012000E000207047342C01400248006897
:100E300000F0030070470000002C014008B5014697
:100E4000002000900248084400900098006808BD07
:100E5000142C014010B500F00DFD10BD29B1064A5B
:100E600012680243044B1A6004E0034A126882438A
:100E7000014B1A60704700003C2C014000210A4AD7
:100E8000116847F6FF629143027D83681A43436805
:100E90001A43C3681A4303681A4303691A43114388
:100EA000014A116070470000042C014001480068AD
:100EB00070470000802C01400021094B02681A6035
:100EC0001A1D11686FF30A01D0E901231A43C368A0
:100ED0001A4303691A431143014A121D11607047F6
:100EE000082C01400149086070470000002C0140B7
:100EF00008B5012000909DF8000008BD70B50446BB
:100F0000002520480068032802D12725284670BD07
:100F10001C48006838B11B480068012803D01948F4
:100F2000006802282CD1B4F5805F02D1272528461D
:100F3000EDE7B4F5006F13D10120FFF78DFE0546F4
:100F4000F5B90020104908750860486088604FF4C2
:100F50000060C860002008610846FFF78FFF0FE0BF
:100F60000020FFF779FE054655B9002006490875AF
:100F7000086048608860C86008610846FFF77EFF27
:100F80002846C4E77000002098250020F0B50146EF
:100F900000200022C04B1B7881F85630BF4B1B88C5
:100FA000A1F85430BE4B1B681A0E93090B70C2F3A4
:100FB00083034B7002F003038B70B94B1B68C3F3C0
:100FC0000742CA70B64B1B88C3F307220A71B44BA1
:100FD0001A784A715B681A0E1301CB80B04B5B68BC
:100FE000C3F30742CB8843EA1213CB8002F00F030E
:100FF0000B72AB4B9B88C3F30722D3094B72C2F32E
:1010000080138B72C2F34013CB72C2F300130B73C5
:1010100000234B73A04B1B681BB19F4B1B68012B1C
:101020004FD193071B0D0B619D4B1A790B6943EA56
:1010300082030B619A4B9B681A0E0B6943EA921369
:101040000B61C2F3C2030B7502F007034B75944B9F
:101050009B68C3F3074253098B75C2F38203CB75B8
:1010600093075B0F0B768E4B1B89C3F307220B7E16
:1010700043EAD2130B760B695B1C0024C1E91234DE
:101080000B7ED1E912649B1C012505FA03F3DD17E1
:10109000A6FB037C04FB03C306FB0533C1E9127303
:1010A0000C7A0123A3400B650027D1E912560B6D82
:1010B000A5FB034C06FB03C305FB0733C1E9124341
:1010C00036E0754B1B68022B32D1754B1A799306AB
:1010D0009B0A0B61724B9B681A0E0B6943EA022351
:1010E0000B616F4B9B68C3F307420B6913430B61A2
:1010F0006B4B1B89C3F307220B6900245B1C644103
:101100004FF400770026A3FB075C04FB07C403FB36
:1011100006474FF4806600242B463D46A3FB067C21
:1011200005FB06C503FB0453C1E9127373100B657D
:10113000C2F3801301F8193F93065B0E4B70584BB6
:101140001A7A4B7843EAD2134B7002F07F038B700C
:10115000534BDB681A0ED309CB70C2F341130B71EA
:10116000C2F382034B7193071B0F8B714C4BDB68EF
:10117000C3F307428B7943EA92138B71C2F3401396
:10118000CB7100230B7202F001034B72444B9B891D
:10119000C3F30722D3098B72C2F38013CB72C2F35D
:1011A00040130B73C2F300134B73C2F381038B73B1
:1011B00002F00303CB733A4B1A7B53080B740123E1
:1011C0004B74384B1B681A0ECA741939354B1B689F
:1011D000C3F307421402CC85324B1B88C3F30722AA
:1011E000CB8D1343CB852F4B1A7814060C635B68A9
:1011F0001A0E0B6B43EA02440C632A4B5B68C3F381
:1012000007420B6B43EA02240C63264B9B88C3F313
:1012100007220B6B13430B63224B1A7934235A5466
:10122000204B9B681A0E35235A541E4B9B68C3F300
:10123000074214068C631B4B1B89C3F307228B6B7D
:1012400043EA02448C63174B1A7A8B6B43EA0224FD
:101250008C63144BDB681A0E8B6B13438B63114B3F
:10126000DB68C3F307423C235B5C43EA12143C2374
:101270005C5413071C0DCC870A4B9B89C3F30722D0
:10128000CB8F1343CB87074B1A7B540840235C5406
:10129000012441235C54F0BD700000207400002044
:1012A000102500202025002008B500200090FFF721
:1012B0001FFE012809D1684600F0CAFB08B1FF20D3
:1012C00008BD0098C0F34320FAE7FF20F8E710B507
:1012D0000424FFF7E9FF0446042C01D1002010BDCF
:1012E000FF2C01D10220FAE70120F8E71CB500200D
:1012F00001904FF4C060FFF7FFFB31208DF8000034
:1013000001208DF8010000208DF8020001208DF8E9
:1013100003006846FFF7B4FB3B208DF80000012076
:101320008DF801006846FFF7ABFB00F06DF9FFF7A1
:1013300053FD00F0BBF901909DF8040010B19DF839
:1013400004001CBD00F032F801909DF8040010B1BB
:101350009DF80400F5E70020124908750860486010
:101360008860C86008610846FFF788FD0E48FFF7EF
:101370000DFE01909DF8040040B90B48B0F85400F0
:1013800002041046002100F047FB01909DF8040084
:1013900020B94FF40060FFF7B1FD01909DF8040003
:1013A000CFE70000982500204025002038B5002414
:1013B00001200090FFF73AFD10B92524204638BDE2
:1013C00044480068042828D00020434908600220CF
:1013D0004860C02088600020C8604FF480600861C9
:1013E0000846FFF769FDFFF729F804460CB12046CF
:1013F000E5E70020FFF722FD384908600420FFF7E9
:101400001DFD364948600820FFF718FD3349886004
:101410000C20FFF713FD3149C8602E48006858B111
:101420002C480068012807D02A480068062803D005
:1014300028480068022816D10020274908600320A8
:101440004860402088600020C8604FF480600861D8
:101450000846FFF731FD69460320FFF731F80446DF
:101460000CB12046ABE71B48006804282ED0BDF81D
:1014700000001B490860BDF8000000041649086020
:1014800009204860C02088600020C8604FF4806058
:1014900008610846FFF710FDFEF7D0FF04460CB1C7
:1014A00020468CE70020FFF7C9FC0E4908600420A5
:1014B000FFF7C4FC0B4948600820FFF7BFFC09494F
:1014C00088600C20FFF7BAFC0649C860002420465B
:1014D00075E7000070000020B025002020250020C6
:1014E000740000201025002030B58FB004460D4652
:1014F0004FF0FA511E48FFF75BF800211C48FFF738
:1015000071F81B48FFF77AF84FF000600090194817
:101510000190029400200390012004900020059087
:101520004FF48060069080000790800008900020B3
:1015300009904FF440300A9004200B9003200C9047
:101540004FF400000D9080100E9069460848FFF798
:1015500029F9012210210648FFF707F92021044844
:10156000FFF7F8F801210248FFF73CF80FB030BD53
:1015700058640240802C014030B58FB004460D46BF
:101580004FF0FA511E48FFF713F800211C48FFF7EF
:1015900029F81B48FFF732F84FF000600090194817
:1015A00001900294402003900120049000200590B7
:1015B0004FF4806006908000079080000890002023
:1015C00009904FF440300A9004200B9003200C90B7
:1015D0004FF400000D9080100E9069460848FFF708
:1015E000E1F8012210210648FFF7BFF82021044846
:1015F000FFF7B0F801210248FEF7F4FF0FB030BD4D
:1016000058640240802C01401CB501210C20FFF7DA
:101610007FFA0C2208212348FFF704FA0C22092143
:101620002048FFF7FFF90C220A211E48FFF7FAF9BC
:101630000C220B211B48FFF7F5F90C221146194823
:10164000FFF7F0F90C2202211748FFF7EBF94FF4EE
:101650007060009002208DF805008DF804000020D5
:101660008DF8060001208DF8070069460D48FFF748
:1016700091F90420009069460B48FFF78BF94FF46D
:101680008050009000208DF8070069460548FFF75C
:1016900081F90121C802FFF74BFA01218805FFF704
:1016A00037FA1CBD00080240000C0240F8B50020CB
:1016B0000090002500240026002776205F49087549
:1016C0000020086048608860C86008610846FFF72D
:1016D000D5FB0320FFF706FC0120FFF757FB002096
:1016E0005749086048608860C8604FF480600861AE
:1016F0000846FFF7E1FBFEF7F1FD00909DF80000C2
:1017000010B19DF80000F8BD4FF4D5704C49086049
:1017100008204860402088600020C8604FF4806046
:1017200008610846FFF7C8FBFEF718FF00909DF818
:10173000000020B9012043490860870712E000201B
:101740003F49086037204860402088600020C8601A
:101750004FF4806008610846FFF7AEFB3720FEF7C4
:10176000D3FD0090002036490860372048604020B3
:1017700088600020C8604FF4806008610846FFF769
:101780009BFB3720FEF7C0FD00909DF8000000286D
:1017900051D13BE000202A490860372048604020B2
:1017A00088600020C8604FF4806008610846FFF739
:1017B00083FB3720FEF7A8FD00909DF8000010B1D4
:1017C0009DF800009FE7204838431D490860292004
:1017D0004860402088600020C8604FF48060086145
:1017E0000846FFF769FBFEF74FFE00909DF80000EA
:1017F00010B19DF8000086E70020FFF71FFB0546AB
:10180000012080EAD57080F00106641C1EB94FF6F5
:10181000FF708442BED34FF6FF70844204D31B2076
:1018200000909DF800006EE705F08040051E02D094
:101830000220044908609DF8000064E79825002014
:10184000B0250020700000200000108010B507486F
:10185000006800F0C05040B10120054908604FF019
:10186000C25102485830FEF7A3FE10BD006402408A
:101870008400002010B54FF48070FFF7CBFA50B110
:101880000020254908704FF48070FFF779FA012095
:101890002249086037E00220FFF7BCFA30B102208D
:1018A000FFF76EFA02201C4908702CE00820FFF7B1
:1018B000B1FA30B10820FFF763FA04201649087026
:1018C00021E02020FFF7A6FA30B12020FFF758FAD8
:1018D00006201149087016E01020FFF79BFA30B17E
:1018E0001020FFF74DFA05200B4908700BE04FF46C
:1018F0000070FFF78FFA30B14FF40070FFF740FA35
:1019000007200549087000214CF23A30FFF7A6FA8B
:101910000148007810BD00007C00002080000020FD
:101920002DE9F047814614461D46DDE90868002789
:1019300000203249087032490860012031490860AE
:10194000002031490860012140F22A30FFF786FA71
:1019500008FB06F14846FFF7C7FD0120FFF71CFA18
:101960002A480068022808D1060202020023204605
:101970002946FEF727FC04460D4625480660102040
:1019800023494860402088600020C8604FF4806090
:1019900008610846FFF790FA1020FEF7B5FC0746ED
:1019A00017B13846BDE8F0874FF0FF30194908609D
:1019B00008FB06F04860902088600220C860002084
:1019C0000861012048610846FFF7ECF910480460FF
:1019D00012200F494860402088600020C8604FF402
:1019E000806008610846FFF767FA1220FEF78CFC5A
:1019F00007460FB13846D5E73846D3E77C000020CC
:101A000080000020780000202C2C01407000002075
:101A1000B0250020C425002070B504460D460026E0
:101A20000A48046007200949486040208860002077
:101A3000C8604FF4806008610846FFF73DFA072050
:101A4000FEF762FC0646304670BD0000B02500205F
:101A500070B50446002514B92625284670BD0F48E8
:101A6000008800040E4908600D204860402088600E
:101A70000020C8604FF4806008610846FFF71CFA38
:101A80000D20FEF741FC05460DB12846E6E7002093
:101A9000FFF7D4F920602846E0E70000740000203A
:101AA000B025002010B5002400200A4908600C2051
:101AB0004860402088600020C8604FF48060086162
:101AC0000846FFF7F9F90C20FEF71EFC04462046F5
:101AD00010BD0000B025002070B500256C1E00E090
:101AE000641E1848006838B91748006820B91748BC
:101AF000007808B9002CF3D1002012490860441E78
:101B000000E0641E1248006800F4005008B1002C88
:101B1000F7D110480068012805D1FFF7C3FF05463B
:101B200000200C4908600CB905B9042540F2FF50AB
:101B3000FFF720F90548007810B10448007870BD1F
:101B40002846FCE784000020800000207C00002064
:101B5000342C01407800002070B500256C1E00E098
:101B6000641E1848006838B91748006820B917483B
:101B7000007808B9002CF3D1002012490860441EF7
:101B800000E0641E1248006800F4805008B1002C88
:101B9000F7D110480068012805D1FFF783FF0546FB
:101BA00000200C4908600CB905B9042540F2FF502B
:101BB000FFF7E0F80548007810B10448007870BDE0
:101BC0002846FCE784000020800000207C000020E4
:101BD000342C0140780000202DE9F047814615465D
:101BE0001E46DDE90878002400204949087049496B
:101BF0000860012048490860002048490860012128
:101C000040F21A30FFF72AF908FB07F14846FFF7C0
:101C1000B3FC0120FFF7C0F841480068022808D152
:101C200007020202002328463146FEF7CBFA05469A
:101C30000E463C48076010203A49486040208860C2
:101C40000020C8604FF4806008610846FFF734F94F
:101C50001020FEF759FB044614B12046BDE8F0877A
:101C60003148008800042F49086037204860402030
:101C700088600020C8604FF4806008610846FFF764
:101C80001BF93720FEF740FB04460CB12046E5E780
:101C90002448C0F80080172022494860402088600E
:101CA0000020C8604FF4806008610846FFF704F91F
:101CB0001720FEF729FB04460CB12046CEE7194851
:101CC0000560192017494860402088600020C860DE
:101CD0004FF4806008610846FFF7EEF81920FEF720
:101CE00013FB04460CB12046B8E74FF0FF300F4914
:101CF000086008FB07F04860902088600020C860FA
:101D00000861012048610846FFF74CF82046A5E726
:101D10007C00002080000020780000202C2C014056
:101D200070000020B025002074000020C425002091
:101D3000704700000CB50020019000903448006806
:101D400040F480303249086000BF3148006800F438
:101D5000003000900198401C0190009818B901983B
:101D6000B0F5A04FF1D12A48006800F4003010B15E
:101D70000120009001E0002000900098012846D149
:101D800023484030006840F08050214940310860CD
:101D90002048006840F440401E4908601C48083054
:101DA00000681B49083108600846006840F400409C
:101DB00008600846006840F4A05008601648091FF3
:101DC0000860081F006840F08070091F086000BFAD
:101DD0000F48006800F000700028F9D040F205704C
:101DE0000E4908600A480830006820F003000849DE
:101DF000083108600846006840F00200086000BF33
:101E000003480830006800F00C000828F8D10CBD29
:101E1000003802400070004008544007003C024077
:101E200002480068401C01490860704768000020B3
:101E300010B51548006840F4700013490860134855
:101E4000006840F001001149086000200F49083186
:101E500008600E4800680E4908400C4908600D48AB
:101E6000091D0860081F006820F48020091F086011
:101E7000002006490C310860FFF75CFF4FF000605E
:101E800001498039086010BD88ED00E0003802404B
:101E9000FFFFF6FE1030002410B540F2255109482E
:101EA00000F02DF868B1074800F0E2F8C4B221460E
:101EB000044800F0E2F840F22551024800F004F82E
:101EC00000BF10BD0010014010B50022002340F6F5
:101ED0006A14A14200D100BF0A1201249440A3B2A7
:101EE000DC43048010BD21B1828942F4005282811A
:101EF00004E082894DF6FF731A408281704770B505
:101F00000246002400230025002040F66A16B14254
:101F100000D100BFC1F3421501F01F03012606FAEC
:101F200003F3012D02D19689334006E0022D02D140
:101F3000168A334001E0968A33400C12012606FAD5
:101F400004F41688344013B10CB1012000E00020E5
:101F500070BDF0B50346002400260025002040F6A1
:101F60006A17B94200D100BF1846C1F3421401F00C
:101F70001F06012707FA06F5012C01D10C3004E0F9
:101F8000022C01D1103000E014301AB107682F4341
:101F9000076002E00768AF430760F0BD2DE9FF4727
:101FA00005460E460024A14600BFA046B08900B1F8
:101FB00000BF2C8A24F44054F08804432C82AC895E
:101FC00041F20C608443B088318908437189084329
:101FD0000443AC81AC8A24F44074B0890443AC82DD
:101FE0006846FEF7C5FD2048854202D01F4885425D
:101FF00002D1DDF80C9001E0DDF80890A88900F42A
:10200000004040B109EBC90000EB091031684900FC
:10201000B0FBF1F707E009EBC90000EB09103168EC
:102020008900B0FBF1F76420B7FBF0F00401200950
:10203000642101FB1078A88900F4004040B13220EF
:1020400000EBC800B0FBF1F000F00700044308E02B
:10205000322000EB08106421B0FBF1F000F00F001B
:1020600004432C81BDE8FF870010014000140140AB
:1020700001468888C0F308007047C1F308028280D7
:10208000704700BFFEE700000FB4054B10B503A971
:10209000044A029800F018F810BC5DF814FB000028
:1020A000814100086C00002002E008C8121F08C12E
:1020B000002AFAD170477047002001E001C1121FC9
:1020C000002AFBD1704700002DE9FF4F8BB09A46E4
:1020D0000F460546002606E025280BD052460D99EE
:1020E00090476D1C761C28780028F5D10FB030463B
:1020F000BDE8F08F0024A0460122604900E00443BF
:1021000015F8013F203B02FA03F00842F7D1287886
:102110002E2817D115F8010F44F004042A280ED0F8
:102120006FF02F022878A0F1300109290AD808EBB6
:10213000880102EB410100EB01086D1CF2E757F842
:10214000048B6D1C287869283ED006DC0028CDD091
:1021500063280BD0642804D136E0732810D075288A
:102160004BD052460D999047761C85E017F8040B2A
:102170008DF8000000208DF80100E946012003E001
:1021800057F8049B4FF0FF3061074FF0000401D473
:102190000AE0641C44450DDA8442FADB19F80410A5
:1021A0000029F6D106E0641C8442FCDB19F8041017
:1021B0000029F8D1264404E019F8010B52460D9984
:1021C0009047641EF8D257E001CF4FF00A0B002869
:1021D00002DA40422D2102E0210504D52B218DF8A1
:1021E0002410012103E0E10705D02021F7E70DF1DC
:1021F000200908910CE00021F9E701CF4FF00A0B0C
:10220000F9E75946FEF721F801F1300209F8012DEE
:102210000028F6D1ADEB090000F1200B600701D4D6
:102220004FF00108D84502DDA8EB0B0000E00020CC
:102230008046002406E009A85246005D0D999047AB
:10224000641C761C08988442F5DB04E0302052467A
:102250000D999047761CB8F10001A8F10108F5DC52
:1022600005E019F8010B52460D999047761CBBF119
:102270000001ABF1010BF4DC6D1C34E7092801000F
:102280001CB50120009000208DF8040002208DF87C
:10229000050001208DF8070069460248FEF77AFB29
:1022A0001CBD00000010024030B5144800684FF417
:1022B0007A72B0FBF2F1481EB0F1807F00D31BE0D0
:1022C000481E4FF0E022506150170F22002807DA15
:1022D00013071D0E0A4B00F00F04241F1D5503E0C9
:1022E00013071C0E074B1C5400BF00204FF0E022C8
:1022F00090610720106100BF30BD00008800002001
:1023000018ED00E000E400E01CB501211020FEF70C
:10231000FFFB6020009001208DF8040002208DF862
:10232000050000208DF8060069460548FEF732FBDF
:10233000202000F007F8402000F004F81CBD000049
:102340000010024010B504462146002000F008F8B5
:1023500010BD10B504462146012000F001F810BD63
:1023600070B504460D4684F00102A9B20148FEF79B
:102370007CFB70BD0010024070B504460D46002085
:102380002071401EE0622946204602F0F3FA08B1AF
:10239000032070BD94F82E1294F82F0241EA002019
:1023A0004AF65521884201D00220F2E794F86900EC
:1023B000010694F8680041EA004194F8670041EA98
:1023C000002094F86610084320F07F400D498842B1
:1023D00001D10020DDE794F88500010694F884001F
:1023E00041EA004194F8830041EA002094F8821009
:1023F000084320F07F400349884201D10020C8E70C
:102400000120C6E746415400024600E0521C107805
:1024100010B110788842F9D1107870470246891EB1
:102420005069801E884201D8002070479378906AD6
:1024300001FB0300F9E700002DE9F04780460C4658
:10244000A17EE07E41EA002010B10020BDE8F087C7
:10245000207800F03F00401E00EB800101EBC00639
:102460004FF00109002524E01A48405D205C19491D
:10247000495D2144497840EA0127B9F1000F11D0A4
:10248000FF2E0BD2384601F0D9FB82463146761C2E
:1024900038F8110001F0D2FB824501D00020D5E7C9
:1024A000B94605E04FF6FF70874201D00020CDE726
:1024B0006D1C0D2DD8D3207800F0400038B1B9F153
:1024C000000F04D038F8160008B10020BEE7012044
:1024D000BCE70000224E00082DE9F047044689467B
:1024E000B9F1000F06D1E76817B16069B84215D895
:1024F000012713E04946204601F0B6FE0646022EAB
:1025000002D20120BDE8F087701C08B93046F9E717
:102510006069B04201D93046F4E74F463D4600BFFE
:102520006D1C6069A84204D80225BD4201D9002073
:10253000E8E72946204601F097FE064606B909E07D
:10254000701C08B1012E01D13046DBE7BD42E7D156
:102550000020D7E700BF6FF070422946204602F006
:1025600023FA8046B8F1000F08D1B9F1000F05D069
:102570002A464946204602F017FA8046B8F1000F75
:102580000BD1E5602069401C78B12069401E2061B4
:10259000607940F00100607107E0B8F1010F02D1ED
:1025A0004FF0FF3000E0012005462846AAE7000072
:1025B0002DE9F34F83B0814604980068019002E052
:1025C0000198401C0190019800782F28F8D00198BC
:1025D00000785C28F4D0D9F81CA000252F4600BF55
:1025E00038467F1C01990C5C202C03DB2F2C01D07A
:1025F0005C2C00D132E0FF2D03D3062005B0BDE8EE
:10260000F08FE4B2812C13DBE0B2FE2810DC3846F8
:102610007F1C01990E5C06EB042084B2402E01DB86
:102620007E2E05DD802E01DBFE2E01DD0620E5E796
:102630000121204601F0C4FA04460CB90620DDE76A
:10264000802C06DA214671A0FFF7DEFE08B10620D5
:10265000D4E728466D1C2AF81040C1E700BF019856
:10266000C11904980160202C01DA042000E0002048
:10267000804608E0681E3AF81040202C02D02E2C2C
:1026800000D002E06D1E002DF4D100BF0DB9062070
:10269000B4E700202AF815000B222021D9F81800F1
:1026A00002F05EF9002700E07F1C3AF817002028AE
:1026B000FAD03AF817002E28F6D00FB148F00308E8
:1026C00000E06D1E25B1681E3AF810002E28F8D1E2
:1026D0000020064602904FF0080B00BF38467F1CD2
:1026E0003AF8104004B963E0202C03D02E2C04D11A
:1026F000AF4202D048F00308F0E70298584501D2F3
:10270000AF4214D1BBF10B0F02D148F003084FE0E8
:10271000AF4201D048F00308AF4200D948E02F464D
:10272000082002904FF00B0BB006060ED6E7802C67
:1027300009DB204601F082FA0021009001F040FA06
:10274000044648F00208FF2C11DDABF101000299AC
:10275000884204D848F00308CDF808B0BEE722123A
:10276000D9F818300298411C02911A5419E024B18A
:10277000214629A0FFF748FE18B15F2448F003085E
:102780000FE0412C04DB5A2C02DC46F0020608E084
:10279000612C06DB7A2C04DC46F00106A4F1200053
:1027A00084B2D9F818300298411C02911C5495E764
:1027B00000BFD9F818000078E52803D10520D9F822
:1027C00018100870BBF1080F01D1B006060E06F014
:1027D0000C000C2803D006F00300032801D148F0B8
:1027E000020808F0020058B906F00300012801D1E0
:1027F00048F0100806F00C00042801D148F0080841
:10280000D9F8180080F80B800020F7E6222A3A3C1D
:102810003E3F7C7F000000002B2C3B3D5B5D0000B9
:102820002DE9F04104460E460021204600F0CDF986
:102830000546EDB9002700BF2169206802F09AF82B
:10284000054605B113E060690078E52802D06069AB
:10285000007820B9781C0746B04201D107E0002774
:102860000121204600F07FF80546002DE4D000BF8E
:10287000042D00D107252846BDE8F0812DE9F04759
:1028800004460021204600F0A0F9074617B138465B
:10289000BDE8F0874FF0FF09CA464FF6FF7020846D
:1028A00000BF2169206802F065F8074607B157E0CC
:1028B00065692E780EB9042752E0E87A00F03F08E7
:1028C000E52E05D008F0080040B1B8F10F0F05D093
:1028D0004FF0FF094FF6FF7020843AE0B8F10F0F78
:1028E0001CD1E06978B306F0400030B195F80DA036
:1028F00026F04006B146E08820844E450AD1687B28
:10290000504507D12946E069FFF796FD10B1A9F1BE
:10291000010000E0FF2000F0FF091AE0B9F1000F0C
:1029200005D1284602F042F9504500D118E0A069CF
:10293000C07A00F0010038B90B222846A16901F0E5
:10294000EFFF08B90CE004E04FF0FF094FF6FF700D
:1029500020840021204600F006F80746002FA0D072
:1029600000BF384694E72DE9F04104468846E088E8
:10297000461CB0B208B1206910B90420BDE8F0814E
:1029800021684889C11700EBD1614911B6FBF1F20A
:1029900001FB1261002971D12069401C2061E068AF
:1029A00028B920680089B04268D80420E6E7216889
:1029B0004889C11700EBD1614911B6FBF1F12268DA
:1029C0009278521E1140002958D1E168206801F028
:1029D0004BFC0546012D01D80220CFE7681C08B941
:1029E0000120CBE720684069A84241D8B8F1000F28
:1029F00001D10420C2E7E1682068FFF76DFD0546BC
:102A00000DB90720BAE7012D01D10220B6E7681CF5
:102A100008B90120B2E7206802F03CF908B10120B2
:102A2000ACE721684A8901F13000002101F098FFEC
:102A300029462068FFF7F2FC2168C86200270EE0F3
:102A4000012021680871206802F024F908B10120F2
:102A500094E72068C06A401C2168C8627F1C206817
:102A60008078B842ECD82068C06AC01B2168C86270
:102A7000E56029462068FFF7D1FC2061E6802168E7
:102A80004889C11700EBD1614911B6FBF1F201FB96
:102A900012612268303202EB4111616100206DE762
:102AA0002DE9FE4F0446D4F81880D4F81C900C226F
:102AB0004146684601F047FF00BF9DF80B0000F05B
:102AC000010020B3002088F80B00E06101260CE033
:102AD00033464A466946404601F060FB2046FFF710
:102AE000CDFE054605B102E0761C642EF0D300BF92
:102AF000642E02D10720BDE8FE8F042D01D02846A8
:102B0000F9E79DF80B0088F80B00C4F81C909DF8BD
:102B10000B0000F0020060B1002600E0761C39F8DE
:102B200016000028FAD106F119000D21B0FBF1F7CB
:102B300000E0012739462046FFF772FE054645BBF7
:102B4000781E071E25D0E088C11B204600F03DF806
:102B50000546F5B9A06902F029F8824600BF21694F
:102B6000206801F007FF054605B111E0FAB25346AF
:102B70006169E06901F07CFA012021680871002197
:102B80002046FFF7F0FE054615B9781E071EE6D170
:102B900000BFC5B92169206801F0ECFE054695B972
:102BA00020220021606901F0DBFE0B22D4E905013F
:102BB00001F0C9FEA069C07A00F0180061690873CD
:102BC000012021680871284695E72DE9F041044667
:102BD0000E46E680A568012D03D020684069A84212
:102BE00002D80220BDE8F0812DB9206800780328C2
:102BF00001D12068456A45B920680089B04201D8F2
:102C00000220EFE72068476A24E021684889C1175D
:102C100000EBD16149112268927811FB02F812E0B1
:102C20002946206801F020FB0546681C08B90120F0
:102C3000D8E7022D03D320684069A84201D80220BA
:102C4000D0E7A6EB08064645EAD229462068FFF7FA
:102C5000E5FB0746E5600FB90220C3E72168488914
:102C6000C11700EBD1614911B6FBF1F13944216183
:102C700021684889C11700EBD1614911B6FBF1F217
:102C800001FB12612268303202EB411161610020C8
:102C9000A8E770B50446012514B1012C09D107E05D
:102CA000FEF724FB10B925F0010500E0012502E044
:102CB00001E0012500BF00BF284670BD2DE9F047A7
:102CC00005460E4614464FF0040915B1012D21D1D9
:102CD0001FE0CEB1012E0BD0022E02D0032E14D154
:102CE00003E04FF4007020800FE0012020600CE032
:102CF0000C48D0F850C062460023D0E91271384623
:102D0000FDF760FA206000E000BF00BF4FF000094F
:102D100003E002E04FF0040900BF00BF4846BDE8F1
:102D2000F0870000402500202DE9F047ADF5007D3B
:102D300007460C4615461E464FF0040A4FF00008A1
:102D400017B1012F44D142E004F0030000B34FF06B
:102D5000000913E02A466D1C012369460020FFF795
:102D6000E3FF8146B9F1000F00D00BE04FF4007291
:102D700069462046FDF757FA04F50074301EA6F1A7
:102D80000106E7D100BF48460DF5007DBDE8F0879C
:102D90004FF4007069020A460023CDE90006204680
:102DA000FEF7BEFD8046B8F1000F07D1FEF794FE96
:102DB000804600BFFEF78BFA0028FBD1B8F1000F68
:102DC00002D04FF0040A01E04FF0000A03E002E0F5
:102DD0004FF0040A00BF00BF5046D5E7014601206E
:102DE00011B1012904D102E020F0010002E001E06C
:102DF000012000BF00BF70472DE9F047ADF5007D11
:102E000007460C4616461D464FF0040A4FF00008D0
:102E100025B904200DF5007DBDE8F08717B1012F1D
:102E200041D13FE004F00300E8B14FF0000913E0A6
:102E30004FF4007221466846FDF7F5F93246761CDC
:102E4000012369460020FFF7D7FF8146B9F1000F43
:102E500000D005E004F50074281EA5F10105E7D1B6
:102E600000BF4846D6E74FF4007071020A460023BF
:102E7000CDE900052046FEF7AFFE8046B8F1000F11
:102E800007D1FEF769FE804600BFFEF720FA002852
:102E9000FBD1B8F1000F02D04FF0040A01E04FF06F
:102EA000000A03E002E04FF0040A00BF00BF5046F2
:102EB000B0E770B50546284600F023FD044634B956
:102EC000284601F095FF04460CB9002028602046F2
:102ED00070BD00002DE9F74F90B091461198012880
:102EE00003DD132013B0BDE8F08F10A801F060FAE5
:102EF0000F900F98002801DA0B20F3E7FA490F989A
:102F000051F820500DB90C20ECE7002028700F98E4
:102F1000C0B20C9000200B900C98FFF7BAFE019005
:102F2000019800F0010008B10320DBE7019800F0F0
:102F3000040008B10A20D5E705F10A0202210C9825
:102F4000FFF7BCFE38B96889B0F5805F03DC68899B
:102F5000B0F5007F01DA0120C4E700BF04AA012117
:102F60000C98FFF7ABFE10B90498802801D201201D
:102F7000B8E7119808B1002000E03F20824604988D
:102F8000A0EB0A000490A9F1010000EA090008B1D1
:102F90004FF00009B9F1000F1AD16889C11700EB91
:102FA000D15149124FF4FA6292FBF1F1049AB2FB4B
:102FB000F1F10A914FF0000B01E00BF1010BCB484E
:102FC00030F81B100A988142F7D8C94830F81B9096
:102FD000B9F5007F02D36889B9FBF0F9B9F1000FA8
:102FE00001D14FF00109B9F1800F01D94FF08009EB
:102FF0000498B0FBF9F8012640F6F670804500D33E
:1030000002264FF6F670804500D30326032E0CD11E
:10301000082000EB880069890844401EB0FBF1F7E6
:10302000202003900020029019E0012E05D108EB2A
:103030004800401C4008C01C02E04FEA4800001D48
:10304000074668893844401E6989B0FBF1F70120C2
:10305000039068894FF48041B1FBF0F0029003982F
:1030600050440790079838440690029906980844FF
:10307000059005984844A0EB0A000499884201D9BC
:103080000E202FE709AA03210C98FFF717FE28B995
:10309000099818B10998B0F5004F01D9012009909D
:1030A000099905980844401E491E884309900999CA
:1030B0000598081A0990032E08D109990398084425
:1030C0000390099907980844079001E0099807447C
:1030D000DDE90301081AC11B0298081AB0FBF9F8D0
:1030E000022E03D140F6F670804505D3032E05D19C
:1030F0004FF6F670804501D20E20F3E6032E02D182
:103100000C200D9010E0012E06D10498B0F5803F00
:1031100002D201200D9007E00498B0F5803F01D263
:10312000042000E006200D9000BF119810B1F0209F
:103130000E9043E06A89002105F1300001F010FC97
:1031400005F5F77401206070A0700020E0700D9804
:103150002071FE206071049850443F21B0FBF1F0D3
:10316000FF21B0FBF1F009903F21099841EA90005E
:10317000A0710998E0713F20207200216172A17254
:10318000E172049820730498010A61730498010C99
:10319000A1730498010EE173552185F82E12AA211E
:1031A00085F82F120123002205F130010C98FFF75A
:1031B00023FE08B1012095E6F8200E9005F13004B9
:1031C0006A890021204601F0CBFB0B2249A1204651
:1031D00001F0B9FBB5F80AB084F80BB04FEA1B2137
:1031E000217384F80D900398A0730398010AE1738A
:1031F00001202074032E01D1002001E04FF4007063
:10320000834684F811B04FEA1B21A1740498B0F5ED
:10321000803F05D20498E0740498010A217510E0FB
:10322000049884F820000498C0F307212120015558
:103230000498C0F30741222001550498010E232071
:1032400001550E9860753F20207600216176FF20A1
:10325000A076E17684F81CA04FEA1A2161774FEA44
:103260001A41A1774FEA1A61E17701F09DF80990C0
:10327000032E4BD1099884F843000998C0F3072125
:10328000442001550998C0F307414520015509988C
:10329000010E4620015584F82470C7F3072125202C
:1032A0000155C7F3074126200155390E2720015546
:1032B000022084F82C0000212D2001552E200155DC
:1032C0002F200155012084F83000312001550620BF
:1032D00084F8320033200155802084F840002920F2
:1032E00084F8420013220BE0AC000020304E0008AE
:1032F000464E0008EBFE904D53444F53352E3000A0
:103300008AA104F1470001F01EFB1FE0099884F830
:1033100027000998C0F30721282001550998C0F318
:103320000741292001550998010E2A200155A7754A
:10333000390AE175802084F82400292084F82600C9
:1033400013227FA104F12B0001F0FDFA552084F82F
:10335000FE01AA2140F2FF100155012352462146E9
:103360000C98FFF749FD08B10120BBE5032E06D1FB
:1033700001230AF1060221460C98FFF73DFD07984C
:1033800008904FF0000B5FE06A890021204601F0B1
:10339000E7FA0E980990032E14D0012E01D16D4842
:1033A00001E06FF0FF000999084309900998207027
:1033B0000998000A60700998000CA0700998000E26
:1033C000E07019E0099860F0FF00099009982070FA
:1033D0000998000A60700998000CA0700998000E06
:1033E000E070FF202071FF216171A171E1712072F5
:1033F0006172A1720F21E1720898411C02460123FB
:10340000089121460C98FFF7F7FC08B1012069E507
:103410006A890021204601F0A3FA012009900EE0FC
:103420000898411C02460123089121460C98FFF799
:10343000E3FC08B1012055E50998401C0990099862
:10344000B842EDD30BF1010BBBF1000F9CD0032E62
:1034500001D1484600E00298834600BF0898411C0D
:1034600002460123089121460C98FFF7C5FC08B1DC
:10347000012037E5ABF10100B0F1000BEED1032ED6
:1034800049D15220207060706120A0704120E0700E
:10349000722084F8E401722140F2E51001554121C7
:1034A000401C01556121401C0155A8F1010084F820
:1034B000E801C0F3072140F2E9100155A8F101002D
:1034C000C0F307414FF4F5700155A8F10100010E5A
:1034D00040F2EB100155022084F8EC01002140F28B
:1034E000ED100155401C0155401C0155552084F834
:1034F000FE01AA2140F2FF10015501230AF1010249
:1035000021460C98FFF778FC01230AF107022146B7
:103510000C98FFF771FC002211460C98FFF7CEFBC8
:1035200008B10120DEE40020DCE400004E4F204E14
:10353000414D452020202046415433322020200098
:103540004E4F204E414D4520202020464154202002
:103550002020200000FFFF00F7B582B01646039838
:10356000019001A800F024FF0546002D02DA0B208F
:1035700005B0F0BD0E4850F825400CB10020207079
:10358000029810B10020029908700949029841F888
:103590002500029808B1012E01D00020E8E70022A2
:1035A00003A902A800F078FB07463846E0E70000D0
:1035B000AC0000202DE9F743ADF50C7D054616461D
:1035C00025B909200DF50F7DBDE8F08300202860A6
:1035D00006F01F0626F001028DA983A800F05CFB0F
:1035E0000746002F74D180A88990CDF828D283A8EF
:1035F0008D9900F07DFD0746889C0FB904B9062718
:1036000006F01C0000285CD04FB1042F03D183A822
:10361000FFF746FA074646F00806889C09E0E07A7C
:1036200000F0110008B1072703E006F0040000B124
:103630000827002F55D106F00800002851D000F0CF
:10364000B3FE804684F80E804FEA1821E1734FEAFA
:10365000184121744FEA1861617484F816804FEAAA
:103660001821E1754FEA184121764FEA1861617619
:103670000020E072207700216177A177E177214671
:10368000839800F0BAFE81460021204601F086FAB8
:10369000012083990871B9F1000F22D08398D0F8E6
:1036A0002C804946839801F043FA0746CFB9A9F127
:1036B00001008399C8604146839801F05BF9074691
:1036C0000FE077B9E07A00F0100010B1042708E0AD
:1036D0002DE006F0020020B1E07A00F0010000B118
:1036E000072747B906F0080008B146F0200683987E
:1036F000C06AE8612C62D7B9AE710020E87121463A
:10370000839800F07AFE2861E07F0106A07F41EAFD
:103710000041607F41EA0020217F0843E8600020EB
:10372000A860A861839828602868C088A880384667
:1037300048E72DE9FF4F85B0044615469A46DDF867
:1037400018B00020CAF80000204601F051FB049098
:10375000049818B1049809B0BDE8F08FE07908B179
:10376000E079F8E7A07900F0010008B90720F2E756
:10377000D4E90210401A02900298854200D9029DB5
:10378000BAE021684989A068B0FBF1F201FB1200A0
:10379000002877D121684989A068B0FBF1F0216841
:1037A0008978491E084000F0FF09B9F1000F17D1D0
:1037B000A06810B92069039004E06169206800F0F6
:1037C00053FD03900398022802D20220E071C2E761
:1037D0000398401C10B90120E071BCE703986061B8
:1037E00061692068FEF71AFE064616B90220E071EC
:1037F000B1E74E4420684089B5FBF0F8B8F1000FFE
:103800002DD009EB080021688978884203D9206807
:103810008078A0EB0908216848784346324659462B
:10382000FFF782FA10B10120E07194E7A07900F06F
:10383000400078B1A069801B40450BD2A169891B6B
:1038400023685B8901FB03B021684A8904F12401E4
:1038500001F079F82068408900FB08F742E0A06990
:10386000B04220D0A07900F0400080B121684878B3
:10387000012304F12401A269FFF7BEFA18B1012067
:10388000E07168E710E0A07920F04000A0712168A5
:1038900048780123324604F12401FFF745FA10B1BC
:1038A0000120E07157E7A66121684989A068B0FB53
:1038B000F1F201FB1200216849890F1AAF4200D9C9
:1038C0002F4621684989A068B0FBF1F201FB120183
:1038D00004F1240008443A4601460190584601F09C
:1038E00032F800BFBB44A0683844A060DAF800009A
:1038F0003844CAF80000ED1B002D7FF442AF0020D1
:1039000029E72DE9F0410446204601F071FA074607
:10391000002F4CD1A07900F02000002847D0A079DA
:1039200000F0400078B121684878012304F12401B7
:10393000A269FFF761FA10B10120BDE8F081A0791A
:1039400020F04000A071E169206801F013F80746FB
:10395000002F2CD1256AE87A40F02000E872207B05
:103960002877A089010A6977E068010CA977E068E7
:10397000010EE9772846216901F010F900F014FDE5
:103980000646AE75310AE975310C2976310E697635
:103990000020A8740021E974A07920F02000A07113
:1039A000012021680871206801F010F907463846A7
:1039B000C3E72DE9FF4F83B0044615469B460498A4
:1039C00001900020CBF80000204601F011FA02908F
:1039D000029818B1029807B0BDE8F08FE07908B1FD
:1039E000E079F8E7A07900F0020008B90720F2E7D3
:1039F000A0682844A168884200D20025CFE0216851
:103A00004989A068B0FBF1F201FB120000287ED1C9
:103A100021684989A068B0FBF1F021688978491EC6
:103A2000084000F0FF0ABAF1000F1ED1A06838B9B3
:103A3000276957B900212068FEF74EFD074604E0CC
:103A400061692068FEF748FD074607B9AAE0012F23
:103A500002D10220E071BEE7781C10B90120E071AC
:103A6000B9E76761206900B92761A07900F04000DB
:103A700078B121684878012304F12401A269FFF795
:103A8000BBF910B10120E071A5E7A07920F040005A
:103A9000A07161692068FEF7C1FC064616B90220D4
:103AA000E07198E7564420684089B5FBF0F9B9F118
:103AB000000F31D00AEB090021688978884203D9C8
:103AC00020688078A0EB0A09216848784B46324686
:103AD0000199FFF791F910B10120E0717BE7A0692E
:103AE000801B484511D2A069831B2068B0F80AC02A
:103AF000019803FB0C012068428904F1240000F0C6
:103B000022FFA07920F04000A071206800E017E0BB
:103B1000408900FB09F835E0A069B0420FD0D4E934
:103B2000020188420BD2216848780123324604F111
:103B30002401FFF7F9F810B10120E0714BE7A6610D
:103B400021684989A068B0FBF1F201FB12002168ED
:103B50004989A1EB0008A84500D9A84621684989F0
:103B6000A068B0FBF1F201FB120104F1240008444B
:103B700042460090019900F0E6FEA07940F0400036
:103B8000A07100BF019840440190A0684044A0602B
:103B9000DBF800004044CBF80000A5EB0805002D41
:103BA0007FF42DAF00BFD4E90201884201D9A0689B
:103BB000E060A07940F02000A07100200BE7000039
:103BC0002DE9F04102460F46802A01DA10462FE027
:103BD0001FB1184B45F2205602E0174B45F2205614
:103BE0000025102416E0A6EB050C0CEBDC7805EBA9
:103BF00068014FEA410C33F81CC0944500D10BE03A
:103C00004FEA410C33F81CC0944501DA0D4600E040
:103C10000E46641E002CE6D100BF34B14FF0010CFB
:103C20000CEB410C33F81CC001E04FF0000C604677
:103C3000BDE8F081E0A201085C4E000830B58028A4
:103C400007DA612823DB7A2821DCA0F12005A8B25D
:103C50001DE00C2200234FF4F77400BFE51A03EBBC
:103C600055010B4D35F81150854200D10AE0084D41
:103C700035F81150854201DA0B4600E00C46551E1E
:103C80002A1EEBD100BF12B1024D35F8110030BD34
:103C900064F7020840FB02082DE9F74F8AB00021C3
:103CA0000A9801600B9800F083FB0990099800289E
:103CB00003DA0B200DB0BDE8F08FE949099851F8FF
:103CC00020400CB90C20F5E70A980460207878B100
:103CD0006078FFF783F8814609F0010040B90C983D
:103CE00020B109F0040008B10A20E3E70020E1E771
:103CF00000202070099860706078FEF7CAFF814646
:103D000009F0010008B10320D4E70C9820B109F0B4
:103D1000040008B10A20CDE7607804F10A0202210C
:103D2000FEF7CCFF38B96089B0F5007F03DB60890E
:103D3000B0F5805F01DD0120BCE700273946204651
:103D4000FEF71AFB0546012D01D09DBB32E000268F
:103D50001AE004F5F77000EB061898F8040070B14B
:103D600098F80B00010698F80A0041EA004198F81B
:103D7000090041EA002098F80810084300E00020FC
:103D800002A941F82600761C042EE2D3002606B1D3
:103D9000761E00BF02A850F8267027B1394620468B
:103DA000FEF7EAFA00E0022005461DB1701C064647
:103DB0000428EFD3032D01D101207BE70DB10D20A5
:103DC00078E73B20015D94F83C0041EA00206189DE
:103DD000884201D00D206DE74620015D94F8470030
:103DE00041EA002ABAF1000F0ED194F857000106FB
:103DF00094F8560041EA004194F8550041EA002049
:103E000094F8541040EA010AC4F818A04020005D5C
:103E1000E070E078012804D0E078022801D00D207D
:103E200048E7E0780AFB00FA3D20005DA070A0782A
:103E300018B1A078411E084008B10D203AE7412092
:103E4000015D94F8420041EA002020816089C11799
:103E500000EBD1614911228992FBF1F301FB13219F
:103E600009B10D2026E74320015D94F8440041EAA2
:103E700000200890089870B994F85300010694F84F
:103E8000520041EA004194F8510041EA002094F8C0
:103E90005010084308903E20015D94F83F0041EA2D
:103EA00000200190019808B90D2003E76089C1172F
:103EB00000EBD1614911228992FBF1F20199514441
:103EC00011440791DDE90710884201D20D20F1E687
:103ED000DDE90710401AA178B0FBF1FBBBF1000F40
:103EE00001D10D20E6E6012540F6F670834500D3AA
:103EF00002254FF6F670834500D303250BF102002F
:103F00006061E76101983844206207983844A062F4
:103F1000032D16D1208908B10D20CBE694F85F005F
:103F2000010694F85E0041EA004194F85D0041EA20
:103F3000002094F85C10084360626069800006907D
:103F400014E0208908B90D20B4E6206A504460626C
:103F5000022D02D16069400007E0207D00F00100E1
:103F6000616901EB410100EB510006906089401E40
:103F7000069908446189B0FBF1F0A169884201D932
:103F80000D2097E64FF0FF302061E06080206071E7
:103F9000032D5AD194F8601094F8610041EA002092
:103FA000012852D1791C204600F0E4FCE8BB002037
:103FB000607194F82E1294F82F0241EA00204AF61C
:103FC0005521884241D13320005D01063220005D39
:103FD00041EA00413120005D41EA002094F83010B0
:103FE00008432049884230D194F81702010694F81A
:103FF000160241EA004194F8150241EA002094F8C3
:1040000014120843184988421FD194F81B02010674
:1040100094F81A0241EA004194F8190241EA00209A
:1040200094F818120843206100E00EE094F81F0293
:10403000010694F81E0241EA004194F81D0241EA8B
:10404000002094F81C120843E0602570074800889F
:10405000401C80B205490880E08000202AE600006C
:10406000AC0000205252614172724161B4000020E4
:10407000F0B504461D464D730F27CF7200270F730E
:104080008F76BC4681F81BC0571E07EB870C0CEBE4
:10409000C706002738463B4600BF4FF6FF77B842B9
:1040A00003D03746761C34F81700DFF840C01CF800
:1040B00003C001F80C000712DFF830C01CF803C081
:1040C0008C448CF8017008B94FF6FF705F1C3B46BA
:1040D0000D2FE2D34FF6FF77B84202D034F81670B6
:1040E0000FB942F040020A70F0BD0000224E0008F5
:1040F0002DE9F3410446019800782F2803D0019858
:1041000000785C2802D10198401C01900020A0603A
:1041100001980078202807D200212046FEF755FD9F
:1041200005460020606128E000BF01A92046FEF797
:104130003FFA054605B11FE02046FEF79FFB054606
:10414000A069C67A3DB1042D04D100BF06F0040079
:1041500000B9052510E006F0040000B10CE0676925
:10416000F87A00F0100008B9052505E03946206806
:1041700000F043F9A060D8E700BF2846BDE8FC8105
:1041800000BF054A128802F04002002AF9D0C2B2EC
:10419000014B9A8070470000001001402DE9FF4F4D
:1041A00083B0074691461E460B223846049900F01C
:1041B000CAFB052E19D9B04612E039F802BB00251A
:1041C0000CE0584668F35F0080464FEA6B0B08F43A
:1041D000803010B1234888EA00086D1C102DF0D300
:1041E000B9F800000028E8D14646072500BF06F0D0
:1041F0000F0000F1300ABAF1390F03DD0AF10700B0
:1042000000F0FF0A28466D1E01A901F800A036093A
:10421000002EECD17E20485500240BE0385D81282B
:1042200007DB385DFE2804DC681EA04200D106E0F2
:10423000641C641CAC4202D2385D2028EED100BF61
:1042400000BF082D04D228466D1C01A9095C00E0BE
:1042500020212046641C3954082CF2D307B0BDE855
:10426000F08F0000211001002DE9F05F04460D469B
:10427000022D02D36069A84202D84FF001098FE0F5
:104280004FF0FF392078012804D002283CD00328C1
:104290007ED157E02F4607EB57076089B7FBF0F058
:1042A000216A00EB010A5146204600F063FB00B191
:1042B00075E038467F1C6189B0FBF1F201FB120109
:1042C00004F1300010F801806089B7FBF0F0216A3A
:1042D00000EB010A5146204600F04CFB00B15EE0C5
:1042E0006089B7FBF0F100FB117104F13000405C14
:1042F00048EA002805F0010010B14FEA181001E06B
:10430000C8F30B0081464AE0B4F80AA00AEBDA7061
:104310004010B5FBF0F0216A00EB010B5946204636
:1043200000F028FB00B13AE068006189B0FBF1F2CF
:1043300001FB120104F130000E183078717840EA68
:1043400001292CE0B4F80AA04FEAEA700AEB907059
:104350008010B5FBF0F0216A00EB010B59462046B6
:1043600000F008FB00B11AE0A8006189B0FBF1F28F
:1043700001FB120104F130000E18F0780006B1784C
:1043800040EA0140717840EA01203178084300E0BA
:1043900002E020F0704902E04FF0010900BF00BFC9
:1043A0004846BDE8F09F00000048704700002146E5
:1043B00070B502464FF0FF301568E5B1116800E0B6
:1043C000491C0D78202D02D30D783A2DF8D10D78A7
:1043D0003A2D0FD1146814F8015BA5F130030A2BB4
:1043E00007D28C4205D1022B03D218464D1C294618
:1043F000156070BD002000BFFBE710B502468C7E43
:10440000CB7E44EA03201378032B05D10C7D4B7D32
:1044100044EA032340EA034010BD0000FDF744FFD7
:10442000FDF772FFFDF72CFF00F05DFC2020FDF78B
:1044300090FF5DA0FDF728FE012269A16948FFF702
:104440008BF869490870084600780D2826D167A0C6
:10445000FDF71AFE0022114661A0FEF73BFD6249FE
:1044600008700846007888B96FA0FDF70DFE01229C
:104470005BA10020FFF770F85B490870012258A18A
:104480005848FFF769F85849087017E04020FDF7D1
:1044900060FF71A0FDF7F8FD00BFFEE7524800780D
:1044A00048B15148017875A0FDF7EEFD7FA0FDF7FA
:1044B000EBFD00BFFEE78AA0FDF7E6FD97A0FDF744
:1044C000E3FD0A22A2A1AA48FFF774F84649087042
:1044D00008460078002820D1A648FDF7D5FDA64B58
:1044E0005F22A649A248FFF764FA3F4908700846D0
:1044F000007848B9A0480168A1A0FDF7C5FD9F4913
:10450000ACA0FDF7C1FD04E037480178B4A0FDF789
:10451000BBFD9748FEF7CDFC05E02020FDF712FF1C
:10452000B8A0FDF7B1FDC1A0FDF7AEFD012288A145
:104530008F48FFF73FF82C4908700846007800289C
:1045400021D14020FDF705FFC5A0FDF79DFD8A4B59
:104550004FF48062C9498648FFF7EBF8224908709A
:104560000846007848B984480168C5A0FDF78CFD6D
:10457000C249CFA0FDF788FD0BE01B480178D7A00A
:10458000FDF782FD05E02020FDF7DCFEDCA0FDF755
:104590007BFD7748FEF78DFC012211A10020FEF77C
:1045A000DBFF00BFFEE700000D0A2A2A2A2A2A2A7A
:1045B00020E8BF99E698AFE4B880E4B8AA5344E590
:1045C0008DA120E69687E4BBB6E7B3BBE7BB9FE5CA
:1045D000AE9EE9AA8C202A2A2A2A2A2A0D0A00003D
:1045E000303A0000B800002000000020E3808B5328
:1045F00044E58DA1E8BF98E6B2A1E69C89E69687DE
:10460000E4BBB6E7B3BBE7BB9FEFBC8CE58DB3E57E
:10461000B086E8BF9BE8A18CE6A0BCE5BC8FE58C2A
:10462000962E2E2E0D0A0000E3808B5344E58DA1BB
:10463000E5B7B2E68890E58A9FE6A0BCE5BC8FE5C9
:104640008C96E69687E4BBB6E7B3BBE7BB9FE380F7
:10465000825C720A00000000E3808AE3808AE6A0A0
:10466000BCE5BC8FE58C96E5A4B1E8B4A5E38082F7
:10467000E3808BE3808B5C720A000000EFBC81EF6B
:10468000BC815344E58DA1E68C82E8BDBDE69687EA
:10469000E4BBB6E7B3BBE7BB9FE5A4B1E8B4A5E3D1
:1046A0008082282564290D0A00000000EFBC81EFFC
:1046B000BC81E58FAFE883BDE58E9FE59BA0EFBC95
:1046C0009A5344E58DA1E5889DE5A78BE58C96E49A
:1046D000B88DE68890E58A9FE380825C720A0000CC
:1046E000E3808BE69687E4BBB6E7B3BBE7BB9FE608
:1046F0008C82E8BDBDE68890E58A9FEFBC8CE58F93
:10470000AFE4BBA5E8BF9BE8A18CE8AFBBE5869909
:10471000E6B58BE8AF950D0A000000000D0A2A2AC5
:104720002A2A2A2A20E58DB3E5B086E8BF9BE8A1B6
:104730008CE69687E4BBB6E58699E585A5E6B58B5C
:10474000E8AF952E2E2E202A2A2A2A2A2A0D0A0080
:10475000303A4661744673E8AFBBE58699E6B58B9F
:10476000E8AF95E69687E4BBB62E74787400000037
:10477000E81000201CFF02080400002008000020B0
:10478000E3808BE69687E4BBB6E58699E585A5E6EA
:104790008890E58A9FEFBC8CE58699E585A5E5AD17
:1047A00097E88A82E695B0E68DAEEFBC9A25640A5A
:1047B00000000000E3808BE59091E69687E4BBB6AD
:1047C000E58699E585A5E79A84E695B0E68DAEE4A1
:1047D000B8BAEFBC9A5C720A25730D0A000000009B
:1047E000EFBC81EFBC81E69687E4BBB6E58699E530
:1047F00085A5E5A4B1E8B4A5EFBC9A282564290AEB
:1048000000000000EFBC81EFBC81E68993E5BC802D
:104810002FE5889BE5BBBAE69687E4BBB6E5A4B175
:10482000E8B4A5E380825C720A0000002A2A2A2AE2
:104830002A2A20E58DB3E5B086E8BF9BE8A18CE687
:104840009687E4BBB6E8AFBBE58F96E6B58BE8AFDD
:10485000952E2E2E202A2A2A2A2A2A0D0A00000006
:10486000E3808BE68993E5BC80E69687E4BBB6E6F9
:104870008890E58A9FE380825C720A000C21002008
:10488000E3808BE69687E4BBB6E8AFBBE58F96E6A0
:104890008890E58A9F2CE8AFBBE588B0E5AD97E846
:1048A0008A82E695B0E68DAEEFBC9A25640D0A00CB
:1048B000E3808BE8AFBBE58F96E5BE97E79A84E689
:1048C0009687E4BBB6E695B0E68DAEE4B8BAEFBC29
:1048D0009A5C720A2573200D0A000000EFBC81EF7C
:1048E000BC81E69687E4BBB6E8AFBBE58F96E5A44E
:1048F000B1E8B4A5EFBC9A282564290A000000009D
:10490000EFBC81EFBC81E68993E5BC80E69687E445
:10491000BBB6E5A4B1E8B4A5E380825C720A0000EE
:10492000F0B503461C460D46002000BF161EA2F13E
:10493000010207D014F8017B15F801CBA7EB0C0698
:10494000301EF3D0F0BD70B503460C4603E014F8FA
:10495000015B03F8015B151EA2F10102F7D170BDE6
:1049600030B5034601E003F8011B141EA2F1010259
:10497000F9D130BD70B504460D460026E06AA84264
:1049800010D0204600F086F906465EB96078012313
:104990002A4604F13001FEF7C7F910B14FF0FF3598
:1049A0000126E562304670BD2DE9F05F04460E46F3
:1049B0001746022E02D36069B04202D84FF00208B7
:1049C000B3E02078012804D0022852D0032872D105
:1049D00072E0B14609EB59096089B9FBF0F0216A30
:1049E00000EB010A51462046FFF7C4FF8046B8F1AC
:1049F000000F00D098E0484609F101096189B0FB39
:104A0000F1F201FB120104F130000D1806F0010073
:104A100020B1F9B2287861F31F1000E03846287001
:104A2000012020716089B9FBF0F0216A00EB010AD6
:104A300051462046FFF79EFF8046B8F1000F00D098
:104A400072E06089B9FBF0F100FB119104F13000D4
:104A50000D1806F0010010B1C7F3071005E0287823
:104A600000F0F000C7F303210843287001202071F3
:104A70005AE0B4F80AA00AEBDA704010B6FBF0F086
:104A8000216A00EB010B59462046FFF773FF804671
:104A9000B8F1000F00D047E070006189B0FBF1F27F
:104AA00001FB120104F130000D182F70380A6870F4
:104AB0000120207138E034E0B4F80AA04FEAEA702F
:104AC0000AEB90708010B6FBF0F0216A00EB010B4E
:104AD00059462046FFF74EFF8046B8F1000F00D040
:104AE00022E0B0006189B0FBF1F201FB120104F198
:104AF00030000D18E8780006A97840EA014069788E
:104B000040EA01202978084300F0704007432F70E5
:104B1000380A6870380CA870380EE87001202071CF
:104B200002E04FF0020800BF00BF4046BDE8F09F22
:104B30002DE9F04104460E46022E02D36069B042D0
:104B400001D8022727E0002721E031462046FFF761
:104B50008BFB054605B91DE0012D01D1022719E0A7
:104B6000681C08B9012715E0002231462046FFF7EE
:104B70001BFF074607B10DE02069401C30B12069DA
:104B8000401C2061607940F0010060712E46606930
:104B9000B042DAD800BF3846BDE8F08181760B0A12
:104BA000C3760A0C02750B0E4375704730B501468B
:104BB00000200B2200BF431003EBC01411F8015B6F
:104BC0006319D8B2531E1A1EF5D130BD70B5044614
:104BD000204600F05FF80546002D59D120780328C3
:104BE0004FD1607901284CD16289002104F1300055
:104BF000FFF7B6FE552184F82E12AA2184F82F1251
:104C0000522084F830005221312001556121322098
:104C10000155412133200155722184F8141284F882
:104C20001512412184F81612612184F81712217C93
:104C300084F81812208A010A84F819122069010CDC
:104C400084F81A122069010E84F81B12217B84F863
:104C50001C12A089010A84F81D12E068010C84F876
:104C60001E12E068010E84F81F12E069401CE06229
:104C70006078012304F13001E26AFEF7BDF80020FC
:104C80006071607800221146FEF718F800B1012526
:104C9000284670BD2DE9F041044600272079F8B17F
:104CA000E56A607801232A4604F13001FEF7A4F892
:104CB00008B1012714E000202071206A281AA16998
:104CC00088420DD2E67809E0A069054460780123A6
:104CD0002A4604F13001FEF78FF8761E022EF3D239
:104CE0003846BDE8F08110B500F05AF800F032F80F
:104CF00000F002F810BD000008B54FF4407101F05B
:104D00000702114B18684FF6FF0318400F4B03437F
:104D100043EA02200C4B186000BF002000902520C1
:104D20008DF8000000208DF801008DF802000120B0
:104D30008DF803006846FBF7A3FE012240F22551DF
:104D40000348FDF706F908BD0CED00E00000FA0588
:104D5000001001401FB501211020FBF7E9FE0020E3
:104D600000900190029003904FF4E13000900020F9
:104D7000ADF80400ADF80600ADF808000C20ADF861
:104D80000A000020ADF80C0069460448FDF706F95A
:104D900001210248FDF7A7F81FBD000000100140E7
:104DA0001CB501210846FBF7B3FE002000900190DE
:104DB0004FF4C060009002208DF804008DF80500CB
:104DC00000208DF8060001208DF80700694607488D
:104DD000FBF7E0FD072209210448FBF723FE072229
:104DE0000A210248FBF71EFE1CBD00000000024025
:104DF00070B505462C4684B1206870B120680078F3
:104E000058B12068C088A188884206D121684878B6
:104E1000FDF7E4FF00F0010008B1092070BD00209B
:104E2000FCE701030507090E10121416181C1E00DA
:104E30000004000200018000400020001000080073
:104E40000400020000000080004000200010000864
:104E5000004000200010000800040002A400E8A1A7
:104E6000A700ECA1A800A7A1B000E3A1B100C0A1D8
:104E7000B700A4A1D700C1A1E000A4A8E100A2A8A6
:104E8000E800A8A8E900A6A8EA00BAA8EC00ACA827
:104E9000ED00AAA8F200B0A8F300AEA8F700C2A1E6
:104EA000F900B4A8FA00B2A8FC00B9A80101A1A8B1
:104EB0001301A5A81B01A7A82B01A9A84401BDA8FF
:104EC0004801BEA84D01ADA86B01B1A8CE01A3A8B1
:104ED000D001ABA8D201AFA8D401B3A8D601B5A820
:104EE000D801B6A8DA01B7A8DC01B8A85102BBA85E
:104EF0006102C0A8C702A6A1C902A5A1CA0240A812
:104F0000CB0241A8D90242A89103A1A69203A2A66E
:104F10009303A3A69403A4A69503A5A69603A6A609
:104F20009703A7A69803A8A69903A9A69A03AAA6D9
:104F30009B03ABA69C03ACA69D03ADA69E03AEA6A9
:104F40009F03AFA6A003B0A6A103B1A6A303B2A678
:104F5000A403B3A6A503B4A6A603B5A6A703B6A645
:104F6000A803B7A6A903B8A6B103C1A6B203C2A6F7
:104F7000B303C3A6B403C4A6B503C5A6B603C6A6A9
:104F8000B703C7A6B803C8A6B903C9A6BA03CAA679
:104F9000BB03CBA6BC03CCA6BD03CDA6BE03CEA649
:104FA000BF03CFA6C003D0A6C103D1A6C303D2A618
:104FB000C403D3A6C503D4A6C603D5A6C703D6A6E5
:104FC000C803D7A6C903D8A60104A7A71004A1A7A0
:104FD0001104A2A71204A3A71304A4A71404A5A74D
:104FE0001504A6A71604A8A71704A9A71804AAA71A
:104FF0001904ABA71A04ACA71B04ADA71C04AEA7E9
:105000001D04AFA71E04B0A71F04B1A72004B2A7B8
:105010002104B3A72204B4A72304B5A72404B6A788
:105020002504B7A72604B8A72704B9A72804BAA758
:105030002904BBA72A04BCA72B04BDA72C04BEA728
:105040002D04BFA72E04C0A72F04C1A73004D1A7E9
:105050003104D2A73204D3A73304D4A73404D5A78C
:105060003504D6A73604D8A73704D9A73804DAA759
:105070003904DBA73A04DCA73B04DDA73C04DEA728
:105080003D04DFA73E04E0A73F04E1A74004E2A7F8
:105090004104E3A74204E4A74304E5A74404E6A7C8
:1050A0004504E7A74604E8A74704E9A74804EAA798
:1050B0004904EBA74A04ECA74B04EDA74C04EEA768
:1050C0004D04EFA74E04F0A74F04F1A75104D7A752
:1050D00010205CA9132043A81420AAA1152044A8DD
:1050E0001620ACA11820AEA11920AFA11C20B0A1A0
:1050F0001D20B1A1252045A82620ADA13020EBA17F
:105100003220E4A13320E5A1352046A83B20F9A1B7
:10511000AC2080000321E6A1052147A8092148A869
:105120001621EDA1212159A96021F1A26121F2A24C
:105130006221F3A26321F4A26421F5A26521F6A203
:105140006621F7A26721F8A26821F9A26921FAA2D3
:105150006A21FBA26B21FCA27021A1A27121A2A253
:105160007221A3A27321A4A27421A5A27521A6A2D3
:105170007621A7A27721A8A27821A9A27921AAA2A3
:105180009021FBA19121FCA19221FAA19321FDA1E3
:10519000962149A897214AA898214BA899214CA863
:1051A0000822CAA10F22C7A11122C6A115224DA80B
:1051B0001A22CCA11D22D8A11E22DEA11F224EA898
:1051C0002022CFA123224FA82522CEA12722C4A18D
:1051D0002822C5A12922C9A12A22C8A12B22D2A1F5
:1051E0002E22D3A13422E0A13522DFA13622C3A191
:1051F0003722CBA13D22D7A14822D6A14C22D5A14E
:10520000522250A86022D9A16122D4A16422DCA13B
:105210006522DDA1662251A8672252A86E22DAA17A
:105220006F22DBA1952292A89922D1A1A522CDA11E
:10523000BF2253A81223D0A16024D9A26124DAA2EC
:105240006224DBA26324DCA26424DDA26524DEA246
:105250006624DFA26724E0A26824E1A26924E2A216
:105260007424C5A27524C6A27624C7A27724C8A236
:105270007824C9A27924CAA27A24CBA27B24CCA206
:105280007C24CDA27D24CEA27E24CFA27F24D0A2D6
:105290008024D1A28124D2A28224D3A28324D4A2A6
:1052A0008424D5A28524D6A28624D7A28724D8A276
:1052B0008824B1A28924B2A28A24B3A28B24B4A2E6
:1052C0008C24B5A28D24B6A28E24B7A28F24B8A2B6
:1052D0009024B9A29124BAA29224BBA29324BCA286
:1052E0009424BDA29524BEA29624BFA29724C0A256
:1052F0009824C1A29924C2A29A24C3A29B24C4A226
:105300000025A4A90125A5A90225A6A90325A7A9C9
:105310000425A8A90525A9A90625AAA90725ABA999
:105320000825ACA90925ADA90A25AEA90B25AFA969
:105330000C25B0A90D25B1A90E25B2A90F25B3A939
:105340001025B4A91125B5A91225B6A91325B7A909
:105350001425B8A91525B9A91625BAA91725BBA9D9
:105360001825BCA91925BDA91A25BEA91B25BFA9A9
:105370001C25C0A91D25C1A91E25C2A91F25C3A979
:105380002025C4A92125C5A92225C6A92325C7A949
:105390002425C8A92525C9A92625CAA92725CBA919
:1053A0002825CCA92925CDA92A25CEA92B25CFA9E9
:1053B0002C25D0A92D25D1A92E25D2A92F25D3A9B9
:1053C0003025D4A93125D5A93225D6A93325D7A989
:1053D0003425D8A93525D9A93625DAA93725DBA959
:1053E0003825DCA93925DDA93A25DEA93B25DFA929
:1053F0003C25E0A93D25E1A93E25E2A93F25E3A9F9
:105400004025E4A94125E5A94225E6A94325E7A9C8
:105410004425E8A94525E9A94625EAA94725EBA998
:105420004825ECA94925EDA94A25EEA94B25EFA968
:10543000502554A8512555A8522556A8532557A89C
:10544000542558A8552559A856255AA857255BA86C
:1054500058255CA859255DA85A255EA85B255FA83C
:105460005C2560A85D2561A85E2562A85F2563A80C
:10547000602564A8612565A8622566A8632567A8DC
:10548000642568A8652569A866256AA867256BA8AC
:1054900068256CA869256DA86A256EA86B256FA87C
:1054A0006C2570A86D2571A86E2572A86F2573A84C
:1054B000702574A8712575A8722576A8732577A81C
:1054C000812578A8822579A883257AA884257BA8B8
:1054D00085257CA886257DA887257EA8882580A887
:1054E000892581A88A2582A88B2583A88C2584A854
:1054F0008D2585A88E2586A88F2587A8932588A821
:10550000942589A895258AA8A025F6A1A125F5A10D
:10551000B225F8A1B325F7A1BC258BA8BD258CA881
:10552000C625F4A1C725F3A1CB25F0A1CE25F2A174
:10553000CF25F1A1E2258DA8E3258EA8E4258FA82B
:10554000E52590A80526EFA10626EEA1092691A83B
:105550004026E2A14226E1A10030A1A10130A2A192
:105560000230A3A10330A8A10530A9A1063065A986
:10557000073096A90830B4A10930B5A10A30B6A108
:105580000B30B7A10C30B8A10D30B9A10E30BAA1C3
:105590000F30BBA11030BEA11130BFA1123093A8B3
:1055A0001330FEA11430B2A11530B3A11630BCA146
:1055B0001730BDA11D3094A81E3095A8213040A9F8
:1055C000223041A9233042A9243043A9253044A9DF
:1055D000263045A9273046A9283047A9293048A9AF
:1055E0004130A1A44230A2A44330A3A44430A4A4D7
:1055F0004530A5A44630A6A44730A7A44830A8A4A7
:105600004930A9A44A30AAA44B30ABA44C30ACA476
:105610004D30ADA44E30AEA44F30AFA45030B0A446
:105620005130B1A45230B2A45330B3A45430B4A416
:105630005530B5A45630B6A45730B7A45830B8A4E6
:105640005930B9A45A30BAA45B30BBA45C30BCA4B6
:105650005D30BDA45E30BEA45F30BFA46030C0A486
:105660006130C1A46230C2A46330C3A46430C4A456
:105670006530C5A46630C6A46730C7A46830C8A426
:105680006930C9A46A30CAA46B30CBA46C30CCA4F6
:105690006D30CDA46E30CEA46F30CFA47030D0A4C6
:1056A0007130D1A47230D2A47330D3A47430D4A496
:1056B0007530D5A47630D6A47730D7A47830D8A466
:1056C0007930D9A47A30DAA47B30DBA47C30DCA436
:1056D0007D30DDA47E30DEA47F30DFA48030E0A406
:1056E0008130E1A48230E2A48330E3A48430E4A4D6
:1056F0008530E5A48630E6A48730E7A48830E8A4A6
:105700008930E9A48A30EAA48B30EBA48C30ECA475
:105710008D30EDA48E30EEA48F30EFA49030F0A445
:105720009130F1A49230F2A49330F3A49B3061A99C
:105730009C3062A99D3066A99E3067A9A130A1A5C1
:10574000A230A2A5A330A3A5A430A4A5A530A5A5E9
:10575000A630A6A5A730A7A5A830A8A5A930A9A5B9
:10576000AA30AAA5AB30ABA5AC30ACA5AD30ADA589
:10577000AE30AEA5AF30AFA5B030B0A5B130B1A559
:10578000B230B2A5B330B3A5B430B4A5B530B5A529
:10579000B630B6A5B730B7A5B830B8A5B930B9A5F9
:1057A000BA30BAA5BB30BBA5BC30BCA5BD30BDA5C9
:1057B000BE30BEA5BF30BFA5C030C0A5C130C1A599
:1057C000C230C2A5C330C3A5C430C4A5C530C5A569
:1057D000C630C6A5C730C7A5C830C8A5C930C9A539
:1057E000CA30CAA5CB30CBA5CC30CCA5CD30CDA509
:1057F000CE30CEA5CF30CFA5D030D0A5D130D1A5D9
:10580000D230D2A5D330D3A5D430D4A5D530D5A5A8
:10581000D630D6A5D730D7A5D830D8A5D930D9A578
:10582000DA30DAA5DB30DBA5DC30DCA5DD30DDA548
:10583000DE30DEA5DF30DFA5E030E0A5E130E1A518
:10584000E230E2A5E330E3A5E430E4A5E530E5A5E8
:10585000E630E6A5E730E7A5E830E8A5E930E9A5B8
:10586000EA30EAA5EB30EBA5EC30ECA5ED30EDA588
:10587000EE30EEA5EF30EFA5F030F0A5F130F1A558
:10588000F230F2A5F330F3A5F430F4A5F530F5A528
:10589000F630F6A5FC3060A9FD3063A9FE3064A99E
:1058A0000531C5A80631C6A80731C7A80831C8A860
:1058B0000931C9A80A31CAA80B31CBA80C31CCA830
:1058C0000D31CDA80E31CEA80F31CFA81031D0A800
:1058D0001131D1A81231D2A81331D3A81431D4A8D0
:1058E0001531D5A81631D6A81731D7A81831D8A8A0
:1058F0001931D9A81A31DAA81B31DBA81C31DCA870
:105900001D31DDA81E31DEA81F31DFA82031E0A83F
:105910002131E1A82231E2A82331E3A82431E4A80F
:105920002531E5A82631E6A82731E7A82831E8A8DF
:105930002931E9A82032E5A22132E6A22232E7A2EB
:105940002332E8A22432E9A22532EAA22632EBA2CF
:105950002732ECA22832EDA22932EEA231325AA926
:10596000A33249A98E334AA98F334BA99C334CA942
:105970009D334DA99E334EA9A1334FA9C43350A9DD
:10598000CE3351A9D13352A9D23353A9D53354A917
:10599000004EBBD2014EA1B6024E4081034EDFC67F
:1059A000044E4181054E4281064E4381074EF2CDA1
:1059B000084EC9D5094EFDC80A4ECFC90B4EC2CFFD
:1059C0000C4EA2D80D4EBBB20E4EEBD30F4E4481FF
:1059D000104EA4D8114EF3B3124E4581134EA8D7E2
:1059E000144ED2C7154EA7D8164EC0CA174E4681C0
:1059F000184EF0C7194EFBB11A4EB5D21B4ED4B497
:105A00001C4EABB61D4EBFCB1E4EA9D81F4E4781B4
:105A1000204E4881214E4981224EAAB6234E4A810A
:105A2000244EBDC1254ECFD1264E4B81274EA5C950
:105A3000284EADD8294E4C812A4EF6B82B4EBED1F9
:105A40002C4EDCE32D4ED0D62E4E4D812F4E4E8166
:105A5000304EE1B7314E4F81324EAEB4334E5081AD
:105A6000344ED9C1354E5181364EBCD8374E528155
:105A7000384EE8CD394EA4B53A4EAACE3B4EF7D6B5
:105A80003C4E53813D4EF6C03E4ED9BE3F4EAFD840
:105A9000404E5481414E5581424E5681434ECBC4B7
:105AA000444E5781454EC3BE464E5881474EB1D8ED
:105AB000484EB4C3494EE5D24A4E59814B4EAED6FC
:105AC0004C4EDACE4D4EA7D54E4EF5BA4F4EA6B738
:105AD000504ED6C0514E5A81524EB9C6534ED2C5C1
