:020000040800F2
:10000000D8040020A101000805050008210300080C
:1000100001050008390200082F0A0008000000004E
:10002000000000000000000000000000CD060008F5
:100030003D0200080000000081050008BD0700081F
:10004000BB010008BB010008BB010008BB010008A0
:10005000BB010008BB010008BB010008BB01000890
:10006000BB010008BB010008BB010008BB01000880
:10007000BB010008BB010008BB010008BB01000870
:10008000BB010008BB010008BB010008BB01000860
:10009000BB010008BB010008BB010008BB01000850
:1000A000BB010008BB010008BB010008BB01000840
:1000B000BB010008BB010008BB010008BB01000830
:1000C000BB010008BB010008BB010008BB01000820
:1000D000BB01000845080008BB010008BB0100087F
:1000E000BB010008BB010008BB010008BB01000800
:1000F000BB010008BB010008BB010008BB010008F0
:10010000BB010008BB010008BB010008BB010008DF
:10011000BB010008BB010008BB010008BB010008CF
:10012000BB010008BB010008BB010008BB010008BF
:10013000BB010008BB010008BB010008BB010008AF
:10014000BB010008BB010008BB010008BB0100089F
:10015000BB010008BB010008BB010008BB0100088F
:10016000BB010008BB010008BB010008BB0100087F
:10017000BB010008BB010008BB010008BB0100086F
:10018000BB010008BB010008DFF810D000F042F806
:10019000004800476D110008AFF30080D80400202C
:1001A0000648804706480047FEE7FEE7FEE7FEE711
:1001B000FEE7FEE7FEE7FEE7FEE7FEE7DD070008F5
:1001C00089010008D2B201E000F8012B491EFBD2E0
:1001D00070470022F6E710B513460A460446194652
:1001E000FFF7F0FF204610BD30B50B46014600205A
:1001F0002022012409E021FA02F59D4205D303FAE9
:1002000002F5491B04FA02F52844151EA2F1010269
:10021000F1DC30BD064C074D06E0E06840F001031C
:1002200094E8070098471034AC42F6D3FFF7B0FFCC
:10023000AC130008CC13000800BFFEE77047F0B510
:100240000A4600210023002400BF3DE0012505FAF5
:1002500001F3156805EA03049C4234D105684F0098
:100260000326BE40B543056015794E00B5400668CB
:10027000354305601579012D02D01579022D16D16F
:1002800085684F000326BE40B543856055794E0012
:10029000B540866835438560456801268E40B54384
:1002A0004560456896798E40B6B235434560C5686D
:1002B0004F000326BE40B543C560D5794E00B5401A
:1002C000C6683543C560491C1029BFD3F0BDF0B5E1
:1002D000002300244D07ED0E02FA05F3CE1000F1C5
:1002E000200555F826504E07F70E0F26BE40B543A1
:1002F000CF1000F1200646F82750CE1000F120055F
:1003000055F8265045EA0304CE1000F1200545F8C3
:100310002640F0BD0AB1816101E00B0483617047A2
:1003200000BFFEE721B1028842F48062028004E04F
:1003300002884FF6FF331A400280704770B50246BC
:100340000025002300240026938A03F0020010B940
:1003500023F0100008B1148B01E0002070BD2404CC
:1003600043EA040020F07F4505EA0100884201D1FC
:10037000012600E000263046F0E721B1028842F075
:100380000102028004E002884FF6FE731A400280E8
:10039000704721B1028842F48072028004E0028832
:1003A0004FF6FF631A400280704721B1028842F481
:1003B0000072028004E002884FF6FF531A40028068
:1003C00070470CB502460020002301930093009271
:1003D0000B0F019321F07F41019B1BB1009B143354
:1003E000009303E0090C009B18330093009B1B68EB
:1003F0000B400BB1012000E000200CBD2DE9FF47B0
:1004000004460D460026B1460427DFF8CC80A688B6
:100410004FF6C0700640684600F0E4F8DDF808804A
:100420002E48B8FBF0F01FFA80F946EA0906A680CC
:1004300020884FF6FE710840208000262849286851
:1004400088420CD828684000B8FBF0F087B2042F2F
:1004500000DA04273E4309F10100208427E0E88800
:100460004BF6FF71884206D1286800EB4000B8FBCC
:10047000F0F087B209E0286800EBC00101EB001042
:10048000B8FBF0F087B247F48047C7F30B0008B918
:1004900047F0010747F4004006434FF4967009FB0C
:1004A00000F04FF47A7190FBF1F0401C2084A68399
:1004B000208840F00100208026884FF6F530064065
:1004C000A8886989084306432680A88929890843A2
:1004D0002081BDE8FF87000000127A0040420F0033
:1004E000A08601000146088AC0B2704712B141F0EF
:1004F000010101E001F0FE010182704701827047B5
:1005000000BFFEE77047000070B5002100230F22F6
:10051000C4781CB3174C246804F4E064C4F5E064A8
:10052000C4F30721C1F10404E3B20A4144789C40BA
:10053000E1B28478144021430C07210E0E4C05785B
:100540006155047804F01F050124AC4005786D1155
:10055000AD0005F1E025C5F8004109E0047804F09C
:100560001F050124AC40054D0678761145F826405C
:1005700070BD00000CED00E000E400E080E100E070
:100580007047000029B1064A12680243044B1A6002
:1005900004E0034A12688243014B1A60704700006E
:1005A0003038024029B1064A12680243044B1A60EF
:1005B00004E0034A12688243014B1A60704700004E
:1005C0004038024029B1064A12680243044B1A60BF
:1005D00004E0034A12688243014B1A60704700002E
:1005E00044380240F0B500210022002402250026F4
:1005F0000223324F3F6807F00C0121B1042905D0D6
:10060000082937D105E02E4F076036E02D4F0760EF
:1006100033E02A4F3F1F3F68C7F38056274F3F1FE5
:100620003F6807F03F036EB1264FB7FBF3F7DFF8E3
:100630008CC0ACF1040CDCF800C0CCF3881C07FBC8
:100640000CF40CE01E4FB7FBF3F7DFF870C0ACF111
:10065000040CDCF800C0CCF3881C07FB0CF4174F2B
:100660003F1F3F68C7F301477F1C7D00B4FBF5F7D0
:10067000076002E0124F076000BF00BF0F4F3F68E6
:1006800007F0F0010909104F7A5C0768D74047600E
:100690000A4F3F6807F4E051890A0B4F7A5C4768BC
:1006A000D7408760054F3F6807F46041490B064F0C
:1006B0007A5C4768D740C760F0BD00000838024048
:1006C0000024F40000127A00480000207047000067
:1006D0000CB50020019000903448006840F4803050
:1006E0003249086000BF3148006800F400300090D3
:1006F0000198401C0190009818B90198B0F5A04FDE
:10070000F1D12A48006800F4003010B101200090B7
:1007100001E0002000900098012846D12348403095
:10072000006840F08050214940310860204800684E
:1007300040F440401E4908601C48083000681B49CE
:10074000083108600846006840F400400860084628
:10075000006840F4A05008601648091F0860081F90
:10076000006840F08070091F086000BF0F480068F3
:1007700000F000700028F9D040F205700E490860C2
:100780000A480830006820F0030008490831086072
:100790000846006840F00200086000BF03480830C7
:1007A000006800F00C000828F8D10CBD00380240A9
:1007B0000070004008544007003C024005480068B3
:1007C000401C0449086004480068401C0249086055
:1007D00070470000000000200400002010B51548FC
:1007E000006840F47000134908601348006840F046
:1007F00001001149086000200F49083108600E48C7
:1008000000680E4908400C4908600D48091D086041
:10081000081F006820F48020091F08600020064996
:100820000C310860FFF754FF4FF000600149803938
:10083000086010BD88ED00E000380240FFFFF6FEC2
:100840001030002410B540F22551094800F02DF871
:1008500068B1074800F0E2F8C4B22146044800F04D
:10086000E2F840F22551024800F004F800BF10BD44
:100870000010014010B50022002340F66A14A14286
:1008800000D100BF0A1201249440A3B2DC430480CB
:1008900010BD21B1828942F40052828104E0828934
:1008A0004DF6FF731A408281704770B502460024EE
:1008B00000230025002040F66A16B14200D100BF97
:1008C000C1F3421501F01F03012606FA03F3012DBF
:1008D00002D19689334006E0022D02D1168A3340B8
:1008E00001E0968A33400C12012606FA04F41688B9
:1008F000344013B10CB1012000E0002070BDF0B510
:100900000346002400260025002040F66A17B9425D
:1009100000D100BF1846C1F3421401F01F060127A1
:1009200007FA06F5012C01D10C3004E0022C01D1AC
:10093000103000E014301AB107682F43076002E05E
:100940000768AF430760F0BD2DE9FF4705460E4637
:100950000024A14600BFA046B08900B100BF2C8A88
:1009600024F44054F08804432C82AC8941F20C609A
:100970008443B08831890843718908430443AC81BA
:10098000AC8A24F44074B0890443AC826846FFF713
:1009900029FE2048854202D01F48854202D1DDF859
:1009A0000C9001E0DDF80890A88900F4004040B107
:1009B00009EBC90000EB091031684900B0FBF1F701
:1009C00007E009EBC90000EB091031688900B0FBB2
:1009D000F1F76420B7FBF0F004012009642101FB6A
:1009E0001078A88900F4004040B1322000EBC80024
:1009F000B0FBF1F000F00700044308E0322000EB08
:100A000008106421B0FBF1F000F00F0004432C81CA
:100A1000BDE8FF87001001400014014001468888AE
:100A2000C0F308007047C1F308028280704700BF1E
:100A3000FEE700000FB4054B10B503A9044A029865
:100A400000F018F810BC5DF814FB0000C910000895
:100A50003000002002E008C8121F08C1002AFAD1A5
:100A600070477047002001E001C1121F002AFBD12E
:100A7000704700002DE9FF4F8BB09A460F460546A0
:100A8000002606E025280BD052460D9990476D1C94
:100A9000761C28780028F5D10FB03046BDE8F08FDD
:100AA0000024A0460122604900E0044315F8013FFC
:100AB000203B02FA03F00842F7D128782E2817D1FC
:100AC00015F8010F44F004042A280ED06FF02F020D
:100AD0002878A0F1300109290AD808EB880102EB37
:100AE000410100EB01086D1CF2E757F8048B6D1C07
:100AF000287869283ED006DC0028CDD063280BD0AA
:100B0000642804D136E0732810D075284BD05246A3
:100B10000D999047761C85E017F8040B8DF80000BE
:100B200000208DF80100E946012003E057F8049BFE
:100B30004FF0FF3061074FF0000401D40AE0641C5D
:100B400044450DDA8442FADB19F804100029F6D185
:100B500006E0641C8442FCDB19F804100029F8D17B
:100B6000264404E019F8010B52460D999047641E83
:100B7000F8D257E001CF4FF00A0B002802DA4042CA
:100B80002D2102E0210504D52B218DF8241001210F
:100B900003E0E10705D02021F7E70DF120090891D6
:100BA0000CE00021F9E701CF4FF00A0BF9E75946B5
:100BB000FFF71AFB01F1300209F8012D0028F6D1E8
:100BC000ADEB090000F1200B600701D44FF00108E4
:100BD000D84502DDA8EB0B0000E000208046002491
:100BE00006E009A85246005D0D999047641C761CEA
:100BF00008988442F5DB04E0302052460D99904776
:100C0000761CB8F10001A8F10108F5DC05E019F83F
:100C1000010B52460D999047761CBBF10001ABF1D8
:100C2000010BF4DC6D1C34E70928010010B5002429
:100C300005E004F1640015490855601C84B2302CAD
:100C4000F7DB40211248FFF7C4FA102200210F48B9
:100C500000F060F8642000F0FBF8102211460B4809
:100C600000F058F8642000F0F3F840220021084812
:100C700000F01AF8002406E00548015D05A0FFF722
:100C8000D9FE601C84B2402CF6D310BD5800002061
:100C90009800002025642C20000000000149086015
:100CA000704700000C00002070B506460C46154643
:100CB00000F0EEF900F0C4F90E2101EAE41141F070
:100CC000A000002100F06AF901211148FFF755FB4F
:100CD000E0B200F093F900F0B3F90E2101EAE4115B
:100CE00041F0A000012100F059F90BE0012D03D1E2
:100CF00000F024F900F0C4F900F028F93070761CF7
:100D0000681E85B2002DF1D100F010F9012070BDF0
:100D10000054004070B504460D46164600F0B8F980
:100D200000F08EF90E2101EAE51141F0A00000214A
:100D300000F034F9E8B200F061F903E0207800F047
:100D40005DF9641C301EA6F101018EB2F6D100F0EF
:100D500097F9012070BD00001CB501210220FFF7AA
:100D600011FC01214805FFF71DFC02208DF804004D
:100D700001208DF8060000208DF8070002208DF874
:100D800005004FF44070009069460748FFF757FA96
:100D9000042208210448FFF79AFA04220921024894
:100DA000FFF795FA1CBD0000000402401FB50020AB
:100DB000ADF804004BF6FF70ADF806004FF480600C
:100DC000ADF80A000001ADF80C000A20ADF80800EB
:100DD0000548009069460548FFF710FB01210348CC
:100DE000FFF7CBFA1FBD0000A086010000540040B1
:100DF00030B5144800684FF47A72B0FBF2F1481E27
:100E0000B0F1807F00D31BE0481E4FF0E02250611C
:100E100050170F22002807DA13071D0E0A4B00F0A7
:100E20000F04241F1D5503E013071C0E074B1C5411
:100E300000BF00204FF0E02290610720106100BF4A
:100E400030BD00003400002018ED00E000E400E0B8
:100E5000044A116800BF034A1268521A8242FAD348
:100E600070470000000000201CB5602000900120A9
:100E70008DF8040002208DF8050000208DF8060092
:100E800069460548FFF7DBF9202000F007F840200D
:100E900000F004F81CBD00000010024010B504462C
:100EA000002003490870214600F004F810BD00003E
:100EB0000800002070B504460D460448047084F014
:100EC0000102A9B20248FFF725FA70BD0800002010
:100ED0000010024010B54FF4407101F007020E4BB4
:100EE00018684FF6FF0318400C4B034343EA0220F7
:100EF000094B186000BF01210846FFF743FB0121A1
:100F00000220FFF73FFB01211020FFF73BFB0121EF
:100F10001020FFF757FB10BD0CED00E00000FA05B4
:100F200010B5FFF719FFFFF741FF10BD10B5012104
:100F30000148FFF7F7F910BD0054004010B500213B
:100F40000148FFF7EFF910BD0054004070B50024D0
:100F50004FF4204509E0281EA5F101018DB204D10E
:100F600007200B490968884770BD0A490A48FFF7FE
:100F700028FA0028EFD000BF06490748FFF7DEF93E
:100F80000028F9D00448FFF7ADFA04462046EBE705
:100F90000C00002040000300005400402DE9F04107
:100FA00005460E464FF4805736B9002229460F48B1
:100FB000FFF79CFA0E4C05E0012229460B48FFF78B
:100FC00095FA0C4C0AE0381EA7F101018FB205D149
:100FD0000220094909688847BDE8F0812146034895
:100FE000FFF7ACF90028EED00120F5E700540040EF
:100FF00082000700020003000C00002070B50446C8
:101000004FF4805521460B48FFF778FA09E0281E77
:10101000A5F101018DB204D1042007490968884770
:1010200070BD06490348FFF789F90028EFD0012079
:10103000F6E70000005400400C0000208400070088
:1010400010B54FF4805401210A48FFF7A2F909E0D6
:10105000201EA4F101018CB204D1012006490968C7
:10106000884710BD05490348FFF768F90028EFD00D
:101070000120F6E7005400400C00002001000300AE
:1010800010B501210148FFF790F910BD0054004050
:1010900010B54FF4204409E0201EA4F101018CB2E8
:1010A00004D1062006490968884710BD4FF4003175
:1010B0000448FFF786F90028EED10120F5E700008B
:1010C0000C0000200054004000BF054A128802F0C6
:1010D0004002002AF9D0C2B2014B9A80704700004A
:1010E0000010014010B50446082C34D2DFE804F0AB
:1010F000040A10161C22282E1848016818A0FFF7B1
:1011000099FC00BF1548416815A0FFF793FC00BF8C
:101110001248816812A0FFF78DFC00BF0F48C1681C
:101120000FA0FFF787FC00BF0C4801690CA0FFF778
:1011300081FC00BF0948416909A0FFF77BFC00BFA3
:101140000648816906A0FFF775FC00BF0348C16926
:1011500003A0FFF76FFC002010BD0000100000206E
:101160004572726F723A20257300000010B5FFF7C8
:10117000B1FEFFF73DFEFFF777FE00F017F8FFF72F
:10118000CFFE0548FFF78AFD04A0FFF753FCFFF7E9
:101190004DFD002010BD0000E5100008746573745B
:1011A00020626567696E0D0A0000000010B500F04E
:1011B00055F800F031F800F001F810BD08B54FF413
:1011C000407101F00702114B18684FF6FF031840F9
:1011D0000F4B034343EA02200C4B186000BF002072
:1011E000009025208DF8000000208DF801008DF87A
:1011F000020001208DF803006846FFF785F90122FF
:1012000040F225510348FFF77AFB08BD0CED00E0E2
:101210000000FA05001001401FB500200090019069
:10122000029003904FF4E13000900020ADF80400EC
:10123000ADF80600ADF808000C20ADF80A0000205B
:10124000ADF80C0069460448FFF77EFB0121024817
:10125000FFF71FFB1FBD0000001001401CB5002060
:10126000009001904FF4C060009002208DF80400BF
:101270008DF8050000208DF8060001208DF807008C
:1012800069460748FEF7DBFF072209210448FFF7FC
:101290001EF807220A210248FFF719F81CBD0000BA
:1012A0000000024065766572797468696E6720692E
:1012B00073206F6B21200D0A0000000073656E64BF
:1012C0002074686520726561642077726F6E672094
:1012D0000D0A000073656E6420746865207772697A
:1012E000746520646174612074696D656F75742024
:1012F0000D0A000073656E64207468652061646483
:1013000072657373206F66207772697465206275E9
:10131000666665722074696D656F7574200D0A00CC
:1013200073656E64207468652061646472657373AC
:10133000206F66206465766963652069732074692F
:101340006D656F7574200D0A0000000073656E6492
:1013500020746865207374617274206973207469E5
:101360006D656F7574200D0A000000007761697467
:1013700020666F722074686520693263206275731D
:101380002074696D656F7574200D0A0073656E6455
:10139000207468652073746F7020626974207469AA
:1013A0006D656F7574200D0A00000000CC130008F5
:1013B0000000002058000000540A0008241400080F
:1013C0005800002080040000640A000800000000AB
:1013D000000000000000000000000000A41200084F
:1013E0004C13000820130008F4120008D41200085F
:1013F0008C1300086C130008BC12000800000000E9
:10140000007A030A0000000000000000010203044B
:10141000060708090000000001020304010203049A
:0414200006070809AA
:040000050800018965
:00000001FF
