:020000040800F2
:1000000048140020A1010008A9030008A10300086A
:10001000A5030008AF020008230900080000000043
:10002000000000000000000000000000C105000802
:10003000B30200080000000025040008B106000813
:10004000BB010008BB010008BB010008BB010008A0
:10005000BB010008BB010008BB010008BB01000890
:10006000BB010008BB010008BB010008BB01000880
:10007000BB010008BB010008BB010008BB01000870
:10008000BB010008BB010008BB010008BB01000860
:10009000BB010008BB010008BB010008BB01000850
:1000A000BB010008BB010008BB010008BB01000840
:1000B000BB010008BB010008BB010008BB01000830
:1000C000BB010008BB010008BB010008BB01000820
:1000D000BB01000839070008BB010008BB0100088C
:1000E000BB010008BB010008BB010008BB01000800
:1000F000BB010008BB010008BB010008BB010008F0
:10010000BB010008BB010008BB010008BB010008DF
:10011000BB010008BB010008BB010008BB010008CF
:10012000BB010008BB010008BB010008BB010008BF
:10013000BB010008BB010008BB010008BB010008AF
:10014000BB010008BB010008BB010008BB0100089F
:10015000BB010008BB010008BB010008BB0100088F
:10016000BB010008BB010008BB010008BB0100087F
:10017000BB010008BB010008BB010008BB0100086F
:10018000BB010008BB010008DFF810D000F05EF8EA
:10019000004800476D0D0008AFF3008048140020B0
:1001A0000648804706480047FEE7FEE7FEE7FEE711
:1001B000FEE7FEE7FEE7FEE7FEE7FEE7D106000802
:1001C00089010008D2B201E000F8012B491EFBD2E0
:1001D00070470022F6E710B513460A460446194652
:1001E000FFF7F0FF204610BD2DE9F05F0546002027
:1001F00092469B4688460646814640241BE0284698
:1002000041464746224600F042F853465A46C01A35
:10021000914110D311461846224600F029F82D1AB4
:1002200067EB01084F4622460120002100F020F82C
:1002300017EB00094E41201EA4F10104DFDC484603
:1002400031462A464346BDE8F09F0000064C074D64
:1002500006E0E06840F0010394E807009847103496
:10026000AC42F6D3FFF794FFD8120008F81200084A
:10027000202A04DB203A00FA02F100207047914066
:10028000C2F1200320FA03F3194390407047202A5B
:1002900004DB203A21FA02F00021704721FA02F330
:1002A000D040C2F12002914008431946704700BF78
:1002B000FEE77047F0B50A4600210023002400BF86
:1002C0003DE0012505FA01F3156805EA03049C42A7
:1002D00034D105684F000326BE40B543056015794B
:1002E0004E00B5400668354305601579012D02D0F2
:1002F0001579022D16D185684F000326BE40B543FF
:10030000856055794E00B5408668354385604568FF
:1003100001268E40B5434560456896798E40B6B259
:1003200035434560C5684F000326BE40B543C560F0
:10033000D5794E00B540C6683543C560491C1029C3
:10034000BFD3F0BDF0B5002300244D07ED0E02FA37
:1003500005F3CE1000F1200555F826504E07F70E94
:100360000F26BE40B543CF1000F1200646F82750B7
:10037000CE1000F1200555F8265045EA0304CE10B2
:1003800000F1200545F82640F0BD0A04826170475F
:10039000816170470AB1816101E00B04836170479C
:1003A00000BFFEE700BFFEE77047000070B5002108
:1003B00000230F22C4781CB3174C246804F4E064B3
:1003C000C4F5E064C4F30721C1F10404E3B20A41B7
:1003D00044789C40E1B28478144021430C07210EFC
:1003E0000E4C05786155047804F01F050124AC40DB
:1003F00005786D11AD0005F1E025C5F8004109E073
:10040000047804F01F050124AC40054D06787611F0
:1004100045F8264070BD00000CED00E000E400E06F
:1004200080E100E07047000029B1064A12680243EB
:10043000044B1A6004E0034A12688243014B1A60BD
:10044000704700003038024029B1064A1268024362
:10045000044B1A6004E0034A12688243014B1A609D
:100460007047000044380240F0B50021002200240B
:10047000022500260223324F3F6807F00C0121B10C
:10048000042905D0082937D105E02E4F076036E052
:100490002D4F076033E02A4F3F1F3F68C7F3805658
:1004A000274F3F1F3F6807F03F036EB1264FB7FB52
:1004B000F3F7DFF88CC0ACF1040CDCF800C0CCF32F
:1004C000881C07FB0CF40CE01E4FB7FBF3F7DFF8BA
:1004D00070C0ACF1040CDCF800C0CCF3881C07FB46
:1004E0000CF4174F3F1F3F68C7F301477F1C7D0087
:1004F000B4FBF5F7076002E0124F076000BF00BFD2
:100500000F4F3F6807F0F0010909104F7A5C076848
:10051000D74047600A4F3F6807F4E051890A0B4F04
:100520007A5C4768D7408760054F3F6807F46041B1
:10053000490B064F7A5C4768D740C760F0BD0000A2
:10054000083802400024F40000127A003400002031
:1005500021B1028842F04002028004E002884FF696
:10056000BF731A40028070470246002013890B4077
:100570000BB1012000E000207047014688897047D8
:100580008181704710B50022028802F441520B8825
:100590004C8823438C882343CC8823430C892343F2
:1005A0004C8923438C892343CC8923431A430280FB
:1005B000838B4FF2FF74234083830B8A038210BD29
:1005C000704700000CB5002001900090344800688E
:1005D00040F480303249086000BF3148006800F4C0
:1005E000003000900198401C0190009818B90198C3
:1005F000B0F5A04FF1D12A48006800F4003010B1E6
:100600000120009001E0002000900098012846D1D0
:1006100023484030006840F0805021494031086054
:100620002048006840F440401E4908601C480830DB
:1006300000681B49083108600846006840F4004023
:1006400008600846006840F4A05008601648091F7A
:100650000860081F006840F08070091F086000BF34
:100660000F48006800F000700028F9D040F20570D3
:100670000E4908600A480830006820F00300084965
:10068000083108600846006840F00200086000BFBA
:1006900003480830006800F00C000828F8D10CBDB1
:1006A000003802400070004008544007003C0240FF
:1006B00005480068401C0449086004480068401C64
:1006C000024908607047000000000020040000207C
:1006D00010B51548006840F47000134908601348CD
:1006E000006840F001001149086000200F490831FE
:1006F00008600E4800680E4908400C4908600D4823
:10070000091D0860081F006820F48020091F086088
:10071000002006490C310860FFF754FF4FF00060DD
:1007200001498039086010BD88ED00E000380240C2
:10073000FFFFF6FE1030002410B540F225510948A5
:1007400000F02DF868B1074800F0E2F8C4B2214685
:10075000044800F0E2F840F22551024800F004F8A5
:1007600000BF10BD0010014010B50022002340F66C
:100770006A14A14200D100BF0A1201249440A3B21E
:10078000DC43048010BD21B1828942F40052828191
:1007900004E082894DF6FF731A408281704770B57C
:1007A0000246002400230025002040F66A16B142CC
:1007B00000D100BFC1F3421501F01F03012606FA64
:1007C00003F3012D02D19689334006E0022D02D1B8
:1007D000168A334001E0968A33400C12012606FA4D
:1007E00004F41688344013B10CB1012000E000205D
:1007F00070BDF0B50346002400260025002040F619
:100800006A17B94200D100BF1846C1F3421401F083
:100810001F06012707FA06F5012C01D10C3004E070
:10082000022C01D1103000E014301AB107682F43B8
:10083000076002E00768AF430760F0BD2DE9FF479E
:1008400005460E460024A14600BFA046B08900B16F
:1008500000BF2C8A24F44054F08804432C82AC89D5
:1008600041F20C608443B0883189084371890843A0
:100870000443AC81AC8A24F44074B0890443AC8254
:100880006846FFF7F1FD2048854202D01F488542A7
:1008900002D1DDF80C9001E0DDF80890A88900F4A1
:1008A000004040B109EBC90000EB09103168490074
:1008B000B0FBF1F707E009EBC90000EB0910316864
:1008C0008900B0FBF1F76420B7FBF0F004012009C8
:1008D000642101FB1078A88900F4004040B1322067
:1008E00000EBC800B0FBF1F000F00700044308E0A3
:1008F000322000EB08106421B0FBF1F000F00F0093
:1009000004432C81BDE8FF87001001400014014022
:1009100001468888C0F308007047C1F3080282804E
:10092000704700BFFEE700000FB4054B10B503A9E8
:10093000044A029800F018F810BC5DF814FB00009F
:10094000510D00081C00002002E008C8121F08C159
:10095000002AFAD170477047002001E001C1121F40
:10096000002AFBD1704700002DE9FF4F8DB09B4658
:100970000F460446002606E025280BD05A460F995C
:100980009047641C761C20780028F5D111B03046C1
:10099000BDE8F08F0025A8460122984900E00543F4
:1009A00014F8013F203B02FA03F00842F7D1207807
:1009B0002E2817D114F8010F45F004052A280ED06F
:1009C0006FF02F022078A0F1300109290AD808EB36
:1009D000880102EB410100EB0108641CF2E757F8C3
:1009E000048B641C20786C280DD004DC4C2812D0B9
:1009F0006A2811D104E074280DD07A280CD10AE0BD
:100A000045F4001507E0617845F48015814202D174
:100A1000641C05F58015641C2078692844D008DC26
:100A20000028B3D0582867D063280FD0642808D195
:100A30003AE0702865D0732812D075285AD07828EB
:100A40005AD05A460F999047761CD5E017F8040BF8
:100A50008DF8000000208DF80100E946012003E038
:100A600057F8049B4FF0FF3069074FF0000501D4A1
:100A70000AE06D1C45450DDA8542FADB19F80510D0
:100A80000029F6D106E06D1C8542FCDB19F8051043
:100A90000029F8D12E4404E019F8010B5A460F99A9
:100AA00090476D1EF8D2A7E00A200021CDE9080189
:100AB000C5F3025002280CD001CFC117021E71F1FC
:100AC00000020CDA0023D0EB030063EB01012D22BE
:100AD00008E0FF1D27F00707F7E80201EEE72A0507
:100AE00004D52B228DF8282001223CE0EA073AD0D9
:100AF0002022F7E70A2000E010200021CDE90801BC
:100B000007E01020002145F00405CDE908014FF071
:100B10000808C5F30250022810D001CF00214FF081
:100B2000000A2A0720D52278702A0DD0DDE908C3F3
:100B30008CF0100C5CEA030C0CD015E0FF1D27F0C4
:100B40000707F7E80201EAE740228DF828204FF076
:100B5000010A0CE050EA010306D030238DF828305A
:100B60008DF82920022292462278582A04D024A205
:100B70000DF120090B9209E026A2F9E7DDE908232F
:100B8000FFF732FB0B9B9B5C09F8013D50EA010229
:100B9000F4D1ADEB090020300890680701D44FF084
:100BA00001080899884503DD0898A8EB000000E0DB
:100BB00000208046002506E00AA85A46405D0F99AD
:100BC00090476D1C761C5545F6DB04E030205A46F4
:100BD0000F999047761CB8F10001A8F10108F5DCE7
:100BE00005E019F8010B5A460F999047761C0899B1
:100BF000481E08900029F4DC641CC4E609280100A2
:100C00003031323334353637383961626364656682
:100C10000000000030313233343536373839414244
:100C2000434445460000000030B5144800684FF4C6
:100C30007A72B0FBF2F1481EB0F1807F00D31BE066
:100C4000481E4FF0E022506150170F22002807DAAB
:100C500013071D0E0A4B00F00F04241F1D5503E05F
:100C600013071C0E074B1C5400BF00204FF0E0225E
:100C700090610720106100BF30BD000020000020FF
:100C800018ED00E000E400E01CB5202000900120F9
:100C90008DF8040002208DF8050000208DF8060074
:100CA00069460348FFF706FB00F004F81CBD00008E
:100CB0000010024010B500200249087000F00EF844
:100CC00010BD00000800002010B501200249087086
:100CD00000F004F810BD00000800002010B5044624
:100CE0000448047084F0010220210348FFF752FBFE
:100CF00010BD0000080000200010024010B54FF4A5
:100D0000407101F00702104B18684FF6FF031840BE
:100D10000E4B034343EA02200B4B186000BF012136
:100D20000846FFF781FB01210220FFF77DFB01212F
:100D30001020FFF779FB01210803FFF785FB012154
:100D40001020FFF781FB10BD0CED00E00000FA055C
:100D500000BF054A128802F04002002AF9D0C2B250
:100D6000014B9A80704700000010014010B586B01A
:100D70000024FFF7C3FFFFF757FFFFF785FF00F0E1
:100D8000DBF8FFF7A1FF1449086880471248818902
:100D900012A0FFF7C9FD18A0FFF7C6FD1CA0FFF7C2
:100DA000C3FD002005901EA30FCBCDE90323CDE9A1
:100DB000010109480D220021436801A8984706480F
:100DC0000D220021836805A8984705A918A0FFF700
:100DD000ABFD002006B010BD0C0000200D0A0D0A6E
:100DE000773235713132382069642069733A2030A6
:100DF0007825780D0A0000006465746163742077BB
:100E0000323571313238206F6B210D0A000000003D
:100E10007772697465206461746120210D0A000095
:100E200068656C6C6F20776F726C64210000000045
:100E30002573000010B500F031F800F001F810BD86
:100E400000B585B014216846FFF7C3F90020ADF85E
:100E500000003820ADF80C000120ADF80800022099
:100E6000ADF806000720ADF810000020ADF8040032
:100E7000ADF80E004FF48270ADF802004FF4007030
:100E8000ADF80A0069460448FFF77CFB01210248DF
:100E9000FFF75EFB05B000BD003001401CB500202F
:100EA0000090019001208DF8040000208DF80600CC
:100EB00001208DF8070002208DF805001020009019
:100EC00069460E48FFF7F6F9E020009002208DF801
:100ED000040069460948FFF7EDF905221146074865
:100EE000FFF730FA052206210448FFF72BFA052206
:100EF00007210248FFF726FA1CBD0000000002404F
:100F000010B5044600BF02210A48FFF72DFB002858
:100F1000F9D021460748FFF733FB00BF0121054800
:100F2000FFF722FB0028F9D00248FFF726FBC0B2EA
:100F300010BD00000030014010B500F055F800F081
:100F400031F800F001F810BD08B54FF4407101F020
:100F50000702114B18684FF6FF0318400F4B03436D
:100F600043EA02200C4B186000BF002000902520AF
:100F70008DF8000000208DF801008DF8020001209E
:100F80008DF803006846FFF711FA012240F225515F
:100F90000348FFF72EFC08BD0CED00E00000FA0549
:100FA000001001401FB500200090019002900390B6
:100FB0004FF4E13000900020ADF80400ADF80600D9
:100FC000ADF808000C20ADF80A000020ADF80C00C8
:100FD00069460448FFF732FC01210248FFF7D3FBC2
:100FE0001FBD0000001001401CB5002000900190C2
:100FF0004FF4C060009002208DF804008DF80500C9
:1010000000208DF8060001208DF80700694607488A
:10101000FFF750F9072209210448FFF793F9072247
:101020000A210248FFF78EF91CBD000000000240B3
:1010300010B50446240300F0EFF800F089F8102101
:101040000B48FFF7A2F92020FFF75AFFC4F307402F
:10105000FFF756FFC4F30720FFF752FFE0B2FFF798
:101060004FFF10210248FFF793F900F071F810BD0F
:101070000000024010B5FFF7DDFE00F02FF8014937
:10108000888110BD0C0000202DE9F04106460C4679
:10109000174610211048FFF778F90320FFF730FFBB
:1010A000C4F30740FFF72CFFC4F30720FFF728FF26
:1010B000E0B2FFF725FF002505E0FF20FFF720FF46
:1010C0007055681C85B2BD42F7DB10210248FFF75E
:1010D0005FF9BDE8F08100000000024010B5002477
:1010E00010210F48FFF751F99020FFF709FF00206A
:1010F000FFF706FF0020FFF703FF0020FFF700FFC8
:10110000FF20FFF7FDFE44EA0024FF20FFF7F8FE72
:10111000044310210248FFF73BF9204610BD0000B0
:101120000000024010B5002410210848FFF72DF9F7
:101130000520FFF7E5FEFF20FFF7E2FE0446102141
:101140000248FFF725F9204610BD000000000240CC
:1011500010B500BFFFF7E6FF00F001000028F9D14D
:1011600010BD00002DE9F04781460F4616464FEAB4
:101170001738C7F30B0ACAF58054A64200DC344680
:1011800044E04FEA08314FF480522248FFF77CFFD9
:10119000002508E00AEB05001E49085CFF2800D086
:1011A00003E0681C85B2A542F4DB00BFA54216DA55
:1011B0004046FFF73DFF002507E019F8050005EB65
:1011C0000A01144A5054681C85B2A542F5DB4FEA67
:1011D00008314FF480520F4800F02EF804E0224608
:1011E0003946484600F028F8A64200D10FE008F141
:1011F00001084FF0000AA1442744301B86B2B6F51F
:10120000805F02DD4FF4805400E03446B9E700BF50
:10121000BDE8F0874400002010B510210548FFF715
:10122000B4F80620FFF76CFE10210248FFF7B0F873
:1012300010BD0000000002402DE9F04107460E46B7
:101240001446F0B2C0F58075AC4200DC254612E0D1
:101250002A463146384600F013F8AC4200D10BE084
:101260002F442E44601B84B2B4F5807F02DD4FF41E
:10127000807500E02546EBE700BFBDE8F081000087
:101280002DE9F04106460C461746FFF7C5FF102131
:101290001048FFF77AF80220FFF732FEC4F3074048
:1012A000FFF72EFEC4F30720FFF72AFEE0B2FFF798
:1012B00027FE002504E0705DFFF722FE681C85B262
:1012C000BD42F8DB10210348FFF762F8FFF740FF4B
:1012D000BDE8F08100000240F81200080000002084
:1012E00044000000480900083C13000844000020A6
:1012F000041400005809000800000000000000006D
:101300000000000075100008651100088910000831
:101310000000000000000000007A030A0000000046
:101320000000000001020304060708090000000095
:0C1330000102030401020304060708097F
:040000050800018965
:00000001FF
