:020000040800F2
:10000000A80C0020A1010008C50400081D0200087A
:10001000C10400082F020008850B00080000000042
:100020000000000000000000000000008106000841
:10003000890200080000000055050008710700084B
:10004000BB010008BB010008BB010008BB010008A0
:10005000BB010008BB010008BB010008BB01000890
:10006000BB010008BB010008BB010008BB01000880
:10007000BB010008BB010008BB010008BB01000870
:10008000BB010008BB010008BB010008BB01000860
:10009000BB010008BB010008BB010008BB01000850
:1000A000BB010008BB010008BB010008BB01000840
:1000B000BB010008BB010008BB010008BB01000830
:1000C000BB010008BB010008BB010008BB01000820
:1000D000BB010008E9070008BB010008BB010008DC
:1000E000BB010008BB010008BB010008BB01000800
:1000F000BB010008BB010008BB010008BB010008F0
:10010000BB010008BB010008BB010008BB010008DF
:10011000BB010008BB010008BB010008BB010008CF
:10012000BB010008BB010008BB010008BB010008BF
:10013000BB010008BB010008BB010008BB010008AF
:10014000BB010008BB010008BB010008BB0100089F
:10015000BB010008BB010008BB010008BB0100088F
:10016000BB010008BB010008BB010008BB0100087F
:10017000BB010008BB010008BB010008BB0100086F
:10018000BB010008BB010008DFF810D000F034F814
:1001900000480047A10D0008AFF30080A80C002024
:1001A0000648804706480047FEE7FEE7FEE7FEE711
:1001B000FEE7FEE7FEE7FEE7FEE7FEE78107000851
:1001C0008901000840EA01039B0703D009E008C940
:1001D000121F08C0042AFAD203E011F8013B00F80C
:1001E000013B521EF9D27047421C10F8011B002936
:1001F000FBD1801A70470000064C074D06E0E0680E
:1002000040F0010394E8070098471034AC42F6D35D
:10021000FFF7BEFF000F0008200F00081EF0040FBC
:100220000CBFEFF30880EFF3098000F09FB800BF28
:10023000FEE70000014609B909487047012901D1CC
:100240000020FAE7022901D10020F6E7032901D1B5
:100250000020F2E7042901D10020EEE70020ECE7BE
:100260003000002008B54FF4407000F069F92520F7
:100270008DF8000000208DF8020001208DF80300A9
:10028000684600F021F908BD7047F0B50A46002124
:100290000023002400BF3DE0012505FA01F31568A5
:1002A00005EA03049C4234D105684F000326BE4092
:1002B000B543056015794E00B540066835430560C5
:1002C0001579012D02D01579022D16D185684F00C0
:1002D0000326BE40B543856055794E00B54086681B
:1002E00035438560456801268E40B54345604568C5
:1002F00096798E40B6B235434560C5684F000326F7
:10030000BE40B543C560D5794E00B540C66835439B
:10031000C560491C1029BFD3F0BDF0B500230024EF
:100320004D07ED0E02FA05F3CE1000F1200555F849
:1003300026504E07F70E0F26BE40B543CF1000F1F2
:10034000200646F82750CE1000F1200555F826501B
:1003500045EA0304CE1000F1200545F82640F0BD23
:100360000AB1816101E00B04836170472849096883
:1003700001F0004149B12649096841F00041244A91
:1003800011608169891C81617047214908390968B8
:10039000204A11621E49091F097882F824101C495D
:1003A000C91E097891621A490C310968D16218494D
:1003B000891E098811861649096851631449091D67
:1003C00009689163124910310968D16310490C31F1
:1003D000096851640E490831096891640C49091F84
:1003E0000968116400BE0B4A0168116041685160E0
:1003F00081689160C168D160016911614169516191
:1004000081699161C169D16100BE00BFBCE7000094
:100410002CED00E05808002000B587B00121084607
:1004200000F09AF80121102000F0A6F80722092117
:100430002148FFF772FF07220A211F48FFF76DFFCF
:1004400000208DF81A0001208DF81B0002208DF885
:1004500018008DF819000002059005A91648FFF74D
:1004600014FF4FF48060059005A91348FFF70DFFB6
:100470004FF4E13001900020ADF80800ADF80A001B
:10048000ADF80C00ADF810000C20ADF80E0001A97D
:100490000A4800F015FA012240F22551074800F001
:1004A000EAF90121054800F0B0F94021034800F0C5
:1004B000A3F907B000BD0000000002400010014099
:1004C00000BFFEE77047000070B5002100230F2237
:1004D000C4781CB3174C246804F4E064C4F5E064E9
:1004E000C4F30721C1F10404E3B20A4144789C40FB
:1004F000E1B28478144021430C07210E0E4C05789C
:100500006155047804F01F050124AC4005786D1195
:10051000AD0005F1E025C5F8004109E0047804F0DC
:100520001F050124AC40054D0678761145F826409C
:1005300070BD00000CED00E000E400E080E100E0B0
:1005400002490143024A1160704700000000FA05A9
:100550000CED00E07047000029B1064A1268024322
:10056000044B1A6004E0034A12688243014B1A608C
:10057000704700003038024029B1064A1268024331
:10058000044B1A6004E0034A12688243014B1A606C
:100590007047000044380240F0B5002100220024DA
:1005A000022500260223324F3F6807F00C0121B1DB
:1005B000042905D0082937D105E02E4F076036E021
:1005C0002D4F076033E02A4F3F1F3F68C7F3805627
:1005D000274F3F1F3F6807F03F036EB1264FB7FB21
:1005E000F3F7DFF88CC0ACF1040CDCF800C0CCF3FE
:1005F000881C07FB0CF40CE01E4FB7FBF3F7DFF889
:1006000070C0ACF1040CDCF800C0CCF3881C07FB14
:100610000CF4174F3F1F3F68C7F301477F1C7D0055
:10062000B4FBF5F7076002E0124F076000BF00BFA0
:100630000F4F3F6807F0F0010909104F7A5C076817
:10064000D74047600A4F3F6807F4E051890A0B4FD3
:100650007A5C4768D7408760054F3F6807F4604180
:10066000490B064F7A5C4768D740C760F0BD000071
:10067000083802400024F40000127A001C00002018
:10068000704700000CB500200190009034480068CD
:1006900040F480303249086000BF3148006800F4FF
:1006A000003000900198401C0190009818B9019802
:1006B000B0F5A04FF1D12A48006800F4003010B125
:1006C0000120009001E0002000900098012846D110
:1006D00023484030006840F0805021494031086094
:1006E0002048006840F440401E4908601C4808301B
:1006F00000681B49083108600846006840F4004063
:1007000008600846006840F4A05008601648091FB9
:100710000860081F006840F08070091F086000BF73
:100720000F48006800F000700028F9D040F2057012
:100730000E4908600A480830006820F003000849A4
:10074000083108600846006840F00200086000BFF9
:1007500003480830006800F00C000828F8D10CBDF0
:10076000003802400070004008544007003C02403E
:1007700002480068401C01490860704700000020E2
:1007800010B51548006840F470001349086013481C
:10079000006840F001001149086000200F4908314D
:1007A00008600E4800680E4908400C4908600D4872
:1007B000091D0860081F006820F48020091F0860D8
:1007C000002006490C310860FFF75CFF4FF0006025
:1007D00001498039086010BD88ED00E00038024012
:1007E000FFFFF6FE1030002410B5024800F000F9BB
:1007F00010BD00003000002001F40072B2F5007F4F
:1008000000D100BFCA430280704721B1828942F4FF
:100810000052828104E082894DF6FF731A40828182
:10082000704770B50246002400230025002040F6E2
:100830006A16B14200D100BFC1F3421501F01F0397
:10084000012606FA03F3012D02D19689334006E012
:10085000022D02D1168A334001E0968A33400C12F1
:10086000012606FA04F41688344013B10CB10120B5
:1008700000E0002070BDF0B50346002400260025EE
:10088000002040F66A17B94200D100BF1846C1F3F4
:10089000421401F01F06012707FA06F5012C01D1C9
:1008A0000C3004E0022C01D1103000E014301AB1F9
:1008B00007682F43076002E00768AF430760F0BD99
:1008C0002DE9FF4705460E460024A14600BFA0467D
:1008D000B08900B100BF2C8A24F44054F08804434E
:1008E0002C82AC8941F20C608443B0883189084382
:1008F000718908430443AC81AC8A24F44074B08904
:100900000443AC826846FFF747FE2048854202D088
:100910001F48854202D1DDF80C9001E0DDF8089017
:10092000A88900F4004040B109EBC90000EB0910B0
:1009300031684900B0FBF1F707E009EBC90000EBB3
:10094000091031688900B0FBF1F76420B7FBF0F0C3
:1009500004012009642101FB1078A88900F40040FB
:1009600040B1322000EBC800B0FBF1F000F007000E
:10097000044308E0322000EB08106421B0FBF1F0E2
:1009800000F00F0004432C81BDE8FF8700100140F8
:100990000014014001468888C0F308007047C1F385
:1009A00008028280704770B504460D46012000F0B1
:1009B00002F9668B002000F0FEF80EB9002070BD31
:1009C000218BA068405C2870012000F0F4F8208B97
:1009D000401C80B22083E189884201DB0020208313
:1009E000608B401E6083002000F0E5F80120E6E700
:1009F00070B5044640F225512068FFF712FFE0B1C0
:100A00002068FFF7C7FFC5B2E18AA0684554E08AB5
:100A1000401C80B2E082E189884201DB0020E08254
:100A2000608BE189884202DA608B401C6083606AD7
:100A300010B12846616A884700BF40F227712068DC
:100A4000FFF7EFFE08B3A08A60B9002240F22771D9
:100A50002068FFF710FF012240F226612068FFF7AF
:100A60000AFF37E0638A6268D15C2068FFF797FF6E
:100A7000608A401C80B26082A189884201DB00202C
:100A80006082A08A401EA08224E040F22661206895
:100A9000FFF7C7FEF0B1A08A50B9002240F22661EC
:100AA0002068FFF7E8FE206AA0B1206A804711E0C5
:100AB000638A6268D15C2068FFF771FF608A401C1E
:100AC00080B26082A189884201DB00206082A08A16
:100AD000401EA08270BDF8B504460E46174600259C
:100AE00029E00EE0012000F066F8A08A00900020C6
:100AF00000F061F8A089BDF80010884200DD01E037
:100B000000BFEFE700BF705D228A61688854012052
:100B100000F051F8208A401C80B22082A1898842CE
:100B200001DB00202082A08A401CA082002000F06F
:100B300042F8681C85B2BD42D3DB012240F2277126
:100B40002068FFF798FEF8BD0A480B4908600B487B
:100B500048600B4888604FF480608881C88100201D
:100B600008824882C882088348838882C8610862F4
:100B700048627047001001403000002058000020FB
:100B80005804002000BFFEE7014A024900F016B8F1
:100B90008D0D00082C00002002E008C8121F08C1BB
:100BA000002AFAD170477047002001E001C1121FEE
:100BB000002AFBD1704780F3108870472DE9F0417F
:100BC00016460F460446002503E03946B047641C2C
:100BD0006D1C20780028F8D12846BDE8F08100007F
:100BE0001CB50120009000208DF8040002208DF833
:100BF000050001208DF8070069460248FFF745FB14
:100C00001CBD00000010024030B5144800684FF4CD
:100C10007A72B0FBF2F1481EB0F1807F00D31BE086
:100C2000481E4FF0E022506150170F22002807DACB
:100C300013071D0E0A4B00F00F04241F1D5503E07F
:100C400013071C0E074B1C5400BF00204FF0E0227E
:100C500090610720106100BF30BD00000800002037
:100C600018ED00E000E400E01CB5602000900120D9
:100C70008DF8040002208DF8050000208DF8060094
:100C800069460548FFF701FB202000F007F84020E7
:100C900000F004F81CBD00000010024010B504462E
:100CA000002003490870214600F004F810BD000040
:100CB0000400002070B504460D460448047084F01A
:100CC0000102A9B20248FFF74BFB70BD04000020EF
:100CD0000010024010B54FF4407101F007020E4BB6
:100CE00018684FF6FF0318400C4B034343EA0220F9
:100CF000094B186000BF01210846FFF72DFC0121B8
:100D00000220FFF729FC01211020FFF725FC01211B
:100D10001020FFF731FC10BD0CED00E00000FA05DB
:100D200010B5FFF711FFFFF777FBFFF79BFA10BD38
:100D300070B505460E462846FFF77CFA04460CB906
:100D4000002070BD31462046FFF72DFEF9E72DE962
:100D5000F04105460E4617462846FFF76BFA044653
:100D60000CB9BDE8F081E06908B1E06980473A4616
:100D700031462046FFF7AFFE00BFF2E713B5044649
:100D8000012201A92046FFF7E2FF1CBD70B5044611
:100D90000D46E1B20020FFF7F1FF204670BD0000D4
:100DA0009EB0FFF797FFFFF72FFFFFF75DFFFFF7FD
:100DB00017FFFFF7B5FF1C222AA116A8FFF702FABA
:100DC0001C222FA10FA8FFF7FDF91C2233A108A8B0
:100DD000FFF7F8F91C2238A101A8FFF7F3F93DA0AD
:100DE000FFF7D2FE3DE01DA90020FFF7A1FF00287C
:100DF00037D09DF87400312806D032280ED0332821
:100E000016D0342828D11DE016A8FFF7EDF984B2DA
:100E1000224616A90020FFF79AFF21E00FA8FFF74E
:100E2000E3F984B222460FA90020FFF790FF17E0F4
:100E300008A8FFF7D9F984B2224608A90020FFF7D5
:100E400086FF0DE001A8FFF7CFF984B2224601A981
:100E50000020FFF77CFF03E025A0FFF795FE00BF11
:100E600000BFC0E7E68EA5E694B6E588B0E4B8B268
:100E7000E58FA3E591BDE4BBA4310D0A000000009D
:100E8000E68EA5E694B6E588B0E4B8B2E58FA3E5B2
:100E900091BDE4BBA4320D0A00000000E68EA5E679
:100EA00094B6E588B0E4B8B2E58FA3E591BDE4BBA4
:100EB000A4330D0A00000000E68EA5E694B6E5888E
:100EC000B0E4B8B2E58FA3E591BDE4BBA4340D0A4C
:100ED0000000000054657374206464647366616488
:100EE000666664206173672064663A200D0A00001C
:100EF0004572726F7220436F6465210D0A00000015
:100F0000200F00080000002030000000980B0008AF
:100F1000500F000830000020780C0000A80B0008DB
:100F20000000000000000000007A030A000000003A
:100F30000000000001020304060708090000000089
:100F4000010203040102030406070809000000006F
:040000050800018965
:00000001FF
