:020000040800F2
:1000000068040020A1010008450300083D03000822
:1000100041030008390200084F08000800000000F2
:10002000000000000000000000000000ED040008D7
:100030003D02000800000000C1030008DD050008C3
:10004000BB010008BB010008BB010008BB010008A0
:10005000BB010008BB010008BB010008BB01000890
:10006000BB010008BB010008BB010008BB01000880
:10007000BB010008BB010008BB010008BB01000870
:10008000BB010008BB010008BB010008BB01000860
:10009000BB010008BB010008BB010008BB01000850
:1000A000BB010008BB010008BB010008BB01000840
:1000B000BB010008BB010008BB010008BB01000830
:1000C000BB010008BB010008BB010008BB01000820
:1000D000BB01000865060008BB010008BB01000861
:1000E000BB010008BB010008BB010008BB01000800
:1000F000BB010008BB010008BB010008BB010008F0
:10010000BB010008BB010008BB010008BB010008DF
:10011000BB010008BB010008BB010008BB010008CF
:10012000BB010008BB010008BB010008BB010008BF
:10013000BB010008BB010008BB010008BB010008AF
:10014000BB010008BB010008BB010008BB0100089F
:10015000BB010008BB010008BB010008BB0100088F
:10016000BB010008BB010008BB010008BB0100087F
:10017000BB010008BB010008BB010008BB0100086F
:10018000BB010008BB010008DFF810D000F042F806
:1001900000480047410F0008AFF3008068040020CA
:1001A0000648804706480047FEE7FEE7FEE7FEE711
:1001B000FEE7FEE7FEE7FEE7FEE7FEE7FD050008D7
:1001C00089010008D2B201E000F8012B491EFBD2E0
:1001D00070470022F6E710B513460A460446194652
:1001E000FFF7F0FF204610BD30B50B46014600205A
:1001F0002022012409E021FA02F59D4205D303FAE9
:1002000002F5491B04FA02F52844151EA2F1010269
:10021000F1DC30BD064C074D06E0E06840F001031C
:1002200094E8070098471034AC42F6D3FFF7B0FFCC
:100230006C1000088C10000800BFFEE77047F0B596
:100240000A4600210023002400BF3DE0012505FAF5
:1002500001F3156805EA03049C4234D105684F0098
:100260000326BE40B543056015794E00B5400668CB
:10027000354305601579012D02D01579022D16D16F
:1002800085684F000326BE40B543856055794E0012
:10029000B540866835438560456801268E40B54384
:1002A0004560456896798E40B6B235434560C5686D
:1002B0004F000326BE40B543C560D5794E00B5401A
:1002C000C6683543C560491C1029BFD3F0BDF0B5E1
:1002D000002300244D07ED0E02FA05F3CE1000F1C5
:1002E000200555F826504E07F70E0F26BE40B543A1
:1002F000CF1000F1200646F82750CE1000F120055F
:1003000055F8265045EA0304CE1000F1200545F8C3
:100310002640F0BD0246002013690B400BB10120BE
:1003200000E0002070470A048261704781617047D5
:100330000AB1816101E00B048361704700BFFEE7F1
:1003400000BFFEE77047000070B5002100230F22B8
:10035000C4781CB3174C246804F4E064C4F5E0646A
:10036000C4F30721C1F10404E3B20A4144789C407C
:10037000E1B28478144021430C07210E0E4C05781D
:100380006155047804F01F050124AC4005786D1117
:10039000AD0005F1E025C5F8004109E0047804F05E
:1003A0001F050124AC40054D0678761145F826401E
:1003B00070BD00000CED00E000E400E080E100E032
:1003C0007047000029B1064A12680243044B1A60C4
:1003D00004E0034A12688243014B1A607047000030
:1003E0003038024029B1064A12680243044B1A60B1
:1003F00004E0034A12688243014B1A607047000010
:1004000044380240F0B500210022002402250026D5
:100410000223324F3F6807F00C0121B1042905D0B7
:10042000082937D105E02E4F076036E02D4F0760D1
:1004300033E02A4F3F1F3F68C7F38056274F3F1FC7
:100440003F6807F03F036EB1264FB7FBF3F7DFF8C5
:100450008CC0ACF1040CDCF800C0CCF3881C07FBAA
:100460000CF40CE01E4FB7FBF3F7DFF870C0ACF1F3
:10047000040CDCF800C0CCF3881C07FB0CF4174F0D
:100480003F1F3F68C7F301477F1C7D00B4FBF5F7B2
:10049000076002E0124F076000BF00BF0F4F3F68C8
:1004A00007F0F0010909104F7A5C0768D7404760F0
:1004B0000A4F3F6807F4E051890A0B4F7A5C47689E
:1004C000D7408760054F3F6807F46041490B064FEE
:1004D0007A5C4768D740C760F0BD0000083802402A
:1004E0000024F40000127A0024000020704700006D
:1004F0000CB50020019000903448006840F4803032
:100500003249086000BF3148006800F400300090B4
:100510000198401C0190009818B90198B0F5A04FBF
:10052000F1D12A48006800F4003010B10120009099
:1005300001E0002000900098012846D12348403077
:10054000006840F080502149403108602048006830
:1005500040F440401E4908601C48083000681B49B0
:10056000083108600846006840F40040086008460A
:10057000006840F4A05008601648091F0860081F72
:10058000006840F08070091F086000BF0F480068D5
:1005900000F000700028F9D040F205700E490860A4
:1005A0000A480830006820F0030008490831086054
:1005B0000846006840F00200086000BF03480830A9
:1005C000006800F00C000828F8D10CBD003802408B
:1005D0000070004008544007003C02400548006895
:1005E000401C0449086004480068401C0249086037
:1005F00070470000000000200400002010B51548DE
:10060000006840F47000134908601348006840F027
:1006100001001149086000200F49083108600E48A8
:1006200000680E4908400C4908600D48091D086023
:10063000081F006820F48020091F08600020064978
:100640000C310860FFF754FF4FF00060014980391A
:10065000086010BD88ED00E000380240FFFFF6FEA4
:100660001030002410B540F22551094800F02DF853
:1006700068B1074800F0E2F8C4B22146044800F02F
:10068000E2F840F22551024800F004F800BF10BD26
:100690000010014010B50022002340F66A14A14268
:1006A00000D100BF0A1201249440A3B2DC430480AD
:1006B00010BD21B1828942F40052828104E0828916
:1006C0004DF6FF731A408281704770B502460024D0
:1006D00000230025002040F66A16B14200D100BF79
:1006E000C1F3421501F01F03012606FA03F3012DA1
:1006F00002D19689334006E0022D02D1168A33409A
:1007000001E0968A33400C12012606FA04F416889A
:10071000344013B10CB1012000E0002070BDF0B5F1
:100720000346002400260025002040F66A17B9423F
:1007300000D100BF1846C1F3421401F01F06012783
:1007400007FA06F5012C01D10C3004E0022C01D18E
:10075000103000E014301AB107682F43076002E040
:100760000768AF430760F0BD2DE9FF4705460E4619
:100770000024A14600BFA046B08900B100BF2C8A6A
:1007800024F44054F08804432C82AC8941F20C607C
:100790008443B08831890843718908430443AC819C
:1007A000AC8A24F44074B0890443AC826846FFF7F5
:1007B00029FE2048854202D01F48854202D1DDF83B
:1007C0000C9001E0DDF80890A88900F4004040B1E9
:1007D00009EBC90000EB091031684900B0FBF1F7E3
:1007E00007E009EBC90000EB091031688900B0FB94
:1007F000F1F76420B7FBF0F004012009642101FB4C
:100800001078A88900F4004040B1322000EBC80005
:10081000B0FBF1F000F00700044308E0322000EBE9
:1008200008106421B0FBF1F000F00F0004432C81AC
:10083000BDE8FF8700100140001401400146888890
:10084000C0F308007047C1F308028280704700BF00
:10085000FEE700000FB4054B10B503A9044A029847
:1008600000F018F810BC5DF814FB0000110F000830
:100870000C00002002E008C8121F08C1002AFAD1AB
:1008800070477047002001E001C1121F002AFBD110
:10089000704700002DE9FF4F89B09B4604460025B4
:1008A00006E025280BD05A460B999047641C6D1C16
:1008B00020780028F5D10DB02846BDE8F08F00273C
:1008C000B8460122474900E0074314F8013F203BA6
:1008D00002FA03F00842F7D120782E2819D114F833
:1008E000010F47F004072A280ED06FF02F0220785E
:1008F000A0F1300109290CD808EB880102EB410175
:1009000000EB0108641CF2E70A98641C50F8048BA1
:100910000A9020780028CED0642808D0692806D014
:1009200075281ED05A460B9990476D1C58E00A99BD
:100930004FF00A0901C90A91002802DA40422D212C
:1009400002E0390504D52B218DF82010012103E0A8
:10095000F90704D02021F7E78A4608AE0DE0002110
:10096000FAE70A994FF00A0901C90A91F7E74946DF
:10097000FFF73AFC303106F8011D0028F7D1ADEB46
:10098000060000F12009780701D44FF00108C8459E
:1009900002DDA8EB090000E000208046002706E009
:1009A00008A85A46C05D0B9990476D1C7F1C57459F
:1009B000F6DB04E030205A460B9990476D1CB8F1E5
:1009C0000001A8F10108F5DC05E016F8010B5A4614
:1009D0000B9990476D1CB9F10001A9F10109F4DCF4
:1009E000641C65E70928010070B5002411E0FF2CA4
:1009F00003DDA4F5807085B206E0802C03DBA4F152
:100A0000800085B200E02546681C12490855601C2C
:100A100084B2182CEBDB18210F48FFF7DAFB00F04B
:100A200021F8012809D1182250210A4800F065F860
:100A300018225021084800F020F8002406E006485B
:100A4000015D06A0FFF706FF601C84B2182CF6D3E8
:100A500070BD0000340000204C00002025642C20D4
:100A60000000000010B5A02000F06AF908B90120CC
:100A700010BD00F011FA0020FAE72DE9F041074619
:100A80000D46164600F0EAF90E2101EAE51141F0A3
:100A9000A00000F0B1F900F017FA00B129E0E8B2C7
:100AA00000F0AAF900F010FA00B122E000F0D6F947
:100AB0000E2101EAE51141F0A10000F09DF900F0DE
:100AC00003FA00B115E000240CE000F071F938558C
:100AD000701EA04202D000F015F901E000F04EF9BE
:100AE000601C84B2B442F0DB00F0D6F90120BDE80E
:100AF000F08100F0D1F90020F9E72DE9F0478046B8
:100B00000D4691462F46002631E016B107F007004A
:100B100008BB00F0C1F900240EE000F09FF90E219F
:100B200001EAE51141F0A00000F066F900F0CCF90F
:100B300000B904E0601C84B2B4F57A7FEDDB00BF3D
:100B4000B4F57A7F00D134E0F8B200F055F900F046
:100B5000BBF900B12DE018F8060000F04DF900F0E7
:100B6000B3F900B125E0781C87B2701C86B24E45FF
:100B7000CBDB00F091F900240EE000F06FF90E21BC
:100B800001EAE51141F0A00000F036F900F09CF90F
:100B900000B904E0601C84B2B4F57A7FEDDB00BFDD
:100BA000B4F57A7F00D104E000F076F90120BDE8C9
:100BB000F08700F071F90020F9E7000030B5144823
:100BC00000684FF47A72B0FBF2F1481EB0F1807FFA
:100BD00000D31BE0481E4FF0E022506150170F2257
:100BE000002807DA13071D0E0A4B00F00F04241F1C
:100BF0001D5503E013071C0E074B1C5400BF0020BB
:100C00004FF0E02290610720106100BF30BD00006E
:100C10001000002018ED00E000E400E01CB56020AA
:100C2000009001208DF8040002208DF805000020BE
:100C30008DF8060069460548FFF701FB202000F00B
:100C400007F8402000F004F81CBD0000001002402E
:100C500010B50446002003490870214600F004F84E
:100C600010BD00000800002070B504460D46044881
:100C7000047084F00102A9B20248FFF759FB70BD6D
:100C8000080000200010024010B54FF4407101F040
:100C900007020E4B18684FF6FF0318400C4B034336
:100CA00043EA0220094B186000BF01210846FFF704
:100CB00089FB01210220FFF785FB01211020FFF7AE
:100CC00081FB01211020FFF78DFB10BD0CED00E032
:100CD0000000FA051CB501208DF804008DF806000F
:100CE00000208DF8070001208DF805004FF44070BA
:100CF000009069460248FFF7A2FA00F0CDF81CBD4B
:100D00000004024010B54FF400710C48FFF70BFBD4
:100D100000F00CF94FF480710848FFF707FB00F072
:100D200005F94FF480710548FFF7FDFA00F0FEF871
:100D30004FF400710148FFF7F9FA10BD00040240BA
:100D400070B504464FF400710B48FFF7E3FA88B121
:100D50004FF480710848FFF7DDFA58B100F07EF8D3
:100D6000204600F049F800F0AFF8054600F094F88E
:100D7000284670BD0120FCE70004024010B54FF486
:100D800000710A48FFF7D2FA00F0D0F84FF48071F2
:100D90000648FFF7CBFA00F0C9F84FF4807103481A
:100DA000FFF7C1FA00F0C2F810BD000000040240D5
:100DB00070B50024002519E06006040E4FF4807120
:100DC0000C48FFF7B3FA00F0B1F84FF4007109488E
:100DD000FFF7A0FA08B1601CC4B24FF48071054857
:100DE000FFF7A1FA00F0A2F8681CC5B2082DE3DBFA
:100DF000204670BD0004024070B50446002528E07E
:100E000004F0800028B14FF400711348FFF78EFA08
:100E100004E04FF400711048FFF785FA00F086F8FF
:100E20004FF480710C48FFF781FA00F07FF84FF41F
:100E300080710948FFF777FA072D04D14FF400714C
:100E40000548FFF773FA6006040E00F06FF8681C9F
:100E5000C5B2082DD4DB70BD0004024010B54FF4BC
:100E600000710C48FFF762FA4FF480710948FFF7F0
:100E70005DFA00F05BF84FF400710648FFF753FA93
:100E800000F054F84FF480710248FFF74CFA00F07C
:100E90004DF810BD0004024010B54FF40071094830
:100EA000FFF741FA4FF480710648FFF73FFA00F070
:100EB0003DF84FF400710348FFF738FA00F036F8B8
:100EC00010BD00000004024010B54FF400710F483F
:100ED000FFF72CFA00F02AF84FF480710B48FFF767
:100EE00025FA00F023F84FF400710848FFF712FAD2
:100EF00008B1012400E000244FF480710348FFF79B
:100F000012FA00F013F8204610BD00000004024061
:100F100000BF054A128802F04002002AF9D0C2B28E
:100F2000014B9A807047000000100140002003E050
:100F300000BF00BF411CC8B21E28F9DB704700008B
:100F400010B5FFF7A1FEFFF739FEFFF767FE00F0CF
:100F500011F8FFF7BFFE03A0FFF77CFCFFF744FD8D
:100F6000002010BD7465737420626567696E0D0A98
:100F70000000000010B500F055F800F031F800F066
:100F800001F810BD08B54FF4407101F00702114B94
:100F900018684FF6FF0318400F4B034343EA022043
:100FA0000C4B186000BF0020009025208DF8000039
:100FB00000208DF801008DF8020001208DF803005B
:100FC0006846FFF7C1F9012240F225510348FFF7B7
:100FD000A6FB08BD0CED00E00000FA050010014082
:100FE0001FB5002000900190029003904FF4E13073
:100FF00000900020ADF80400ADF80600ADF8080040
:101000000C20ADF80A000020ADF80C006946044839
:10101000FFF7AAFB01210248FFF74BFB1FBD0000B1
:10102000001001401CB50020009001904FF4C060FA
:10103000009002208DF804008DF8050000208DF846
:10104000060001208DF8070069460748FFF7F7F80A
:10105000072209210448FFF73AF907220A2102482A
:10106000FFF735F91CBD0000000002408C1000089D
:10107000000000203400000074080008C0100008C0
:101080003400002034040000840800080000000040
:10109000000000000000000000000000007A030AC9
:1010A0000000000000000000010203040607080918
:1010B00000000000010203040102030406070809FE
:040000050800018965
:00000001FF
