:020000040800F2
:1000000088040020A1010008C103000815020008AF
:10001000BD03000827020008C70800080000000010
:10002000000000000000000000000000690500085A
:100030002B020008000000003D04000859060008DB
:10004000BB010008BB010008BB010008BB010008A0
:10005000BB010008BB010008BB010008BB01000890
:10006000BB010008BB010008BB010008BB01000880
:10007000BB010008BB010008BB010008BB01000870
:10008000BB010008BB010008BB010008BB01000860
:10009000BB010008BB010008BB010008BB01000850
:1000A000BB010008BB010008BB010008BB01000840
:1000B000BB010008BB010008BB010008BB01000830
:1000C000BB010008BB010008BB010008BB01000820
:1000D000BB010008D1060008BB010008BB010008F5
:1000E000BB010008BB010008BB010008BB01000800
:1000F000BB010008BB010008BB010008BB010008F0
:10010000BB010008BB010008BB010008BB010008DF
:10011000BB010008BB010008BB010008BB010008CF
:10012000BB010008BB010008BB010008BB010008BF
:10013000BB010008BB010008BB010008BB010008AF
:10014000BB010008BB010008BB010008BB0100089F
:10015000BB010008BB010008BB010008BB0100088F
:10016000BB010008BB010008BB010008BB0100087F
:10017000BB010008BB010008BB010008BB0100086F
:10018000BB010008BB010008DFF810D000F030F818
:1001900000480047D10B0008AFF30080880400201E
:1001A0000648804706480047FEE7FEE7FEE7FEE711
:1001B000FEE7FEE7FEE7FEE7FEE7FEE7690600086A
:1001C0008901000830B50B46014600202022012499
:1001D00009E021FA02F59D4205D303FA02F5491B15
:1001E00004FA02F52844151EA2F10102F1DC30BD2B
:1001F000064C074D06E0E06840F0010394E8070074
:1002000098471034AC42F6D3FFF7C2FFC80D000880
:10021000E80D00081EF0040F0CBFEFF30880EFF3A9
:10022000098000F075B800BFFEE77047F0B50A46D8
:1002300000210023002400BF3DE0012505FA01F361
:10024000156805EA03049C4234D105684F00032673
:10025000BE40B543056015794E00B540066835438C
:1002600005601579012D02D01579022D16D185680A
:100270004F000326BE40B543856055794E00B5401A
:10028000866835438560456801268E40B5434560E4
:10029000456896798E40B6B235434560C5684F00D3
:1002A0000326BE40B543C560D5794E00B540C6684B
:1002B0003543C560491C1029BFD3F0BDF0B50023FC
:1002C00000244D07ED0E02FA05F3CE1000F12005D3
:1002D00055F826504E07F70E0F26BE40B543CF10F7
:1002E00000F1200646F82750CE1000F1200555F801
:1002F000265045EA0304CE1000F1200545F82640BB
:10030000F0BD0AB1816101E00B0483617047000018
:100310002849096801F0004149B12649096841F0BE
:100320000041244A11608169891C8161704721491B
:1003300008390968204A11621E49091F097882F8A4
:1003400024101C49C91E097891621A490C310968A8
:10035000D1621849891E09881186164909685163B6
:100360001449091D09689163124910310968D16364
:1003700010490C31096851640E49083109689164CB
:100380000C49091F0968116400BE0B4A016811601D
:100390004168516081689160C168D16001691161F3
:1003A0004169516181699161C169D16100BE00BF3C
:1003B000BCE700002CED00E03800002000BFFEE7A5
:1003C0007047000070B5002100230F22C4781CB3D1
:1003D000174C246804F4E064C4F5E064C4F3072116
:1003E000C1F10404E3B20A4144789C40E1B284784C
:1003F000144021430C07210E0E4C057861550478FA
:1004000004F01F050124AC4005786D11AD0005F125
:10041000E025C5F8004109E0047804F01F05012437
:10042000AC40054D0678761145F8264070BD0000B9
:100430000CED00E000E400E080E100E000BE704769
:1004400029B1064A12680243044B1A6004E0034AC9
:1004500012688243014B1A60704700003038024036
:1004600029B1064A12680243044B1A6004E0034AA9
:1004700012688243014B1A60704700004438024002
:10048000F0B5002100220024022500260223324F6D
:100490003F6807F00C0121B1042905D0082937D1A4
:1004A00005E02E4F076036E02D4F076033E02A4FFE
:1004B0003F1F3F68C7F38056274F3F1F3F6807F035
:1004C0003F036EB1264FB7FBF3F7DFF88CC0ACF1FA
:1004D000040CDCF800C0CCF3881C07FB0CF40CE027
:1004E0001E4FB7FBF3F7DFF870C0ACF1040CDCF87B
:1004F00000C0CCF3881C07FB0CF4174F3F1F3F686C
:10050000C7F301477F1C7D00B4FBF5F7076002E0ED
:10051000124F076000BF00BF0F4F3F6807F0F001A8
:100520000909104F7A5C0768D74047600A4F3F6857
:1005300007F4E051890A0B4F7A5C4768D74087601F
:10054000054F3F6807F46041490B064F7A5C4768E6
:10055000D740C760F0BD0000083802400024F40016
:1005600000127A0028000020704700000CB500201F
:10057000019000903448006840F4803032490860AF
:1005800000BF3148006800F4003000900198401C22
:100590000190009818B90198B0F5A04FF1D12A4800
:1005A000006800F4003010B10120009001E000204C
:1005B00000900098012846D123484030006840F060
:1005C00080502149403108602048006840F4404094
:1005D0001E4908601C48083000681B490831086043
:1005E0000846006840F4004008600846006840F48F
:1005F000A05008601648091F0860081F006840F0F6
:100600008070091F086000BF0F48006800F000708C
:100610000028F9D040F205700E4908600A480830F9
:10062000006820F0030008490831086008460068A7
:1006300040F00200086000BF03480830006800F086
:100640000C000828F8D10CBD0038024000700040B2
:1006500008544007003C024002480068401C014921
:10066000086070470400002010B51548006840F489
:100670007000134908601348006840F001001149F8
:10068000086000200F49083108600E4800680E49D4
:1006900008400C4908600D48091D0860081F0068E3
:1006A00020F48020091F0860002006490C310860F2
:1006B000FFF75CFF4FF0006001498039086010BD12
:1006C00088ED00E000380240FFFFF6FE1030002405
:1006D00010B540F225510C4800F037F890B10A48A7
:1006E00000F0ECF8C4B209480949096844540848C4
:1006F0000068401C0649086040F22551024800F09D
:1007000009F800BF10BD00000010014000100020DB
:100710000C00002010B50022002340F66A14A1420C
:1007200000D100BF0A1201249440A3B2DC4304802C
:1007300010BD21B1828942F40052828104E0828995
:100740004DF6FF731A408281704770B5024600244F
:1007500000230025002040F66A16B14200D100BFF8
:10076000C1F3421501F01F03012606FA03F3012D20
:1007700002D19689334006E0022D02D1168A334019
:1007800001E0968A33400C12012606FA04F416881A
:10079000344013B10CB1012000E0002070BDF0B571
:1007A0000346002400260025002040F66A17B942BF
:1007B00000D100BF1846C1F3421401F01F06012703
:1007C00007FA06F5012C01D10C3004E0022C01D10E
:1007D000103000E014301AB107682F43076002E0C0
:1007E0000768AF430760F0BD2DE9FF4705460E4699
:1007F0000024A14600BFA046B08900B100BF2C8AEA
:1008000024F44054F08804432C82AC8941F20C60FB
:100810008443B08831890843718908430443AC811B
:10082000AC8A24F44074B0890443AC826846FFF774
:1008300027FE2048854202D01F48854202D1DDF8BC
:100840000C9001E0DDF80890A88900F4004040B168
:1008500009EBC90000EB091031684900B0FBF1F762
:1008600007E009EBC90000EB091031688900B0FB13
:10087000F1F76420B7FBF0F004012009642101FBCB
:100880001078A88900F4004040B1322000EBC80085
:10089000B0FBF1F000F00700044308E0322000EB69
:1008A00008106421B0FBF1F000F00F0004432C812C
:1008B000BDE8FF8700100140001401400146888810
:1008C000C0F30800704700BFFEE700000FB4054BFF
:1008D00010B503A9044A029800F018F810BC5DF89E
:1008E00014FB0000B50B00080800002002E008C857
:1008F000121F08C1002AFAD170477047002001E09A
:1009000001C1121F002AFBD1704700002DE9FF4FE3
:1009100089B09B460446002506E025280BD05A46A0
:100920000B999047641C6D1C20780028F5D10DB000
:100930002846BDE8F08F0027B8460122474900E06D
:10094000074314F8013F203B02FA03F00842F7D1B5
:1009500020782E2819D114F8010F47F004072A280F
:100960000ED06FF02F022078A0F1300109290CD8A9
:1009700008EB880102EB410100EB0108641CF2E77F
:100980000A98641C50F8048B0A9020780028CED076
:10099000642808D0692806D075281ED05A460B99BD
:1009A00090476D1C58E00A994FF00A0901C90A9155
:1009B000002802DA40422D2102E0390504D52B211E
:1009C0008DF82010012103E0F90704D02021F7E77A
:1009D0008A4608AE0DE00021FAE70A994FF00A09AD
:1009E00001C90A91F7E74946FFF7ECFB303106F8F9
:1009F000011D0028F7D1ADEB060000F120097807B2
:100A000001D44FF00108C84502DDA8EB090000E061
:100A100000208046002706E008A85A46C05D0B99D2
:100A200090476D1C7F1C5745F6DB04E030205A468A
:100A30000B9990476D1CB8F10001A8F10108F5DC95
:100A400005E016F8010B5A460B9990476D1CB9F159
:100A50000001A9F10109F4DC641C65E70928010023
:100A60001CB50120009000208DF8040002208DF8B4
:100A7000050001208DF8070069460248FFF7D6FB04
:100A80001CBD00000010024030B5144800684FF44F
:100A90007A72B0FBF2F1481EB0F1807F00D31BE008
:100AA000481E4FF0E022506150170F22002807DA4D
:100AB00013071D0E0A4B00F00F04241F1D5503E001
:100AC00013071C0E074B1C5400BF00204FF0E02200
:100AD00090610720106100BF30BD000014000020AD
:100AE00018ED00E000E400E0704700001CB5602055
:100AF000009001208DF8040002208DF805000020F0
:100B00008DF8060069460548FFF790FB202000F0AD
:100B100007F8402000F004F81CBD0000001002405F
:100B200010B50446002003490870214600F004F87F
:100B300010BD00001000002070B504460D460448AA
:100B4000047084F00102A9B20248FFF7DAFB70BD1D
:100B5000100000200010024010B500F011F900F064
:100B6000EDF800F0BDF810BD10B54FF4407101F084
:100B700007020E4B18684FF6FF0318400C4B034357
:100B800043EA0220094B186000BF01210846FFF725
:100B900057FC01210220FFF753FC01211020FFF731
:100BA0004FFC01211020FFF75BFC10BD0CED00E0B5
:100BB0000000FA0500BF054A128802F04002002A30
:100BC000F9D0C2B2014B9A8070470000001001407A
:100BD0001CB54FF4047030490860FFF7C5FFFFF7FC
:100BE00053FFFFF783FFFFF73BFFFFF7B5FF52E02F
:100BF000FFF77AFF48E02948016829A0FFF766FE61
:100C00002B4801682BA0FFF761FE2D482849096891
:100C1000405C313805282CD2DFE800F00307191EAC
:100C200022004FF0CC30016827E02648DFED260A8D
:100C3000C0ED000AD0ED000A9FED241A70EE810A83
:100C4000C0ED000AD0ED000AB0EE600A15E04FF0EA
:100C5000CC306421016010E04FF48054A0470CE0D8
:100C60000121019100210091DDE90021B1FBF2F0A9
:100C700003E017A0FFF72AFE00BF00BF0C48006882
:100C8000C01C0B49086005E0044800680849096871
:100C90008842B0D800BFABE714ED00E00C000020A4
:100CA00055415254204E554D3A2025640D0A0000FE
:100CB000000000204E554D3A2025640D0A0000002A
:100CC0000010002002000120CDCC4C3ECDCCCC3D0C
:100CD0004572726F72204E756D210D0A0000000082
:100CE00008B54FF4407101F00702114B18684FF638
:100CF000FF0318400F4B034343EA02200C4B1860DC
:100D000000BF0020009025208DF8000000208DF805
:100D100001008DF8020001208DF803006846FFF7FE
:100D200051FB012240F225510348FFF738FD08BD71
:100D30000CED00E00000FA05001001401FB5002096
:100D400000900190029003904FF4E1300090002059
:100D5000ADF80400ADF80600ADF808000C20ADF8C1
:100D60000A000020ADF80C0069460448FFF73CFD7E
:100D700001210248FFF7DDFC1FBD0000001001400B
:100D80001CB50020009001904FF4C060009002203C
:100D90008DF804008DF8050000208DF80600012074
:100DA0008DF8070069460748FFF740FA0722092136
:100DB0000448FFF783FA07220A210248FFF77EFA68
:100DC0001CBD000000000240E80D000800000020EB
:100DD00038000000EC080008200E00083800002051
:100DE000C8EF0100FC08000800000000000000003F
:100DF000000000000000000000000000007A030A6C
:100E000000000000000000000102030406070809BA
:100E100000000000010203040102030406070809A0
:040000050800018965
:00000001FF
