:020000040800F2
:1000000078170020A1010008B9120008B102000809
:10001000B5120008CF020008D51C0008000000003F
:10002000000000000000000000000000B9140008FB
:100030007D0300080000000049130008A91500080E
:10004000BB010008BB010008BB010008BB010008A0
:10005000BB010008BB010008BB010008BB01000890
:10006000BB010008BB010008BB010008BB01000880
:10007000BB010008BB010008BB010008BB01000870
:10008000BB010008BB010008BB010008BB01000860
:10009000BB010008BB010008BB010008BB01000850
:1000A000BB010008BB010008BB010008BB01000840
:1000B00055170008BB010008BB010008BB01000880
:1000C000BB010008BB010008BB010008BB01000820
:1000D000BB010008DD180008BB010008ED1800088E
:1000E000BB010008BB010008BB010008BB01000800
:1000F000BB010008BB010008BB010008BB010008F0
:10010000BB010008BB010008BB010008BB010008DF
:10011000BB010008BB010008BB010008BB010008CF
:10012000BB010008BB010008BB010008BB010008BF
:10013000BB010008BB010008BB010008BB010008AF
:10014000BB010008BB010008BB010008BB0100089F
:10015000BB010008BB010008BB010008BB0100088F
:10016000BB010008BB010008BB010008BB0100087F
:10017000BB010008BB010008BB010008BB0100086F
:10018000BB010008BB010008DFF810D000F05EF8EA
:1001900000480047A5250008AFF30080781700202D
:1001A0000648804706480047FEE7FEE7FEE7FEE711
:1001B000FEE7FEE7FEE7FEE7FEE7FEE7ED160008D6
:1001C0008901000840EA01039B0703D009E008C940
:1001D000121F08C0042AFAD203E011F8013B00F80C
:1001E000013B521EF9D270472DE9F05F0546002011
:1001F00092469B4688460646814640241BE0284698
:1002000041464746224600F042F853465A46C01A35
:10021000914110D311461846224600F029F82D1AB4
:1002200067EB01084F4622460120002100F020F82C
:1002300017EB00094E41201EA4F10104DFDC484603
:1002400031462A464346BDE8F09F0000064C074D64
:1002500006E0E06840F0010394E807009847103496
:10026000AC42F6D3FFF794FFB0280008D02800086E
:10027000202A04DB203A00FA02F100207047914066
:10028000C2F1200320FA03F3194390407047202A5B
:1002900004DB203A21FA02F00021704721FA02F330
:1002A000D040C2F120029140084319467047000037
:1002B0001EF0040F0CBFEFF30880EFF3098000F08D
:1002C0002FB9014648780A7840EA0220704700BFFB
:1002D000FEE7000070B502460C46FF25FF2309E04B
:1002E00012F8010B80EA05010648405C80EA03052C
:1002F0000548435C201EA4F10106B4B2F0D143EAE4
:10030000052070BDB0260008B0270008014609B9D5
:1003100009487047012901D10020FAE7022901D1DB
:100320000648F6E7032901D10020F2E7042901D1AC
:100330000020EEE70020ECE778000020A008002075
:1003400008B54FF4407000F0F5FF25208DF800004F
:1003500000208DF8020001208DF80300684600F0AF
:10036000ADFF27208DF8000002208DF8020001204B
:100370008DF80300684600F0A1FF08BD704700003B
:1003800010B51BA001F0A8FC1AA001F0A5FC1AA052
:1003900001F0A2FC002406E01D48015D1DA001F053
:1003A0009BFC601CC4B21A481638407DA042F3DCA6
:1003B0000FA001F091FC0FA001F08EFC17A001F03E
:1003C0008BFC002407E012481538015D11A001F0F4
:1003D00083FC601CC4B20E4816380078A042F2DCE0
:1003E00003A001F079FC13A001F076FC10BD000021
:1003F0000A0D00001B5B4B0020E58F91E98081E72F
:100400009A84E591BDE4BBA4203A20307800000036
:1004100062000020202530325800000020E68EA522
:10042000E694B6E79A84E591BDE4BBA4203A203077
:10043000780000001B5B334100000000F0B50A4665
:1004400000210023002400BF3DE0012505FA01F34F
:10045000156805EA03049C4234D105684F00032661
:10046000BE40B543056015794E00B540066835437A
:1004700005601579012D02D01579022D16D18568F8
:100480004F000326BE40B543856055794E00B54008
:10049000866835438560456801268E40B5434560D2
:1004A000456896798E40B6B235434560C5684F00C1
:1004B0000326BE40B543C560D5794E00B540C66839
:1004C0003543C560491C1029BFD3F0BDF0B50023EA
:1004D00000244D07ED0E02FA05F3CE1000F12005C1
:1004E00055F826504E07F70E0F26BE40B543CF10E5
:1004F00000F1200646F82750CE1000F1200555F8EF
:10050000265045EA0304CE1000F1200545F82640A8
:10051000F0BD0AB1816101E00B0483617047000006
:100520002849096801F0004149B12649096841F0AC
:100530000041244A11608169891C81617047214909
:1005400008390968204A11621E49091F097882F892
:1005500024101C49C91E097891621A490C31096896
:10056000D1621849891E09881186164909685163A4
:100570001449091D09689163124910310968D16352
:1005800010490C31096851640E49083109689164B9
:100590000C49091F0968116400BE0B4A016811600B
:1005A0004168516081689160C168D16001691161E1
:1005B0004169516181699161C169D16100BE00BF2A
:1005C000BCE700002CED00E02813002000B587B048
:1005D0000121084600F0BAFE0121102000F0D6FEED
:1005E000072209214848FFF771FF07220A214648E0
:1005F000FFF76CFF00208DF81A0001208DF81B001A
:1006000002208DF818008DF819000002059005A948
:100610003D48FFF713FF4FF48060059005A93A4865
:10062000FFF70CFF4FF4E13001900020ADF8080017
:10063000ADF80A00ADF80C00ADF810000C20ADF8D4
:100640000E0001A9314801F0BDF9012240F2255107
:100650002E4801F092F901212C4801F058F940216F
:100660002A4801F04BF90121022000F06FFE012120
:10067000880400F07BFE07220A212548FFF726FFA9
:1006800007220B212248FFF721FF00208DF81A00D6
:1006900001208DF81B0002208DF818004002059003
:1006A00002208DF8190005A91948FFF7C7FE02209E
:1006B0008DF818008002059005A91548FFF7BEFEC9
:1006C0004FF4165001900020ADF80800ADF80A0074
:1006D000ADF80C00ADF810000C20ADF80E0001A92B
:1006E0000C4801F06FF9012240F22551094801F050
:1006F00044F90121074801F00AF94021054801F0B9
:10070000FDF807B000BD00000000024000100140ED
:10071000000402400048004010B515484078042805
:1007200017D006DC01280BD002280CD003281CD1DE
:100730000CE0052810D0062811D0102815D111E0A2
:1007400000F022F912E000F053F90FE000F07EF91A
:100750000CE000F0A3F909E000F0C2F906E000F0B7
:10076000CFF903E000F0DCF900E000BF00BF10BDEE
:10077000C810002010B51548007800B910BD002041
:1007800012490870124890F84000042800DA0AE084
:100790000F4890F84010FFF79DFD044604B102E0B9
:1007A000FFF7BAFF00BF0A4890F8400009490870F7
:1007B000074890F8402001460648401CFFF702FD1C
:1007C0000020034981F8400000BFD7E70100002066
:1007D000C81000204C0000202DE9F04104460D46D1
:1007E000002620E02A462146012000F0D3F901F03E
:1007F00071FD07460DE001F07BFD384601F02EFD4E
:10080000642800DD06E00E4890F8CF00002800DDE7
:1008100000E0F0E700BF0A4890F8CF00002800DDB4
:1008200003E0701CC6B2012EDCDB00BF044890F868
:10083000CF0010B90020BDE8F0810120FBE70000E7
:10084000C81000202DE9F04104460D46002620E0A6
:100850002A462146012000F0FBF901F03BFD074646
:100860000DE001F045FD384601F0F8FC642800DD9C
:1008700006E00E4890F8D000002800DD00E0F0E728
:1008800000BF0A4890F8D000002800DD03E0701C8B
:10089000C6B2012EDCDB00BF044890F8D00010B9CE
:1008A0000020BDE8F0810120FBE70000C810002017
:1008B0002DE9F04104460D46002620E02A46214657
:1008C000012000F023FA01F005FD07460DE001F0DC
:1008D0000FFD384601F0C2FC642800DD06E00E483A
:1008E00090F8D100002800DD00E0F0E700BF0A48E2
:1008F00090F8D100002800DD03E0701CC6B2012E84
:10090000DCDB00BF044890F8D10010B90020BDE83E
:10091000F0810120FBE70000C81000202DE9F04124
:1009200004460D46002620E02A462146012000F01C
:100930004BFA01F0CFFC07460DE001F0D9FC384638
:1009400001F08CFC642800DD06E00E4890F8D2002F
:10095000002800DD00E0F0E700BF0A4890F8D20070
:10096000002800DD03E0701CC6B2012EDCDB00BFF6
:10097000044890F8D20010B90020BDE8F0810120B1
:10098000FBE70000C810002070B5174890F8400041
:10099000002828DD14488578B0F8C600A0F20110C0
:1009A00000BB082D1DD1104CE41C2046FFF789FC2C
:1009B0000E498881A41C2046FFF783FC0B49C8819F
:1009C000A41C2046FFF77DFC08490882A41C204691
:1009D000FFF777FC05494882A41C0120024981F8F1
:1009E000CF0000BF00BF70BDC81000209E110020C6
:1009F00070B5144890F84000002822DD1148857831
:100A0000B0F8C800A0F20120D0B9062D17D10D4CC6
:100A1000E41C2046FFF755FC0B498880A41C2046A7
:100A2000FFF74FFC0849C880A41C2046FFF749FC8B
:100A300005490881A41C0120024981F8D00000BFAB
:100A400000BF70BDC81000209E11002070B5114875
:100A500090F8400000281CDD0E488578B0F8CA00E8
:100A6000A0F20130A0B9202D11D10A4CE41C20467F
:100A7000FFF727FC08490880A41C2046FFF721FC4B
:100A800005494880A41C0120E11F81F8D10000BF66
:100A900000BF70BDC81000209E11002070B50E4828
:100AA00090F84000002816DD0B488478B0F8CC00A0
:100AB000A0F2012070B9022C0BD1074DED1C284685
:100AC000FFF7FFFB05494881AD1C0120691F81F834
:100AD000D20000BF00BF70BDC81000209E110020D2
:100AE000064890F84000002806DD044800780128F8
:100AF00002D1024981F8D30070470000C8100020DD
:100B0000064890F84000002806DD044800780128D7
:100B100002D1024981F8D40070470000C8100020BB
:100B2000064890F84000002806DD044800780128B7
:100B300002D1024981F8D50070470000C81000209A
:100B400070B5044600200D49087040F63D650C4A1A
:100B50002946032001F08AFC0A4890F8400040280A
:100B60000ADA084890F8401090F84000401C054A06
:100B700082F840001046445470BD0000010000207F
:100B8000890B0008C8100020012001490870704737
:100B90000100002070B506460C46154600202B4982
:100BA00081F8C400084690F8C41090F8C400401CB6
:100BB000264A82F8C40002F1440046540121443818
:100BC00090F8C42090F8C400401C204B83F8C40067
:100BD00003F1440081542112443890F8C42090F865
:100BE000C400401C83F8C40003F14400815444381D
:100BF00090F8C42090F8C400401C83F8C40003F1AE
:100C0000440084542912443890F8C42090F8C40059
:100C1000401C83F8C40003F144008154443890F828
:100C2000C42090F8C400401C83F8C40003F14400C1
:100C3000855400F059FA0020044981F8CF0081F86A
:100C4000CE500846A0F8C64070BD0000C810002075
:100C500070B506460C46154600202B4981F8C400A5
:100C6000084690F8C41090F8C400401C264A82F848
:100C7000C40002F1440046540221443890F8C420D4
:100C800090F8C400401C204B83F8C40003F14400DA
:100C900081542112443890F8C42090F8C400401CBC
:100CA00083F8C40003F144008154443890F8C42010
:100CB00090F8C400401C83F8C40003F1440084543D
:100CC0002912443890F8C42090F8C400401C83F8DE
:100CD000C40003F144008154443890F8C42090F8D3
:100CE000C400401C83F8C40003F14400855400F0A4
:100CF000FBF90020044981F8D00081F8CE50084665
:100D0000A0F8C84070BD0000C810002070B50646AD
:100D10000C46154600202B4981F8C400084690F87F
:100D2000C41090F8C400401C264A82F8C40002F1A6
:100D3000440046540321443890F8C42090F8C4007D
:100D4000401C204B83F8C40003F14400815421125D
:100D5000443890F8C42090F8C400401C83F8C400C4
:100D600003F144008154443890F8C42090F8C40042
:100D7000401C83F8C40003F1440084542912443811
:100D800090F8C42090F8C400401C83F8C40003F11C
:100D900044008154443890F8C42090F8C400401CAA
:100DA00083F8C40003F14400855400F09DF900204D
:100DB000044981F8D10081F8CE500846A0F8CA4015
:100DC00070BD0000C810002070B506460C461546E0
:100DD00000202B4981F8C400084690F8C41090F810
:100DE000C400401C264A82F8C40002F14400465464
:100DF0000421443890F8C42090F8C400401C204BD3
:100E000083F8C40003F1440081542112443890F85F
:100E1000C42090F8C400401C83F8C40003F14400CF
:100E20008154443890F8C42090F8C400401C83F8E2
:100E3000C40003F1440084542912443890F8C420BB
:100E400090F8C400401C83F8C40003F144008154AE
:100E5000443890F8C42090F8C400401C83F8C400C3
:100E600003F14400855400F03FF90020044981F863
:100E7000D20081F8CE500846A0F8CC4070BD0000EA
:100E8000C810002070B506460C46154600202849BB
:100E900081F8C400084690F8C41090F8C400401CC3
:100EA000234A82F8C40002F1440046540521443824
:100EB00090F8C42090F8C400401C1D4B83F8C40077
:100EC00003F1440081542112443890F8C42090F872
:100ED000C400401C83F8C40003F14400815444382A
:100EE00090F8C42090F8C400401C83F8C40003F1BB
:100EF000440084542912443890F8C42090F8C40067
:100F0000401C83F8C40003F144008154443890F835
:100F1000C42090F8C400401C83F8C40003F14400CE
:100F2000855400F0E1F80020014981F8D30070BD3C
:100F3000C810002070B506460C461546002028490A
:100F400081F8C400084690F8C41090F8C400401C12
:100F5000234A82F8C40002F1440046540621443872
:100F600090F8C42090F8C400401C1D4B83F8C400C6
:100F700003F1440081542112443890F8C42090F8C1
:100F8000C400401C83F8C40003F144008154443879
:100F900090F8C42090F8C400401C83F8C40003F10A
:100FA000440084542912443890F8C42090F8C400B6
:100FB000401C83F8C40003F144008154443890F885
:100FC000C42090F8C400401C83F8C40003F144001E
:100FD000855400F089F80020014981F8D40070BDE3
:100FE000C81000202DE9F04107460D4614469846EA
:100FF00000203C4981F8C400084690F8C41090F8DD
:10100000C400401C374A82F8C40002F1440047542F
:101010001021443890F8C42090F8C400401C314B93
:1010200083F8C40003F1440081542912443890F835
:10103000C42090F8C400401C83F8C40003F14400AD
:101040008154443890F8C42090F8C400401C83F8C0
:10105000C40003F1440085542112443890F8C420A0
:1010600090F8C400401C83F8C40003F1440081548C
:10107000443890F8C41090F8C400401C1A4682F816
:10108000C40002F1440044546006010E104690F87A
:10109000C42090F8C400401C83F8C40003F144004D
:1010A0008154002616E00F4890F8C4003D2801DD69
:1010B000BDE8F08118F806100A4890F8C42090F8AE
:1010C000C400401C074B83F8C40003F14400815462
:1010D000701C86B26000B042E5DC00F005F800BF8D
:1010E000E6E70000C810002010B51A4890F8C410B8
:1010F0004430FFF7EFF804462112164890F8C42058
:1011000090F8C400401C134B83F8C40003F1440062
:101110008154443890F8C42090F8C400401C83F8EF
:10112000C40003F144008454443890F8C41044309F
:1011300000F014F8074890F8C400074948750548BE
:1011400090F8C42000F1440103481630FFF73AF844
:1011500010BD0000C81000204C00002070B50446EF
:101160000D462946204600F09DF970BD2DE9F0415D
:1011700004460D46002620E02A4621460120FFF7BE
:1011800081FE01F0A7F807460DE001F0B1F83846FE
:1011900001F064F8642800DD06E00E4890F8D30002
:1011A000002800DD00E0F0E700BF0A4890F8D30017
:1011B000002800DD03E0701CC6B2012EDCDB00BF9E
:1011C000044890F8D30010B90020BDE8F081012058
:1011D000FBE70000C81000202DE9F04104460D4651
:1011E000002620E02A4621460120FFF7A3FE01F059
:1011F00071F807460DE001F07BF8384601F02EF853
:10120000642800DD06E00E4890F8D400002800DDD8
:1012100000E0F0E700BF0A4890F8D400002800DDA5
:1012200003E0701CC6B2012EDCDB00BF044890F85E
:10123000D40010B90020BDE8F0810120FBE70000D8
:10124000C81000202DE9F04104460D46164600273F
:1012500021E033462A4621460120FFF7C3FE01F074
:1012600039F880460DE001F043F8404600F0F6FF03
:10127000642800DD06E00E4890F8D500002800DD67
:1012800000E0F0E700BF0A4890F8D500002800DD34
:1012900003E0781CC7B2012FDBDB00BF044890F8E5
:1012A000D50010B90020BDE8F0810120FBE7000067
:1012B000C810002000BFFEE77047000070B5002195
:1012C00000230F22C4781CB3174C246804F4E06494
:1012D000C4F5E064C4F30721C1F10404E3B20A4198
:1012E00044789C40E1B28478144021430C07210EDD
:1012F0000E4C05786155047804F01F050124AC40BC
:1013000005786D11AD0005F1E025C5F8004109E053
:10131000047804F01F050124AC40054D06787611D1
:1013200045F8264070BD00000CED00E000E400E050
:1013300080E100E002490143024A11607047000069
:101340000000FA050CED00E07047000029B1064AE4
:1013500012680243044B1A6004E0034A1268824395
:10136000014B1A60704700003038024029B1064A2C
:1013700012680243044B1A6004E0034A1268824375
:10138000014B1A60704700004038024029B1064AFC
:1013900012680243044B1A6004E0034A1268824355
:1013A000014B1A607047000044380240F0B500213C
:1013B00000220024022500260223324F3F6807F056
:1013C0000C0121B1042905D0082937D105E02E4FA1
:1013D000076036E02D4F076033E02A4F3F1F3F681C
:1013E000C7F38056274F3F1F3F6807F03F036EB19A
:1013F000264FB7FBF3F7DFF88CC0ACF1040CDCF838
:1014000000C0CCF3881C07FB0CF40CE01E4FB7FBAC
:10141000F3F7DFF870C0ACF1040CDCF800C0CCF3DB
:10142000881C07FB0CF4174F3F1F3F68C7F30147A9
:101430007F1C7D00B4FBF5F7076002E0124F0760E8
:1014400000BF00BF0F4F3F6807F0F0010909104FC0
:101450007A5C0768D74047600A4F3F6807F4E0515D
:10146000890A0B4F7A5C4768D7408760054F3F6811
:1014700007F46041490B064F7A5C4768D740C76064
:10148000F0BD0000083802400024F40000127A0089
:1014900038000020704710B504462046FFF750FB87
:1014A00010BD704770B504460D462A4621460220FD
:1014B00001F04FF870BD7047704700000CB5002078
:1014C000019000903448006840F480303249086050
:1014D00000BF3148006800F4003000900198401CC3
:1014E0000190009818B90198B0F5A04FF1D12A48A1
:1014F000006800F4003010B10120009001E00020ED
:1015000000900098012846D123484030006840F000
:1015100080502149403108602048006840F4404034
:101520001E4908601C48083000681B4908310860E3
:101530000846006840F4004008600846006840F42F
:10154000A05008601648091F0860081F006840F096
:101550008070091F086000BF0F48006800F000702D
:101560000028F9D040F205700E4908600A4808309A
:10157000006820F003000849083108600846006848
:1015800040F00200086000BF03480830006800F027
:101590000C000828F8D10CBD003802400070004053
:1015A00008544007003C024010B500F001F810BD9F
:1015B00010B51948006840B117480068401E164928
:1015C000086010B9012015490870002408E004EBF8
:1015D0004401134A02EB810000F03AFF601CC4B2E0
:1015E000042CF4DB0F480068401C0E4908600846D4
:1015F00000686FF00041884202D10020094908606C
:1016000009480078401CC0B2074908700A2801DB6D
:101610000020087010BD0000040000200800002019
:10162000B41100200C0000202000002070B5002024
:101630000022022300240221274D2D6805F00C0012
:1016400020B1042806D0082834D107E0234D244EC9
:10165000356033E0234D224E35602FE01E4D2D1FA7
:101660002D68C5F380541C4D2D1F2D6805F03F01DA
:1016700054B11C4DB5FBF1F5174E361F3668C6F355
:10168000881605FB06F209E0144DB5FBF1F5124E84
:10169000361F3668C6F3881605FB06F20E4D2D1F61
:1016A0002D68C5F301456D1C6B00B2FBF3F50C4EC4
:1016B000356003E0094D0A4E356000BF00BF064D9E
:1016C0002D68C5F30315084E705D054D2D68C540A6
:1016D000034E356070BD0000083802400024F4005D
:1016E0002400002000127A002800002010B51548C0
:1016F000006840F47000134908601348006840F027
:1017000001001149086000200F49083108600E48A7
:1017100000680E4908400C4908600D48091D086022
:10172000081F006820F48020091F08600020064977
:101730000C310860FFF7C2FE4FF0006001498039AC
:10174000086010BD88ED00E000380240FFFFF6FEA3
:101750001030002410B50221480700F05BF858B1A2
:101760000221480700F044F800220221480700F057
:1017700062F81B48006880470421080700F04AF817
:1017800058B10421080700F033F8002204210807AB
:1017900000F051F81348006880470821C80600F09F
:1017A00039F858B10821C80600F022F800220821B3
:1017B000C80600F040F80C480068804710218806F1
:1017C00000F028F858B11021880600F011F8002226
:1017D0001021880600F02FF804480068804710BDEB
:1017E0001000002014000020180000201C00002021
:1017F000CA430282704721B1028842F0010202808E
:1018000004E002884FF6FE731A40028070470146DA
:10181000486A704730B50246002000230024158A2C
:1018200005EA0103958905EA010413B10CB1012011
:1018300000E0002030BD1AB183890B43838102E0B0
:1018400083898B438381704741637047816370470D
:10185000C16370470164704700220288184B9842A8
:101860000ED0184B98420BD0B0F1804F08D0164BD9
:10187000984205D0154B984202D0154B984204D19E
:101880004FF68F731A404B881A43124B984207D079
:10189000114B984204D04FF6FF431A400B891A436C
:1018A00002804B68C3620B880385054B984202D0C7
:1018B000044B984201D18B7A0386012383827047BF
:1018C0000000014000040140000400400008004006
:1018D000000C0040001000400014004010B5024809
:1018E00000F008F910BD00007800002010B5024893
:1018F00000F000F910BD0000A008002001F4007203
:10190000B2F5007F00D100BFCA430280704721B109
:10191000828942F40052828104E082894DF6FF738D
:101920001A408281704770B50246002400230025CA
:10193000002040F66A16B14200D100BFC1F3421543
:1019400001F01F03012606FA03F3012D02D1968947
:10195000334006E0022D02D1168A334001E0968A18
:1019600033400C12012606FA04F41688344013B1F1
:101970000CB1012000E0002070BDF0B5034600244A
:1019800000260025002040F66A17B94200D100BFAA
:101990001846C1F3421401F01F06012707FA06F5A5
:1019A000012C01D10C3004E0022C01D1103000E0F8
:1019B00014301AB107682F43076002E00768AF438D
:1019C0000760F0BD2DE9FF4705460E460024A146FD
:1019D00000BFA046B08900B100BF2C8A24F4405457
:1019E000F08804432C82AC8941F20C608443B088B7
:1019F00031890843718908430443AC81AC8A24F4DB
:101A00004074B0890443AC826846FFF7CFFC20489D
:101A1000854202D01F48854202D1DDF80C9001E0DA
:101A2000DDF80890A88900F4004040B109EBC90036
:101A300000EB091031684900B0FBF1F707E009EB52
:101A4000C90000EB091031688900B0FBF1F7642090
:101A5000B7FBF0F004012009642101FB1078A8898C
:101A600000F4004040B1322000EBC800B0FBF1F0C0
:101A700000F00700044308E0322000EB0810642166
:101A8000B0FBF1F000F00F0004432C81BDE8FF87AC
:101A9000001001400014014001468888C0F308008E
:101AA0007047C1F308028280704770B504460D4646
:101AB000012000F030F9668B002000F02CF90EB9FF
:101AC000002070BD218BA068405C2870012000F0D0
:101AD00022F9208B401C80B22083E189884201DBFF
:101AE00000202083608B401E6083002000F013F9EB
:101AF0000120E6E770B5044640F225512068FFF763
:101B000012FFE0B12068FFF7C7FFC5B2E18AA06805
:101B10004554E08A401C80B2E082E189884201DBC2
:101B20000020E082608BE189884202DA608B401CF1
:101B30006083606A10B12846616A884700BF40F23E
:101B400027712068FFF7EFFE08B3A08A60B9002272
:101B500040F227712068FFF710FF012240F2266152
:101B60002068FFF70AFF37E0638A6268D15C20686B
:101B7000FFF797FF608A401C80B26082A18988428B
:101B800001DB00206082A08A401EA08224E040F297
:101B900026612068FFF7C7FEF0B1A08A50B9002285
:101BA00040F226612068FFF7E8FE206AA0B1206AB3
:101BB000804711E0638A6268D15C2068FFF771FF9B
:101BC000608A401C80B26082A189884201DB0020CB
:101BD0006082A08A401EA08270BDF8B504460E4601
:101BE0001746002529E00EE0012000F094F8A08AB5
:101BF0000090002000F08FF8A089BDF80010884206
:101C000000DD01E000BFEFE700BF705D228A616880
:101C10008854012000F07FF8208A401C80B2208286
:101C2000A189884201DB00202082A08A401CA0827A
:101C3000002000F070F8681C85B2BD42D3DB0122A1
:101C400040F227712068FFF798FEF8BD1648174943
:101C5000086017484860174888604FF480608881A2
:101C6000C881002008824882C8820883488388820D
:101C7000C86108624862104810490860104848600E
:101C8000104888604FF480608881C88100200882F5
:101C90004882C8820883488388820B48C8610B4801
:101CA00008620B484862704700100140780000202D
:101CB000A0000020A004002000480040A008002050
:101CC000C8080020C80C0020A3140008B71400089E
:101CD0009714000800BFFEE70FB4054B10B503A929
:101CE000044A029800F01EF810BC5DF814FB0000D6
:101CF000912500084800002002E008C8121F08C112
:101D0000002AFAD170477047002001E001C1121F7C
:101D1000002AFBD1704780F31088704780F3108849
:101D2000704700002DE9FF4F8DB00F460546002695
:101D300006E025280BD0DDE90F1290476D1C761CBC
:101D400028780028F5D111B03046BDE8F08F002486
:101D5000A246A1460122E94900E0044315F8013FEB
:101D6000203B02FA03F00842F7D128782A2810D045
:101D70006FF02F022878A0F13001092914D80AEB5E
:101D80008A0102EB410144F0020400EB010A6D1CE0
:101D9000F0E701CF5FEA000A03D544F40054CAF12A
:101DA000000A44F002046D1C28782E2817D115F87B
:101DB000010F44F004042A280ED06FF02F02287877
:101DC000A0F1300109290AD809EB890102EB410190
:101DD00000EB01096D1CF2E757F8049B6D1C287895
:101DE0006C280FD006DC4C2817D068280DD06A2844
:101DF00014D104E0742810D07A280FD10DE044F4F7
:101E000000140AE044F4801401E044F440146978BA
:101E1000814202D104F580146D1C6D1C28786E2857
:101E20001ED00CDC632830D004DC00288BD058286E
:101E300011D19FE0642867D069280CD164E0732831
:101E40002DD004DC6F2872D0702804D194E075285E
:101E50006ED078286DD0DDE90F129047761C4BE1EB
:101E6000C4F30250022806D0032809D0042801CF69
:101E700009D0066040E101CFF117C0E900613BE104
:101E800001CF068038E1067036E117F8040B8DF8B3
:101E9000000000208DF80100EB46012003E057F818
:101EA00004BB4FF0FF3061074FF0000102D40DE09A
:101EB00008F10101884649450FDA8045F8DB1BF837
:101EC00008100029F4D108E008F101018846814298
:101ED000FADB1BF808100029F6D1DDE90F23AAEB85
:101EE00008008146214600F031F9304400EB080635
:101EF00004E0DDE90F121BF8010B9047B8F101086F
:101F0000F7D221464846F2E00A21C4F302524FF0CC
:101F1000000B0891022A04D001CFC117032A09D06F
:101F20000AE0FF1D27F00707F7E8020108E02CE0B0
:101F30001EE01FE000B2C117042A01D140B2C11750
:101F4000021E71F1000206DA0023D0EB030063EBFE
:101F500001012D2202E0220504D52B228DF8242038
:101F6000012203E0E20701D02022F7E7904653E088
:101F70000A210BE0102109E010214FF0000B44F082
:101F800004044FF00809089103E008214FF0000B0A
:101F90000891C4F30252022A04D001CF0021032A7F
:101FA00006D006E0FF1D27F00707F7E8020103E06F
:101FB00080B2042A00D1C0B24FF0000822072BD50E
:101FC0002A78702A07D0DDF820C08CF0100C5CEA6B
:101FD0000B0C05D00EE040228DF82420012208E0F1
:101FE00050EA010306D030238DF824308DF82520E7
:101FF00002229046089B83F0080353EA0B030BD19F
:1020000050EA010201D1620706D530228DF8242062
:102010004FF00108A9F101092A78582A04D038A202
:102020000B9208AA0A920BE03AA2F9E75B46089ADB
:10203000FEF7DAF80B9B9B5C0A9A521E0A92137009
:1020400050EA0102F2D10A98ADEB000000F1200B3A
:10205000600702D524F4803401E04FF00109D9452E
:1020600002DDA9EB0B0000E0002000EB0B01414476
:102070000890AAEB010AE00306D4DDE90F2321460C
:10208000504600F063F806444FF0000908E009A943
:1020900011F80900DDE90F12904709F10109761CDA
:1020A000C145F4DBE0030CD5DDE90F2321465046A2
:1020B00000F04CF8064404E0DDE90F1230209047B0
:1020C000761C0899481E08900029F5DC08E00A985B
:1020D0000A990078491C0A91DDE90F129047761C95
:1020E000BBF10001ABF1010BF1DC21465046DDE90B
:1020F0000F2300F019F806446D1C21E609280100A1
:10210000303132333435363738396162636465666D
:10211000000000003031323334353637383941422F
:1021200043444546000000002DE9F04104460025E7
:102130001E461746880404D405E039462020B047DF
:102140006D1C641EF9D52846BDE8F0812DE9F041EB
:10215000044600251E469046C80301D5302700E0FE
:102160002027880404D505E041463846B0476D1C59
:10217000641EF9D52846BDE8F08100001CB5012099
:10218000009000208DF8040002208DF80500012049
:102190008DF8070069460248FEF750F91CBD0000A3
:1021A000001002401CB56020009001208DF8040052
:1021B00002208DF8050000208DF8060069460548CC
:1021C000FEF73CF9202000F007F8402000F004F86A
:1021D0001CBD00000010024010B504460020034959
:1021E0000870214600F004F810BD00000000002037
:1021F00070B504460D460448047084F00102A9B28B
:102200000248FEF786F970BD000000200010024071
:1022100010B54FF4407101F007020E4B18684FF6ED
:10222000FF0318400C4B034343EA0220094B18609C
:1022300000BF01210846FFF789F801210220FFF7BE
:1022400085F801211020FFF781F801211020FFF708
:102250009DF810BD0CED00E00000FA0570B50446D5
:102260000120FFF75BFD074806680020FFF756FDD9
:10227000A64201DB351B03E06FF00040001B85190F
:10228000284670BD0C0000200146114890F840011E
:102290000F4B93F84131984201D1002070470C4810
:1022A00090F840010A4B03EBC002184690F8400139
:1022B000401CC0B283F84001282802DB002083F8CC
:1022C000400110880880506848600120E6E700005F
:1022D000E411002010B50120FFF720FD0348046839
:1022E0000020FFF71BFD204610BD00000C00002061
:1022F00010B5FEF73FFA10BD7FB501210846FFF784
:1023000035F81648006845081548B5FBF0F086B268
:102310004FF0FF340294701E80B2ADF8040000202C
:10232000ADF80C00ADF8060001A94FF08040FFF7B2
:1023300093FA01218807FFF75EFA1C208DF8000050
:1023400004208DF8010000208DF8020001208DF896
:1023500003006846FEF7B2FF7FBD000024000020A6
:1023600040420F0070B5002416E0002004EB440149
:10237000204A02EB8101486004EB440102EB810139
:10238000886004EB440102EB8101487004EB4401D6
:1023900002F82100601CC4B2042CE6DBFFF746F90A
:1023A000154800684FF47A72B0FBF2F1481EB0F1A4
:1023B000807F00D31BE0481E4FF0E0225061501791
:1023C0000F22002807DA13071E0E0C4B00F00F0532
:1023D0002D1F5E5503E013071D0E094B1D5400BF52
:1023E00000204FF0E02290610720106100BFFFF74E
:1023F00083FF70BDB41100202400002018ED00E020
:1024000000E400E010B5FFF721FCFEF7DFF8FFF76E
:1024100041F8FDF795FF10BD0C4A92F841210B4B96
:1024200023F832001A4692F8412103EBC2025160B0
:102430001A4692F84121521CD2B283F84121282A2F
:1024400002DB002283F8412170470000E4110020E4
:10245000416851B14168491E416031B90121417063
:102460000178012901D18168416070472DE9F0416F
:1024700004460E461546052E00D3761F4FF08040C9
:10248000FFF7C5F9074607EB0608012C0FD12548D1
:1024900005604146A007FFF7D7F902214807FFF77B
:1024A000A7F9012202214807FFF7C5F938E0022CFD
:1024B0000FD11D48056041466007FFF7C7F90421A9
:1024C0000807FFF795F9012204210807FFF7B3F980
:1024D00026E0032C10D11548056041464FF080409E
:1024E000FFF7B6F90821C806FFF782F90122082193
:1024F000C806FFF7A0F913E0042C0FD10C480560C3
:1025000041462007FFF7A6F910218806FFF770F96A
:10251000012210218806FFF78EF901E0BDE8F08165
:1025200000BFFBE71000002014000020180000206E
:102530001C00002070B505460E462846FDF7E6FE55
:1025400004460CB9002070BD31462046FFF7ADFAB5
:10255000F9E72DE9F04105460E4617462846FDF7F6
:10256000D5FE04460CB9BDE8F081E06908B1E06928
:1025700080473A4631462046FFF72FFB00BFF2E77F
:1025800013B50446012201A92046FFF7E2FF1CBD56
:1025900070B504460D46E1B20020FFF7F1FF20467A
:1025A00070BD00001FB5FFF733FEFFF7FBFDFFF71F
:1025B000E5FDFFF727FFFFF7D5FE35A0FFF78CFB02
:1025C00065E0FEF7D7F801A8FFF75EFE40B1BDF861
:1025D0000400082802D1FDF7D3FE00E000BF00BFD1
:1025E00003A90020FFF7A6FF002850D000210820F3
:1025F000FFF712FF9DF80C003138082842D2DFE8BF
:1026000000F0040A1023292F353B042140F2011069
:10261000FEF7E2F83AE0022140F20130FEF748F915
:1026200034E001208DF8000002208DF80100032025
:102630008DF8020004208DF803006A46022140F262
:102640000130FEF7FFFD21E0012140F20130FEF7ED
:10265000C3FD1BE0012140F20110FEF787FD15E0EC
:10266000002140F20110FEF781FD0FE0032140F24E
:102670000120FEF7E7F809E0012140F20140FEF7F2
:102680004DF903E006A0FFF727FB00BF00BF98E766
:10269000546573742054696D6572323A200D0A00D6
:1026A0004572726F7220436F6465210D0A0000004D
:1026B00000C1814001C0804101C0804100C1814012
:1026C00001C0804100C1814000C1814001C0804102
:1026D00001C0804100C1814000C1814001C08041F2
:1026E00000C1814001C0804101C0804100C18140E2
:1026F00001C0804100C1814000C1814001C08041D2
:1027000000C1814001C0804101C0804100C18140C1
:1027100000C1814001C0804101C0804100C18140B1
:1027200001C0804100C1814000C1814001C08041A1
:1027300001C0804100C1814000C1814001C0804191
:1027400000C1814001C0804101C0804100C1814081
:1027500000C1814001C0804101C0804100C1814071
:1027600001C0804100C1814000C1814001C0804161
:1027700000C1814001C0804101C0804100C1814051
:1027800001C0804100C1814000C1814001C0804141
:1027900001C0804100C1814000C1814001C0804131
:1027A00000C1814001C0804101C0804100C1814021
:1027B00000C0C101C30302C2C60607C705C5C404E1
:1027C000CC0C0DCD0FCFCE0E0ACACB0BC90908C851
:1027D000D81819D91BDBDA1A1EDEDF1FDD1D1CDC41
:1027E00014D4D515D71716D6D21213D311D1D010B1
:1027F000F03031F133F3F23236F6F737F53534F4A1
:102800003CFCFD3DFF3F3EFEFA3A3BFB39F9F83810
:1028100028E8E929EB2B2AEAEE2E2FEF2DEDEC2C00
:10282000E42425E527E7E62622E2E323E12120E070
:10283000A06061A163A3A26266A6A767A56564A460
:102840006CACAD6DAF6F6EAEAA6A6BAB69A9A868D0
:1028500078B8B979BB7B7ABABE7E7FBF7DBDBC7CC0
:10286000B47475B577B7B67672B2B373B17170B030
:102870005090915193535292965657975595945420
:102880009C5C5D9D5F9F9E5E5A9A9B5B9959589890
:10289000884849894B8B8A4A4E8E8F4F8D4D4C8C80
:1028A00044848545874746868242438341818040F0
:1028B000D0280008000000204C000000F81C000890
:1028C0001C2900084C0000202C170000081D0008DF
:1028D00000000000000000000000000000000000F8
:1028E00000000000000000000000000000000000E8
:1028F00000000000007A030A000000000000000051
:102900000102030406070809000000000102030495
:0C29100001020304060708090000000093
:040000050800018965
:00000001FF
