:020000040800F2
:10000000280F0020A1010008C5060008E90100082A
:10001000C1060008FB010008B50B00080000000045
:100020000000000000000000000000006D08000853
:100030003D05000800000000410700085D090008B8
:10004000BB010008BB010008BB010008BB010008A0
:10005000BB010008BB010008BB010008BB01000890
:10006000BB010008BB010008BB010008BB01000880
:10007000BB010008BB010008BB010008BB01000870
:10008000BB010008BB010008BB010008BB01000860
:10009000BB010008BB010008BB010008BB01000850
:1000A000BB010008BB010008BB010008BB01000840
:1000B000BB010008BB010008BB010008BB01000830
:1000C000BB010008BB010008BB010008BB01000820
:1000D000BB010008D5090008BB010008BB010008EE
:1000E000BB010008BB010008BB010008BB01000800
:1000F000BB010008BB010008BB010008BB010008F0
:10010000BB010008BB010008BB010008BB010008DF
:10011000BB010008BB010008BB010008BB010008CF
:10012000BB010008BB01000801020008BB01000878
:10013000BB010008BB010008BB010008BB010008AF
:10014000BB010008BB010008BB010008BB0100089F
:10015000BB010008BB01000841020008BB01000808
:10016000BB010008BB010008BB010008BB0100087F
:10017000BB010008BB010008BB010008BB0100086F
:10018000BB010008BB010008DFF810D000F01AF82E
:1001900000480047C50E0008AFF30080280F00207C
:1001A0000648804706480047FEE7FEE7FEE7FEE711
:1001B000FEE7FEE7FEE7FEE7FEE7FEE76D09000863
:1001C00089010008064C074D06E0E06840F0010395
:1001D00094E8070098471034AC42F6D3FFF7D8FFF5
:1001E00044140008641400081EF0040F0CBFEFF361
:1001F0000880EFF3098000F00DBA00BFFEE70000B1
:1002000010B50C490C4800F01DF930B1002000F089
:100210004DFF0849084800F03FF80849064800F03B
:1002200011F930B1002000F0F1FE0449024800F05D
:1002300033F810BD004010104064024000802010D0
:1002400010B50649064800F0FDF830B1002000F076
:10025000D9FF0249024800F01FF810BD00800028B5
:10026000B86402400246094B9A4201D2084801E0B4
:100270000648103801F000531BB1064B0B40C36019
:1002800002E0044B0B4083607047000010640240A2
:10029000006002407D0F7D0F0246094B9A4201D259
:1002A000084801E00648103801F000531BB1064B26
:1002B0000B40C36002E0044B0B40836070470000BA
:1002C00010640240006002407D0F7D0F21B1026882
:1002D00042F00102026003E0026822F001020260C3
:1002E00070470000016821F00101016000210160F8
:1002F00041608160C1600161212141614A498842B8
:1003000004D13D21484A103A91608CE046491831A9
:10031000884205D14FF47461434A103A916082E0FB
:1003200041493031884205D14FF474113E4A103AA8
:10033000916078E03C494831884205D14FF07461C2
:10034000394A103A91606EE037496031884204D1F1
:100350003649354A103AD16065E0334978318842F0
:1003600004D13349304A103AD1605CE02E499031D3
:10037000884204D12F492C4A103AD16053E02A49CF
:10038000A831884205D14FF03D51274A103AD1603B
:1003900049E02949884204D13D21274A083A1160A1
:1003A00041E025491831884205D14FF47461224A51
:1003B000083A116037E020493031884205D14FF4C6
:1003C00074111D4A083A11602DE01B4948318842DA
:1003D00005D14FF07461184A083A116023E01649BC
:1003E0006031884204D11149134A121F11601AE08A
:1003F00011497831884204D10D490F4A121F11600A
:1004000011E00D499031884204D10A490A4A121F6D
:10041000116008E00849A831884204D14FF03D51ED
:10042000054A121F11607047106002403D00002015
:10043000400F002000003D20106402400146486843
:1004400080B2704770B50246002000240025124E8D
:10045000B24201D2114B01E00F4B103B104E0E4047
:1004600036B11E2606EAD124166806EA040502E023
:10047000566906F0800501F000560EB15C6800E098
:100480001C68084E344004EA010616B10DB1012083
:1004900000E0002070BD00001064024000600240D7
:1004A0003C0F3C0F7D0F7D0F10B501F080034BB169
:1004B00022B1436943F08003436103E0436923F0C1
:1004C0008003436180290BD02AB1036801F01E0428
:1004D0002343036004E0036801F01E04A3430360A8
:1004E00010BD000010B500220268134B1A40CC6802
:1004F0000B6823434C6923438C692343CC69234312
:100500000C6A23434C6A23438C6A23434C6B23437A
:100510008C6B23431A430260426922F00702D1E93F
:100520000B3423431A4342610B6943604B68836079
:100530008B68C36010BD00003F801CF07047F0B5B1
:100540000A4600210023002400BF3DE0012505FAF2
:1005500001F3156805EA03049C4234D105684F0095
:100560000326BE40B543056015794E00B5400668C8
:10057000354305601579012D02D01579022D16D16C
:1005800085684F000326BE40B543856055794E000F
:10059000B540866835438560456801268E40B54381
:1005A0004560456896798E40B6B235434560C5686A
:1005B0004F000326BE40B543C560D5794E00B54017
:1005C000C6683543C560491C1029BFD3F0BDF0B5DE
:1005D000002300244D07ED0E02FA05F3CE1000F1C2
:1005E000200555F826504E07F70E0F26BE40B5439E
:1005F000CF1000F1200646F82750CE1000F120055C
:1006000055F8265045EA0304CE1000F1200545F8C0
:100610002640F0BD2849096801F0004149B126494A
:10062000096841F00041244A11608169891C816197
:100630007047214908390968204A11621E49091F7B
:10064000097882F824101C49C91E097891621A4958
:100650000C310968D1621849891E0988118616492A
:10066000096851631449091D0968916312491031E1
:100670000968D16310490C31096851640E49083189
:10068000096891640C49091F0968116400BE0B4A8E
:10069000016811604168516081689160C168D160F2
:1006A000016911614169516181699161C169D161DA
:1006B00000BE00BFBCE700002CED00E0D80A00201F
:1006C00000BFFEE77047000070B5002100230F2235
:1006D000C4781CB3174C246804F4E064C4F5E064E7
:1006E000C4F30721C1F10404E3B20A4144789C40F9
:1006F000E1B28478144021430C07210E0E4C05789A
:100700006155047804F01F050124AC4005786D1193
:10071000AD0005F1E025C5F8004109E0047804F0DA
:100720001F050124AC40054D0678761145F826409A
:1007300070BD00000CED00E000E400E080E100E0AE
:100740007047000029B1064A12680243044B1A6040
:1007500004E0034A12688243014B1A6070470000AC
:100760003038024029B1064A12680243044B1A602D
:1007700004E0034A12688243014B1A60704700008C
:1007800044380240F0B50021002200240225002652
:100790000223324F3F6807F00C0121B1042905D034
:1007A000082937D105E02E4F076036E02D4F07604E
:1007B00033E02A4F3F1F3F68C7F38056274F3F1F44
:1007C0003F6807F03F036EB1264FB7FBF3F7DFF842
:1007D0008CC0ACF1040CDCF800C0CCF3881C07FB27
:1007E0000CF40CE01E4FB7FBF3F7DFF870C0ACF170
:1007F000040CDCF800C0CCF3881C07FB0CF4174F8A
:100800003F1F3F68C7F301477F1C7D00B4FBF5F72E
:10081000076002E0124F076000BF00BF0F4F3F6844
:1008200007F0F0010909104F7A5C0768D74047606C
:100830000A4F3F6807F4E051890A0B4F7A5C47681A
:10084000D7408760054F3F6807F46041490B064F6A
:100850007A5C4768D740C760F0BD000008380240A6
:100860000024F40000127A002000002070470000ED
:100870000CB50020019000903448006840F48030AE
:100880003249086000BF3148006800F40030009031
:100890000198401C0190009818B90198B0F5A04F3C
:1008A000F1D12A48006800F4003010B10120009016
:1008B00001E0002000900098012846D123484030F4
:1008C000006840F0805021494031086020480068AD
:1008D00040F440401E4908601C48083000681B492D
:1008E000083108600846006840F400400860084687
:1008F000006840F4A05008601648091F0860081FEF
:10090000006840F08070091F086000BF0F48006851
:1009100000F000700028F9D040F205700E49086020
:100920000A480830006820F00300084908310860D0
:100930000846006840F00200086000BF0348083025
:10094000006800F00C000828F8D10CBD0038024007
:100950000070004008544007003C02400248006814
:10096000401C0149086070470800002010B5154878
:10097000006840F47000134908601348006840F0B4
:1009800001001149086000200F49083108600E4835
:1009900000680E4908400C4908600D48091D0860B0
:1009A000081F006820F48020091F08600020064905
:1009B0000C310860FFF75CFF4FF00060014980399F
:1009C000086010BD88ED00E000380240FFFFF6FE31
:1009D0001030002410B540F22441064800F030F8F1
:1009E00038B1002000F0B8FB40F22441014800F08B
:1009F00003F810BD0010014010B50022002340F69E
:100A00006A14A14200D100BF0A1201249440A3B28B
:100A1000DC43048010BD21B1828942F400528281FE
:100A200004E082894DF6FF731A40828170471AB143
:100A3000838A0B43838202E0838A8B4383827047DD
:100A400070B50246002400230025002040F66A16F7
:100A5000B14200D100BFC1F3421501F01F030126CE
:100A600006FA03F3012D02D19689334006E0022DE8
:100A700002D1168A334001E0968A33400C120126D7
:100A800006FA04F41688344013B10CB1012000E0DA
:100A9000002070BDF0B5034600240026002500208C
:100AA00040F66A17B94200D100BF1846C1F342149C
:100AB00001F01F06012707FA06F5012C01D10C30C1
:100AC00004E0022C01D1103000E014301AB10768A4
:100AD0002F43076002E00768AF430760F0BD0000E6
:100AE0002DE9FF4705460E460024A14600BFA0465B
:100AF000B08900B100BF2C8A24F44054F08804432C
:100B00002C82AC8941F20C608443B088318908435F
:100B1000718908430443AC81AC8A24F44074B089E1
:100B20000443AC826846FFF72DFE2048854202D080
:100B30001F48854202D1DDF80C9001E0DDF80890F5
:100B4000A88900F4004040B109EBC90000EB09108E
:100B500031684900B0FBF1F707E009EBC90000EB91
:100B6000091031688900B0FBF1F76420B7FBF0F0A1
:100B700004012009642101FB1078A88900F40040D9
:100B800040B1322000EBC800B0FBF1F000F00700EC
:100B9000044308E0322000EB08106421B0FBF1F0C0
:100BA00000F00F0004432C81BDE8FF8700100140D6
:100BB0000014014000BFFEE702E008C8121F08C190
:100BC000002AFAD170477047002001E001C1121FCE
:100BD000002AFBD17047000030B5144800684FF47C
:100BE0007A72B0FBF2F1481EB0F1807F00D31BE0B7
:100BF000481E4FF0E022506150170F22002807DAFC
:100C000013071D0E0A4B00F00F04241F1D5503E0AF
:100C100013071C0E074B1C5400BF00204FF0E022AE
:100C200090610720106100BF30BD00000C00002063
:100C300018ED00E000E400E010B54FF4407101F061
:100C40000702104B18684FF6FF0318400E4B034382
:100C500043EA02200B4B186000BF01210846FFF752
:100C600071FD01210220FFF76DFD01211020FFF72A
:100C700069FD01211020FFF775FD01218805FFF7AF
:100C800061FD10BD0CED00E00000FA0530B58FB03D
:100C900005460C461A48FFF725FB00211848FFF7C8
:100CA00015FB4FF000600090002003900A904FF475
:100CB00080700990002005904FF48060069000201D
:100CC000079008900B900F48019002950494012022
:100CD0000C9000200D900E9069460948FFF702FC29
:100CE000012218210648FFF7DFFB07490448FFF7F8
:100CF000B9FA01210248FFF7E9FA0FB030BD000050
:100D000040640240041001400000301030B58FB044
:100D100005460C461948FFF7E5FA00211748FFF78A
:100D2000D5FA4FF0006000904020039000200A9018
:100D3000099005904FF4806006900020079008907D
:100D40000B900F4801900295049401200C90002014
:100D50000D900E9069460948FFF7C4FB4FF03D51D6
:100D60000648FFF77FFA012214210448FFF79CFB95
:100D700001210248FFF7AAFA0FB030BDB864024063
:100D80000410014010B50248FFF758FB10BD0000E9
:100D90004064024070B504460CB9002070BD0025C7
:100DA000204600F004F861680D1A2846F6E701466F
:100DB00009B9002070478868FCE772B670472DE9D2
:100DC000F04104460E4615464FF0000800270DB1CD
:100DD00004B116B90020BDE8F0812046FFF7E7FF17
:100DE00007460FB90020F6E7AF4200D23D466069E2
:100DF00008B160698047A84610E02169481C20615D
:100E0000087806F8010BD4E90001084421698842FA
:100E100001D820682061A068401EA060B8F10000E1
:100E2000A8F10108E9D1A06908B1A0698047284666
:100E3000D1E730B5039C01604260002585600568FC
:100E4000C560056805614361846130BD62B6704765
:100E50002DE9F04104460E4615464FF000080027E4
:100E60000DB104B116B90020BDE8F0812046FFF7AE
:100E700091FF07460FB90020F6E7AF4200D23D468A
:100E8000A846606908B16069804710E016F8011B48
:100E9000E268501CE0601170D4E900010844E16888
:100EA000884201D82068E060A068401CA060B8F1CA
:100EB0000000A8F10108E9D1A06908B1A069804744
:100EC0002846D1E7FFF7B8FEFFF786FE002000F0C6
:100ED00027F81EE00F480068401C0E4908600846CD
:100EE00000684FF47A71B0FBF1F201FB120080B997
:100EF0004FF480720849002000F07AFA0749088010
:100F0000084602880449002000F088FA002000F01A
:100F100021FADFE70000002030000020040000205C
:100F200038B50446002C54D104EB440101EB041104
:100F3000284A02EB81010090081D00234FF48062D3
:100F40002549FFF776FF254804EB440101EB041126
:100F5000204A02EB8101009001F12000204B4FF468
:100F600080622049FFF765FF1F4804EB440101EB55
:100F70000411184A02EB8101C863802004EB44018C
:100F800001EB041102EB8101A1F84000174804EBCA
:100F9000440101EB041102EB81014864802004EB61
:100FA000440101EB041102EB8101A1F8480004EBBC
:100FB000440101EB041102EB8101C86B802100F0B8
:100FC00017F8002004EB440101EB0411014A02F878
:100FD000210038BD300A0020300100204D0E0008ED
:100FE000BB0D00083005002030090020B0090020AA
:100FF00070B504460D4600F085F900F00FF900F0D9
:1010000051F929462046FFF741FE70BD70B50446F0
:1010100004EB440000EB0410224901EB8000B0F81F
:10102000400004EB440101EB04111E4A02EB810174
:10103000B1F84A10401A85B2012000EB44001A4969
:1010400051F820002844012101EB4401164A42F8DE
:10105000210004EB440202EB0412124B03EB820268
:10106000D26B04EB440303EB04130E4E06EB830335
:10107000B3F84A30D11804EB440202EB04123346B1
:1010800003EB820202F120002A46FFF7E1FE002076
:1010900004EB440101EB0411324602EB8101A1F89B
:1010A0004A0070BD300A0020C80A00202DE9F04136
:1010B000044664B9FFF766FE04EB440101EB04113A
:1010C000234A02EB8101B1F84010081A85B204EB03
:1010D000440000EB04101E4901EB8000B0F84A0008
:1010E000281A86B2012000EB44001A4951F820006A
:1010F0003044012101EB4401164A42F8210004EB7F
:10110000440202EB0412124B03EB8202D26B04EB9B
:10111000440303EB04130E4F07EB8303B3F84A3089
:10112000D11804EB440202EB04123B4603EB8202AB
:1011300002F120003246FFF78BFE04EB440000EB87
:101140000410394601EB8000A0F84A50BDE8F08158
:10115000300A0020C80A00202DE9F041044664B995
:10116000FFF710FE04EB440101EB0411234A02EBEC
:101170008101B1F84010081A85B204EB440000EB7D
:1011800004101E4901EB8000B0F84A00281A86B20C
:10119000012000EB44001A4951F82000304401219D
:1011A00001EB4401164A42F8210004EB440202EB31
:1011B0000412124B03EB8202D26B04EB440303EBE9
:1011C00004130E4F07EB8303B3F84A30D11804EB36
:1011D000440202EB04123B4603EB820202F12000C0
:1011E0003246FFF735FE04EB440000EB04103946AD
:1011F00001EB8000A0F84A50BDE8F081300A0020E1
:10120000C80A0020002100EB400202EB0012024B52
:1012100003F8221070470000300A002008B54FF490
:10122000407101F007021D4B18684FF6FF0318408C
:101230001B4B034343EA0220184B186000BF0020F9
:1012400000903A208DF8000001208DF80100002068
:101250008DF8020001208DF803006846FFF734FA8C
:1012600046208DF8000001208DF801008DF8020065
:101270008DF803006846FFF727FA25208DF8000057
:1012800002208DF8010000208DF8020001208DF869
:1012900003006846FFF718FA08BD00000CED00E0F7
:1012A0000000FA051FB501211020FFF75BFA0020AE
:1012B00000900190029003904FF4E13000900020E4
:1012C000ADF80400ADF80600ADF808000C20ADF84C
:1012D0000A000020ADF80C0069460948FFF700FC41
:1012E00001210748FFF797FB0122C0210448FFF7BF
:1012F0009EFB012240F224410148FFF7CBFB1FBDBA
:10130000001001401CB501210846FFF71BFA002020
:10131000009001904FF4C060009002208DF804000E
:101320008DF8050000208DF8060001208DF80700DB
:1013300069460748FFF703F9072209210448FFF728
:1013400046F907220A210248FFF741F91CBD0000B7
:101350000000024070B50446002504EB440000EB99
:101360000410214911F82000012800D170BD04EBC0
:10137000440303EB04131C4E06EB8303B3F848202D
:1013800004EB440303EB041306EB8303596C04EBF7
:10139000440303EB041306EB8303181DFFF70FFD53
:1013A00085B2FDB1002000EB4400104951F8200047
:1013B0002844002101EB44010C4A42F821008CB979
:1013C000012004EB440101EB0411324602F8210034
:1013D00004EB440101EB041102EB8101486C294646
:1013E000FFF794FC00BFC1E7300A0020C80A0020C4
:1013F00070B504460D46164604EB440101EB04119A
:10140000054A02EB810101F1200032462946FFF72F
:10141000D6FC80B270BD0000300A002070B50446D2
:101420000D46164604EB440101EB0411044A02EB9D
:101430008101081D32462946FFF70AFD80B270BDC2
:10144000300A002064140008000000203000000072
:10145000B80B00089414000830000020F80E0000BB
:10146000C80B0008000000000000000000000000A1
:10147000007A030A000000000000000001020304DB
:10148000060708090000000001020304010203042A
:04149000060708093A
:040000050800018965
:00000001FF
